:100000000C9439070C9480070C9480070C9480079B
:100010000C9480070C9480070C9480070C94800744
:100020000C9480070C9480070C948E270C944A271C
:100030000C94E52F0C9480070C9480070C94800797
:100040000C9480070C9480070C9480070C94800714
:100050000C9480070C94C12F0C9480070C9480079B
:100060000C9480070C9480070C9480070C948007F4
:100070000C9480070C9480070C9480070C948007E4
:100080000C9480070C9480070C9480070C948007D4
:100090000C9480070C9480070C9480070C948007C4
:1000A0000C9480070C9480070C948007000500FFD7
:1000B000FFFF00000000000555FFFFFF00000000EB
:1000C0000005AAFFFFFF000000000631FF0974A130
:1000D000010975150026FF00952075088102097633
:1000E000150026FF00952075089102C005010980C2
:1000F000A101850319012AB700150126B700950152
:1001000075108100C0050C0901A101850419012A9F
:10011000A002150126A002950175108100C006609D
:10012000FF0961A1010962150026FF0095207508ED
:1001300081020963150026FF00952075089102C011
:1001400005010906A101050719E029E715002501A8
:10015000950875018102950175088101050719004F
:1001600029FF150026FF009506750881000508196E
:10017000012905950575019102950175039101C04D
:10018000000101010101010101010202020202025A
:10019000020202030303030303030304040404042D
:1001A00004040505050505060606060607070707F4
:1001B0000708080808090909090A0A0A0B0B0B0CA9
:1001C0000C0C0D0D0D0E0E0E0F0F0F101011111146
:1001D00012121313141415151616171718181919C7
:1001E0001A1A1B1B1C1D1D1E1E1F2020212222232C
:1001F0002424252626272829292A2B2C2D2D2E2F6D
:1002000030313232333435363738393A3B3C3D3E83
:100210003F404142434445464748494A4C4D4E4F72
:1002200050515354555658595A5B5D5E5F61626434
:10023000656668696B6C6D6F7072737577787A7BC1
:100240007D7E8082838587888A8C8E8F9193959618
:10025000989A9C9EA0A2A3A5A7A9ABADAFB1B3B538
:10026000B7BABCBEC0C2C4C6C9CBCDCFD1D4D6D814
:10027000DBDDDFE2E4E7E9EBEEF0F3F5F8FAFDFFB2
:100280007267626C69676874206D6F6465205B4E8D
:100290004F454550524F4D5D3A2025750A00726713
:1002A000626C69676874206D6F6465205B454550BA
:1002B000524F4D5D3A2025750A007267626C69677E
:1002C000687420656E61626C65205B454550524FD5
:1002D0004D5D3A207267626C696768745F636F6E28
:1002E0006669672E656E61626C65203D2025750A22
:1002F000007267626C6967687420656E61626C6524
:10030000205B4E4F454550524F4D5D3A207267621B
:100310006C696768745F636F6E6669672E656E618E
:10032000626C65203D2025750A007267626C696702
:1003300068742064697361626C65205B4E4F45454B
:1003400050524F4D5D3A207267626C696768745F06
:10035000636F6E6669672E656E61626C65203D2015
:1003600025750A007267626C69676874207365742A
:1003700020687376205B4E4F454550524F4D5D3A95
:100380002025752C25752C25750A007267626C690D
:100390006768742073657420687376205B454550E8
:1003A000524F4D5D3A2025752C25752C25750A0078
:1003B0007267626C69676874207261696E626F77D8
:1003C00020736574206873763A2025642C25642C8C
:1003D00025642C25750A00FFAA7F55407267626C60
:1003E000696768742074696D657220656E61626CFE
:1003F00065642E0A007267626C69676874207469AC
:100400006D65722064697361626C652E0A00222337
:10041000252628292A2C2D2F3032333536383A3BE1
:100420003D3E4042434547494A4C4E505153555733
:10043000595A5C5E6062646668696B6D6F71737552
:1004400077797B7D7F81838587898A8C8E90929452
:1004500096989A9C9E9FA1A3A5A7A8AAACAEAFB15F
:10046000B3B4B6B8B9BBBCBEBFC1C2C3C5C6C7C9A9
:10047000CACBCCCDCED0D1D2D2D3D4D5D6D7D7D863
:10048000D9D9DADADBDBDBDCDCDCDCDCDDDDDDDDB5
:10049000DCDCDCDCDCDBDBDBDADAD9D9D8D7D7D6BD
:1004A000D5D4D3D2D2D1D0CECDCCCBCAC9C7C6C574
:1004B000C3C2C1BFBEBCBBB9B8B6B4B3B1AFAEACBA
:1004C000AAA8A7A5A3A19F9E9C9A98969492908E65
:1004D0008C8A89878583817F7D7B79777573716F3E
:1004E0006D6B6968666462605E5C5A59575553511A
:1004F000504E4C4A4947454342403E3D3B3A3836D0
:10050000353332302F2D2C2A292826252322A800E6
:10051000AE000251AC005200AB00500051004F0041
:10052000C25C010001000100C95C0100C45CCA5C3E
:10053000C35C000000000100DE5C005C015C0000A8
:1005400000000000000000000000000000000000AB
:10055000000000000000000000000000000000009B
:10056000000000000000000000007E0F00D4FFFF2C
:10057000FFC70000007800000000000000002A2BE8
:100580002800000000000000000000000000000043
:100590000029000000002C1E3420212224342627AC
:1005A000252E362D3738271E1F20212223242526CD
:1005B0003333362E37381F0405060708090A0B0C9B
:1005C0000D0E0F101112131415161718191A1B1CE3
:1005D0001D2F3130232D350405060708090A0B0CA1
:1005E0000D0E0F101112131415161718191A1B1CC3
:1005F0001D2F3130354C7267626C696768742064F6
:10060000697361626C65205B454550524F4D5D3AA0
:10061000207267626C696768745F636F6E66696792
:100620002E656E61626C65203D2025750A0072673B
:10063000626C6967687420746F67676C65205B45DE
:100640004550524F4D5D3A207267626C696768741D
:100650005F636F6E6669672E656E61626C65203DD3
:100660002025750A0044454255473A206469736164
:10067000626C65642E0A0044454255473A20656E17
:1006800061626C65642E0A003F00433E20000A0050
:100690002530325820006B6579626F6172645F7239
:1006A00065706F72743A20000A002575002E6E6B1B
:1006B000726F3A20000A002575002E737761705F13
:1006C0006261636B736C6173685F6261636B7370AB
:1006D0006163653A20000A002575002E737761700A
:1006E0005F67726176655F6573633A20000A002573
:1006F00075002E6E6F5F6775693A20000A002575D8
:10070000002E737761705F72616C745F72677569D8
:100710003A20000A002575002E737761705F6C61C6
:100720006C745F6C6775693A20000A002575002EAD
:10073000737761705F7263746C5F726775693A207A
:10074000000A002575002E737761705F6C63746C0E
:100750005F6C6775693A20000A002575002E636199
:1007600070736C6F636B5F746F5F636F6E74726FC7
:100770006C3A20000A002575002E737761705F6364
:100780006F6E74726F6C5F636170736C6F636B3AE2
:1007900020000A0025303258006B65796D61705F6A
:1007A000636F6E6669672E7261773A20000A0025D2
:1007B00075002E6D6F7573653A20000A002575006F
:1007C0002E6B6579626F6172643A20000A002575AC
:1007D000002E6D61747269783A20000A0025750058
:1007E0002E656E61626C653A20000A002530325831
:1007F0000064656275675F636F6E6669672E72611C
:10080000773A20000A0025750064656661756C748E
:100810005F6C617965723A20000A092D204D61678D
:100820006963202D0A443A094465627567204D6565
:10083000737361676520546F67676C650A583A097E
:100840004D6174726978204465627567204D6F64EC
:100850006520546F67676C65202D2053686F772083
:100860006B65797072657373657320696E206D6155
:100870007472697820677269640A4B3A094B65792A
:10088000626F61726420446562756720546F6767A8
:100890006C65202D2053686F77206B6579707265C9
:1008A0007373207265706F72740A4D3A0944656201
:1008B0007567204D6F75736520546F67676C650AA7
:1008C000563A0956657273696F6E0A533A09537442
:1008D000617475730A433A0941637469766174659A
:1008E00020436F6E736F6C65204D6F64650A4631EF
:1008F0002D4631303A0953776974636820746F204C
:100900004C6179657220302D392028463130203DE8
:10091000204C30290A302D393A09537769746368BD
:1009200020746F204C6179657220302D390A47524E
:100930004156453A0953776974636820746F204CB7
:100940006179657220302028616C7465726E617403
:1009500065290A423A094A756D7020746F20426F0A
:100960006F746C6F616465720A4553433A094A7546
:100970006D7020746F20426F6F746C6F616465726C
:100980002028616C7465726E617465290A453A09A4
:100990005072696E7420454550524F4D2053657416
:1009A00074696E67730A4253504143453A09436C78
:1009B00065617220454550524F4D0A000A092D20AD
:1009C000436F6E736F6C65202D0A4553432F713A48
:1009D00009717569740A004743433A20382E332E53
:1009E00030204156522D4C4942433A20322E302E6F
:1009F00030204156525F415243483A206176723569
:100A00000A004F5054494F4E533A204C554641200E
:100A100045585452414B455920434F4E534F4C4536
:100A200020434F4D4D414E44204C544F20343039DB
:100A3000360A004255494C443A2022302E392E3491
:100A4000362D342D676466613330312220283133EE
:100A50003A32363A3130204A756C20323720323003
:100A60003230290A005649443A203078343735323A
:100A700028677265676F72696F29205049443A2070
:100A8000307834443439284D6978692920564552E4
:100A90003A203078303030310A000A092D2056656E
:100AA0007273696F6E202D0A0074696D65725F72D2
:100AB000656164333228293A202530346C580A00A5
:100AC0006B6579626F6172645F69646C653A202559
:100AD000580A006B6579626F6172645F70726F743F
:100AE0006F636F6C3A2025580A00686F73745F6BF0
:100AF0006579626F6172645F6C65647328293A205E
:100B000025580A000A092D20537461747573202D2D
:100B10000A003F000A6D6F7573653A206F66660ABA
:100B2000000A6D6F7573653A206F6E0A000A6B6577
:100B300079626F6172643A206F66660A000A6B65BB
:100B400079626F6172643A206F6E0A000A6D617497
:100B50007269783A206F66660A000A6D617472697C
:100B6000783A206F6E0A000A64656275673A206FF2
:100B700066660A000A64656275673A206F6E0A004D
:100B80000A0A4A756D70696E6720746F20626F6F14
:100B9000746C6F616465722E2E2E2000433E20001F
:100BA000436C656172696E6720454550524F4D0A2E
:100BB000006565636F6E6669673A0A004C25640AD2
:100BC000007267626C696768745F636F6E666967FD
:100BD0002E7370656564203D2025640A007267628B
:100BE0006C696768745F636F6E6669672E76616CA7
:100BF000203D2025640A007267626C696768745F33
:100C0000636F6E6669672E736174203D2025640AE8
:100C1000007267626C696768745F636F6E666967AC
:100C20002E687565203D2025640A007267686C692E
:100C30006768745F636F6E6669672E6D6F646520A9
:100C40003D2025640A007267626C696768745F639F
:100C50006F6E6669672E656E61626C65203D20254A
:100C6000640A007267626C696768745F636F6E66BE
:100C7000696720454550524F4D3A0A007267626CD1
:100C8000696768745F696E6974207267626C69670E
:100C900068745F636F6E6669672E6D6F6465203D73
:100CA00020302E2057726974652064656661756C0A
:100CB000742076616C75657320746F2045455052C1
:100CC0004F4D2E0A007267626C696768745F696EC7
:100CD0006974206565636F6E666967206973206E4D
:100CE0006F7420656E61626C65642E0A00726762C3
:100CF0006C696768745F696E69742073746172747B
:100D0000210A007267626C696768745F696E697452
:100D10002063616C6C65642E0A00C000B600AC00F4
:100D200000000A0025303862003A20002530325891
:100D3000000A722F632030313233343536370A00DF
:100D400032190A00047F3F1F643214643214783C65
:100D50001E1E140A050A0025303258006B657962A0
:100D60006F6172645F7365745F6C65643A200072D2
:100D700067626C6967687420736574207370656559
:100D800064205B4E4F454550524F4D5D3A202575CE
:100D90000A005B735D004B6579626F61726420735A
:100DA000746172742E0A005B435D005B445D005BFE
:100DB000535D005B575D005B525D0009027B0004E0
:100DC0000100A0FA0904000001030101000921113A
:100DD0000100012240000705810308000A090401FF
:100DE0000002030000000921110100012222000776
:100DF0000582032000010705030320000109040206
:100E00000001030000000921110100012232000746
:100E100005840320000A09040300020300000009FE
:100E2000211101000122220007058503200001078E
:100E300005050320000112011001000000085247BF
:100E4000494D0100010203010403300000000A03C0
:100E50004D0069007800690000001203670072000D
:100E6000650067006F00720069006F0000000403F6
:100E7000090411241FBECFEFDAE0DEBFCDBF04B6F8
:100E800003FE27C08091870290918802A091890279
:100E9000B0918A028730904BA740B04BD1F41092AA
:100EA0008702109288021092890210928A0214BE60
:100EB00084B7877F84BF0FB6F894A89580916000AF
:100EC000886180936000109260000FBEE0E0F8E35C
:100ED000099522E0AAEAB1E001C01D92A738B20745
:100EE000E1F711E0A0E0B1E0E2ECF3E602C005902A
:100EF0000D92AA3AB107D9F70E94C8280C949431F0
:100F00000C940000FF93EF93E091AA01F091AB01E4
:100F1000309709F00995EF91FF910895FC018591B3
:100F2000803011F0EFDFFBCF0895FF27E0E230E2E1
:100F300047FF0CC0419597FF09C0EDE260957095A1
:100F400080959095611D711D811D911D27FF02C027
:100F5000219530E350E2AA27660F771F881F991F5B
:100F6000AA1FA41710F0A41B63955A95A9F7AA30DD
:100F700008F0A95FA05DAF93F39561157105810538
:100F8000910541F7ED3211F4EF93F395F21718F450
:100F90003F93F395FBCF8F91B5DFFA95E1F7089575
:100FA000E991F9918591803021F0853219F0AADF1D
:100FB000F9CF089520E0E89455915532C1F35033AC
:100FC00011F4689455915A3348F4505390F3220F1A
:100FD000022E220F220F200D250FF4CF0EF42195A3
:100FE00089919991533619F3533729F1533559F1B2
:100FF000BC0188279927E8945C3621F4899199915E
:1010000068945591543639F446EF7EF077FF0DC061
:101010008FEF9FEF0AC055374AE039F0583540E16D
:1010200021F0523642E009F00895FF93EF937DDFFF
:10103000EF91FF91B7CFFF93EF93FC018191803047
:10104000B9F360DFFBCFFF93EF9368DFF1CFDF935E
:10105000CF93CDB7DEB72596A3DFCF91DF9108956B
:10106000E8EDF0E080818E7F80831092E2001092A4
:10107000DA001092E100A0EEB0E08C9181608C93D8
:1010800080818F77808319BCA7EDB0E08C918E7F33
:101090008C9380818F7E808310925D0208952091D1
:1010A000E4003091E50095E6A9012091EC00822F43
:1010B000817020FF06C08091E80080FF06C080E0BC
:1010C00008952091E80022FD1AC0809175028823BE
:1010D00089F0853089F08091EB0085FD0FC020916B
:1010E000E4003091E50042175307F9F29150E1F620
:1010F00084E0089582E0089583E0089581E00895F2
:10110000EF92FF920F931F93CF937C018B010E946C
:101110004F08C82F811117C08091E80085FD0BC0D2
:101120008091E8008E778093E8000E944F08882322
:1011300099F3C82F08C0F70181917F018093F100D6
:101140000150110949F78C2FCF911F910F91FF90FA
:10115000EF900895CF93FC0180917502843001F5E2
:10116000C091E900CF702091EC00922F917020FD8A
:1011700090E8C92B82E08093E9008091E80080FF2D
:101180000CC050E040E060E270E0CF010E948008B7
:101190008091E8008E778093E800CF70C093E900DB
:1011A000CF91089580916D0287FF13C08091E80070
:1011B00082FF06C08091E8008B778093E80004C02E
:1011C000809175028111F2CF089580917502882374
:1011D000D9F38091E80080FFF8CF8091E8008E7706
:1011E000ECCF982F9093E900242F762F50E08917A9
:1011F00031F07091EC002091ED005091F00021FD54
:1012000007C09F5F973071F78093E90081E00895F0
:101210003091EB003E7F3093EB003091ED003D7F4D
:101220003093ED003091EB0031603093EB00709320
:10123000EC002093ED005093F0002091EE0027FD8C
:10124000E0CF80E00895CF92DF92EF92FF920F936C
:101250001F93CF93DF93C8EDD0E088818F7E888382
:10126000E7EDF0E080818160808384E082BF81E0EF
:1012700080935D0288818E7F888302EE10E0F80102
:1012800010821092DA0081EEC82ED12CF601108265
:1012900088818F77888388818068888388818F7D23
:1012A000888319BC1092750210926C0210926B0226
:1012B00010926A0290EEE92EF12CF70180818B7F6B
:1012C000808388818160888342E060E080E00E94C2
:1012D000F108F60180818E7F8083F8018081816032
:1012E0008083808188608083F70180818E7F808306
:1012F000888180618883DF91CF911F910F91FF904A
:10130000EF90DF90CF900895FC018091730290914F
:10131000740286179707A0F06115710529F4909162
:10132000E8009E779093E80090E06115710551F414
:10133000911108C08091E80082FF34C080E00895D8
:10134000BC01F2CF809175028823C1F18530C1F1D3
:101350008091E80083FD30C08091E80082FDEACFF3
:101360008091E80080FFE1CF8091F3002091F200AE
:10137000382F6115710519F02830310558F091E0CA
:101380002830310509F090E02091E8002E77209375
:10139000E800CBCF81918093F100615071092F5FFC
:1013A0003F4FE7CF80917502882341F0853041F0AF
:1013B0008091E80083FFBECF81E0089582E0089528
:1013C00083E008950895089580916102089587E764
:1013D00097E7909301088093000888E19AE00FB6A0
:1013E000F894A895809360000FBE90936000FFCFA3
:1013F0009C014FB7F8948091570290915802A091A8
:101400005902B0915A024FBF821B930B08952FB718
:10141000F8948091570290915802A0915902B0918E
:101420005A022FBF0895829590E09C01220F331F2E
:10143000220F331F2C7C95958795959587958373FF
:10144000282B30E0C901880F991F8A7A3595279596
:101450002575822B089580913002811110923002FF
:101460000895EEEAF1E09191891303C0DF0111972D
:101470001C9291E0E43BF907B1F70895AEEAB1E0C0
:10148000EFEF90E02D91821751F0EF3F19F4211109
:1014900001C0E92F9F5F9630A9F7EF3F09F4089547
:1014A0000E2E000CFF0BE455FE4F82830895E92FAA
:1014B000EE0F9E0F890F982F9770869586958695CB
:1014C00025E0829FF0011124EE5DFD4F50E040E0E9
:1014D00080E0219130E0092E02C0369527950A94CC
:1014E000E2F721703327042E01C0220F0A94EAF795
:1014F000822B4F5F5F4F4530510559F70895E92F13
:10150000EE0F9E0F890F982F977041E001C0440F96
:101510009A95EAF786958695869595E0899FF001DC
:101520001124EE5DFD4F30E020E070E05191DF01CD
:101530001197CB01022E02C0969587950A94E2F787
:10154000817081958527842385278C932F5F3F4F5A
:101550002530310559F70895809121029091F001CD
:10156000981301C008958F5F8770FACF2091E6012C
:101570003091E7012817390771F09093E7018093C4
:10158000E601E0913F02F0914002309721F00084A3
:10159000F185E02D099408952091E4013091E50151
:1015A0002817390771F09093E5018093E401E091E9
:1015B0003F02F0914002309721F00680F781E02D44
:1015C00009940895E0913F02F0914002309721F094
:1015D0000190F081E02D099480E00895FA018111D5
:1015E00001C0FB01099480917A02982F9E7F29F413
:1015F0008170826080937A0208958635E8F3817065
:101600008465F8CFAF92BF92DF92EF92FF920F9373
:101610001F93CF93DF93082F162FE901E42FF0E0FB
:10162000E058FE4F611110C0E4915E2F4E2F4983A8
:10163000E8835A83DF91CF911F910F91FF90EF9034
:10164000DF90BF90AF900895E62EF12C4491D42EF8
:10165000E42FF0E026E0829FC00111242FEF30E05C
:10166000B9010E942630802F90E0880F991F55E520
:10167000569FD001579FB00D11248A1B9B0B982FAA
:10168000990F890F5901AE18BF08AE9ED001AF9EC9
:10169000B00DBE9EB00D11245B2F189F8001112448
:1016A000012F11275901A01AB10AAE9E8001AF9EE9
:1016B000100DBE9E100D11245901A81AB108AE9C40
:1016C000C001AF9C900DBE9C900D1124892F9927CD
:1016D000281B390B2E9FC0012F9F900D3E9F900D10
:1016E0001124E92F62307105A1F050F461157105E4
:1016F00009F49DCF6130710581F0EB2F512F97CF09
:101700006430710569F080F06630710509F48FCF9F
:10171000F4CFE42F4B2F592F8ACFE42F412F87CFBF
:10172000EB2F542F492F83CF4B2F5D2DE12F7FCFF0
:10173000EF92FF920F931F93CF93DF93E7E3F2E0D3
:1017400068E771E0C0E001E010E07B0150E040E0BC
:1017500030E0D7012D917D012F3FB9F0822F829586
:101760008F7090E0DC0190968C9190E02F7002C019
:10177000959587952A95E2F780FD3BC0C801042E18
:1017800001C0880F0A94EAF7382B4F5F5F4F433050
:101790005105F9F68081831771F1308381E0C82B00
:1017A00031966D5F7F4FB1E061387B0771F6CC23D6
:1017B00021F181E08093B6010E94070A9093B50160
:1017C0008093B4018091B4019091B5010E94F80911
:1017D0000697B8F0809137028093540280913802C6
:1017E0008093550280913902809356021092B6017F
:1017F00008C080E0C9CF80E0D2CF8091B6018111CE
:10180000E1CF8C2FDF91CF911F910F91FF90EF903F
:10181000089590913A0292FF06C0282F287128302F
:10182000F9F4877F846093FF06C0282F2871283140
:10183000F1F4877E846120913B0220FF06C0382F9F
:1018400038713830D9F4877F816021FF06C0282F96
:1018500028712831D1F4877E816194FD877E0895B7
:10186000282F24712430F9F68B7F8860DCCF282F55
:101870002471243101F78B7E8861DDCF382F3171DF
:10188000313019F78E7F8860E0CF282F2171213108
:1018900021F78E7E8861E1CF9FB7F89410925B02AA
:1018A0009FBF90917502943009F048C02091E900E3
:1018B0002F703091EC00932F917030FD90E8922BB7
:1018C00025E02093E9002091EB0020FF34C0209117
:1018D000EE0027FF30C020913602222321F0209114
:1018E000E80025FF28C01092360226E03091E8007B
:1018F00035FF14C08093F1008091E80085FD27C07A
:101900008091E80080FFFCCF8091E8008E77809383
:10191000E8009F709093E90080E00895309175028F
:10192000343049F43091EB0035FD05C0215041F4CD
:1019300081E0809336029F709093E9008FEF0895C5
:10194000EFE9FFE03197F1F700C00000CFCF8FB78C
:10195000F89421E020935B028FBFDBCFCF93DF931E
:1019600000D00F92CDB7DEB790917502943011F58B
:1019700089837B836A839093E9008FEF9091E800DD
:10198000815095FD06C095ED9A95F1F70000811103
:10199000F5CF8091E80085FF0DC050E040E063E0A6
:1019A00070E0CE0101960E9480088091E8008E7759
:1019B0008093E8000F900F900F90DF91CF910895E2
:1019C00020917502243021F4BC0184E00C94AE0C0B
:1019D0000895BC0183E00C94AE0CCF93DF93EC012F
:1019E00080917502843039F581E08093E9008FEFB2
:1019F0009091E800815095FD06C095ED9A95F1F71C
:101A000000008111F5CF8091E80085FF14C050E0FF
:101A100040E068E070E0CE010E9480088091E8001C
:101A20008E778093E80088E0FE01A2E6B2E00190A4
:101A30000D928A95E1F7DF91CF910895CF9384E0DD
:101A400090E00E94E930C82F81E290E00E94E930E6
:101A5000982F8C2FCF9108950F931F93CF93DF93DF
:101A6000C42FD0E0CC0FDD1F26E0629FC00DD11D3A
:101A7000112432E1839FC00DD11D1124CE01869621
:101A80000E94E930082F10E0102F0027CE01879622
:101A90000E94E9309801282BC901DF91CF911F9155
:101AA0000F910895462F843038F4733028F4633052
:101AB00018F4672F0C942C0D90E080E00895CF93DC
:101AC000DF930E94520DEC0182389105A9F1D8F5FF
:101AD0008133910509F496C048F58932910509F4DE
:101AE0008AC08A9709F495C0C11522E5D20708F08B
:101AF000B6C0C11531E5D30708F026C1C83ED105EF
:101B000008F09CC0C03ED10560F5C83AD10508F088
:101B100087C0C53AD10508F0EFC0C130D10509F141
:101B20002097F9F0C430D105E0F440C08533910529
:101B300009F45AC0C997C1F680913A02837089F0BE
:101B4000C0EED0E00EC0833E910599F170F4803E66
:101B5000910501F1823E910539F680913A0282FDAC
:101B600021C0CE01DF91CF910895863E910561F1AC
:101B7000873E910571F1843E910509F0B5CF8091C2
:101B80003B0281FFEECF80913A02C7EED0E084FDA8
:101B90000DC0E7CF80913A0280FD07C190913B02D2
:101BA00090FFDFCFC3EED0E084FFDBCFD0E0C0E01A
:101BB000D8CF80913A0282FDFBC090913B0290FD0C
:101BC000BFCF84FFCECFF2CF80913A0283FDDDCF2D
:101BD000C8CF80913A0283FDEEC090913B0291FF05
:101BE000F0CFC4EED0E0BDCF80913A0285FFB9CFEF
:101BF000C9E2D0E0B6CF80913A0285FFB2CFC5E30B
:101C0000D0E0AFCF80913A0286FFABCFCAE2D0E0FE
:101C1000A8CF80913A0286FFA4CFC1E3D0E0A1CF44
:101C2000CF3BD10518F6C85AD0E0CC0FDD1FC65BFC
:101C3000DE4F0990D881C02DD46493CFC11540E503
:101C4000D40708F064C0C11580E4D80708F05CC070
:101C5000CE019A9581159F4108F483CFA7CFC11576
:101C600036E5D30718F5C11545E5D40708F084C05B
:101C7000C11584E5D80708F07AC09C2F96959695F3
:101C80009E0123703327C115D34508F462C0C1E01B
:101C9000D0E002C0CC0FDD1F2A95E2F730E2939F1F
:101CA000C0011124C82BD92BDA685BCFC1158AE596
:101CB000D80778F4C11599E5D90708F068C0C115AF
:101CC00028E5D20708F472CFDC2FCC27C06FD06A8A
:101CD00048CFCE0190568115904208F067CF8D2FE6
:101CE0008F710E94090C90E0982F882788279F7198
:101CF0009C012C2BE90149C0C55AD0E0C95BDE4FDD
:101D0000C881D0E0D0642DCFDF70D06A2ACFCE0159
:101D1000E4E096958795EA95E1F783702C2F269558
:101D20002695237040E2249F90011124382B8C2F9C
:101D30008370C1E0D0E002C0CC0FDD1F8A95E2F7CE
:101D4000C22BD32BDC680DCFDC2FCC27C16FD06A20
:101D500008CFC1E0D0E002C0CC0FDD1F2A95E2F72A
:101D600020E2929FC0011124C82BD92BEBCFDC2F8E
:101D7000CC27C46FD06AF5CE8C2F0E94090CC82FD7
:101D8000D0E0DC2FCC27CC27DF71D062EACE8C2FBD
:101D90008F700E94090C34E0D695C7953A95E1F70B
:101DA000CF709C2FEC01D069DCCEC9E3D0E0D9CE56
:101DB000C2EED0E0D6CEC6EED0E0D3CEBF92CF9268
:101DC000DF92EF92FF920F931F93CF93DF938C01DB
:101DD000C0907602D0907702E0907802F09079027D
:101DE0008091310290913202A0913302B09134027D
:101DF000C82AD92AEA2AFB2ACFE1D0E0BC2ED70193
:101E0000C6010C2E04C0B695A795979587950A94A0
:101E1000D2F780FD0EC0219788F7B12C8B2DDF9172
:101E2000CF911F910F91FF90EF90DF90CF90BF90D7
:101E30000895B8018C2F0E945F0D019761F3EECFDA
:101E4000CF93DF93EC010E94DE0EBE01DF91CF91B4
:101E50000C945F0D0E94200F292F2F7092959F7078
:101E600092509E3078F4E92FF0E0EA56FE4C0C9444
:101E70004E30803F19F020F4883E20F481E0089530
:101E8000843FE1F380E00895883EC0F3813FD1F7BD
:101E9000F5CF822F86958695869508956F927F92CD
:101EA0008F929F92AF92BF92CF92DF92EF92FF926A
:101EB0000F931F93CF93DF938EE0C82E85E0D82E2B
:101EC0009EE3E92EF12CE701629736011BC0F50174
:101ED00085909490692DC8010E94FD30682DC8013D
:101EE00001960E94FD3082E0A80EB11C0E5F1F4FCC
:101EF000C017D10761F786E0680E711C2696CE15D3
:101F0000DF0529F08E01065011095301E0CF7E0153
:101F100082E1E80EF11C82E1C80ED11C86E8E816C9
:101F2000F10489F6DF91CF911F910F91FF90EF900F
:101F3000DF90CF90BF90AF909F908F907F906F90E9
:101F40000895CF93DF93CEE6D0E060E0CE010E940B
:101F5000FD302196C11584E0D807B9F7DF91CF9104
:101F60000895CF93C82F6FEF811160E282E290E075
:101F70000E94FD306FEFC11167E083E290E00E94A4
:101F8000FD306FEFC11167E284E290E0CF910C94D5
:101F9000FD30EF92FF920F931F93CF93DF938091C9
:101FA0002F0290912E02892B90912D02892B8093E4
:101FB000AC0190913002992391F0892B8093AC0170
:101FC00020E08EEA91E0FC013191CF0131112F5FC9
:101FD000F1E0843B9F07B9F721110E942B0AE091A1
:101FE0003F02F09140023097C9F10280F381E02D69
:101FF0008CEA91E009958091530282FF2FC080FF07
:1020000004C086E996E00E948E07CCEAD1E084EB1A
:10201000E82E81E0F82E00E916E08091530280FF5F
:102020000BC088811F928F931F930F930E942708E4
:102030000F900F900F900F902196EC16FD0669F708
:102040008091530280FF0AC08EE896E0DF91CF9125
:102050001F910F91FF90EF900C948E07DF91CF911D
:102060001F910F91FF90EF90089510922E02109201
:102070002D020E94C90F90E080E00E94CC0A90E0FF
:1020800080E00C94B60A6093310270933202809320
:102090003302909334020C943510882341F08095DC
:1020A00090912F02892380932F020C94C90F0895D9
:1020B000882339F090912F02982B90932F020C9443
:1020C000C90F0895882309F452C0823871F40E9420
:1020D000E20A81FF4CC089E30E943E0A0E94C90FB8
:1020E00089E30E94310A0C94C90F833859F40E9485
:1020F000E20A80FF3CC083E50E943E0A0E94C90FAD
:1021000083E5EFCF843859F40E94E20A82FF2FC0A2
:1021100087E40E943E0A0E94C90F87E4E2CF9CEF49
:10212000980F913AF0F290E2980F983088F4877007
:1021300021E030E0A90102C0440F551F8A95E2F763
:10214000CA01809590912F02892380932F02CBCFD3
:102150009BE5980F933020F490E080E00C94CC0A3B
:10216000885A873120F490E080E00C94B60A0895F4
:10217000109280028091530280FF08C085EF93E0A7
:102180009F938F930E9427080F900F900895CF92EE
:10219000DF92EF92FF926B017C010E94F30AB7017C
:1021A000A60188E090E0FF90EF90DF90CF900C9434
:1021B0000F3180917E02833018F48F5F80937E020E
:1021C00060917A0270917B0280917C0290917D02F5
:1021D0000C94C71080917E02882319F0815080935F
:1021E0007E0260917A0270917B0280917C029091D4
:1021F0007D020C94C710EAE7F2E083E0808311824D
:102200008FEF8283838314826081718182819381C5
:102210000C94C71010922F02EEEAF1E086E0DF0185
:102220001D928A95E9F70C9435101F93CF93DF9395
:10223000CDB7DEB7AA970FB6F894DEBF0FBECDBFFD
:102240008DE692E02091F100DC012D93CD01B2E00A
:1022500085379B07B9F780916E02833009F471C00E
:10226000B8F4813009F448C0823009F4B2C08091DA
:10227000E80083FF99C280916D0290916E029A30BE
:1022800008F092C2E92FF0E0EC55FE4C0C944E3071
:102290008A3009F48DC08B3009F470C0893039F769
:1022A00080916D02813219F78091710290917202D2
:1022B000009711F00297D9F68091E800877F80930C
:1022C000E8008091E80082FF37C09091F300809190
:1022D000F200029729F48091F1008B7F813021F484
:1022E0008091F100809361028091E8008B77809368
:1022F000E8000E94D208BBCF80916D02813A09F0BC
:10230000B6CF8091E800877F8093E80080917102CA
:1023100090917202892B61F468E082E692E070E0AD
:102320000E9484098091E8008B778093E8009FCF1A
:1023300060E090E080E0F3CF809175028111C1CF21
:1023400096CF80916D02813A09F091CF8091710210
:1023500090917202892B09F08ACF8091E800877FE3
:102360008093E8008091E80080FFFCCF80911B0102
:102370008093F1008091E8008E77B9CF80916D0253
:10238000813209F074CF8091710290917202892B91
:1023900009F06DCF8091E800877F8093E8000E946C
:1023A000D20880916F0280931B010E940A115FCFB7
:1023B00080916D02813209F05ACF8091E800877FC9
:1023C0008093E8000E94D20880917002809360029E
:1023D0004ECF80916D02813A09F049CF8091E8009B
:1023E000877F8093E8008091E80080FFFCCF809198
:1023F0006002BECF803899F0823809F0D5C1809153
:1024000071028F70873008F0CFC18093E90080910E
:10241000EB0085FB882780F91092E90006C08091C7
:102420006A0290916B02911182609091E800977F0F
:102430009093E8008093F1001092F1008091E80001
:102440008E77AEC1882309F49CC1823009F0ACC1FB
:1024500080916F0281119FC1809171028F702FEF67
:10246000280F263008F0A0C18093E9002091EB00EE
:1024700020FF91C1933031F48091EB008062809312
:10248000EB0089C19091EB0090619093EB0021E00B
:1024900030E001C0220F8A95EAF72093EA001092FB
:1024A000EA008091EB008860EACF81117DC1109134
:1024B0006F021F778091E3008078812B8093E30087
:1024C0008091E800877F8093E8000E94D208809185
:1024D000E80080FFFCCF8091E30080688093E300F8
:1024E00082E0111183E0809375025EC180588230D2
:1024F00008F05AC120916F02309170022C3DE3E048
:102500003E07A1F583E08A838AE289834FB7F89476
:10251000DE01139620E03EE051E2E32FF0E050931D
:102520005700E49120FF03C0E295EF703F5FEF702A
:102530008E2F90E0EA30C0F0C7968D939D932F5F69
:10254000243159F74FBF8091E800877F8093E800DE
:102550006AE270E0CE0101960E9484098091E80051
:102560008B778093E80020C1C096E7CF80917102FD
:1025700090917202432F55274330510509F44AC008
:1025800078F54130510509F485C08BE790E0EBEB1D
:10259000FDE04230510509F007C12091E800277F96
:1025A0002093E80020917302309174028217930700
:1025B00008F49C0140E02115310509F070C041117B
:1025C0006EC08091E80082FDC9CF8091750288239A
:1025D00029F2853019F28091E80083FFF2CFBECF57
:1025E0004132510509F447C04232510509F0DCC0BF
:1025F0008430910508F0D8C0FC01EE0FFF1FE756AC
:10260000FE4F0190F081E02D8B569E4FDC018C91A6
:1026100090E01DC0332721303105E9F02115310547
:1026200079F022303105F9F02330310509F0BCC0D2
:10263000E8E4FEE0E4918E2F90E0E8E4FEE007C0DD
:10264000EEE6FEE0E4918E2F90E0EEE6FEE00097ED
:1026500009F4AAC0A2CFEAE5FEE0E4918E2F90E053
:10266000EAE5FEE0F4CFEEE4FEE0E4918E2F90E0A8
:10267000EEE4FEE0ECCF8430910508F095C0880FC1
:10268000991FFC01EF55FE4F0190F081E02D89E08C
:1026900090E083CF82E190E0E6E3FEE07ECF8091A0
:1026A0007502882309F45ACF853009F457CF8091F9
:1026B000E80083FD53CF8091E80082FD82CF8091B6
:1026C000E80080FF78CF9091F3008091F20021150F
:1026D000310519F08830910550F041E0089709F074
:1026E00040E08091E8008E778093E80064CF4491C9
:1026F0004093F1003196215031090196E8CF80389E
:1027000009F052C08091E800877F8093E8008091B3
:102710006C028093F10092CE811146C010916F023D
:10272000123008F041C08091E800877F8093E80074
:1027300010936C020E94D208112311F084E005C0AE
:102740008091E30087FDFACF81E08093750242E03B
:1027500061EC81E00E94F10842E261EC84E00E94B9
:10276000F10842E261EC82E00E94F10842E260EC92
:1027700083E00E94F10842E261EC85E00E94F108EA
:1027800013C080916F02813079F481E0933009F0B9
:1027900080E080936B021092E9008091E800877FCF
:1027A0008093E8000E94D2088091E80083FF0AC06D
:1027B0008091E800877F8093E8008091EB00806241
:1027C0008093EB00AA960FB6F894DEBF0FBECDBF84
:1027D000DF91CF911F910895CF93C82F1F928F93B0
:1027E0008CEB9BE09F938F930E94270861E070E041
:1027F00080E090E004C0660F771F881F991FCA957C
:10280000D2F70E9443100F900F900F900F90CF912E
:102810000C940A1160917A02669570E04BE050E0EA
:1028200084E091E00E94DC30892B19F481E08093F0
:1028300080020E94070A9093430280934202809193
:10284000530280FF08C08CED93E09F938F930E940A
:1028500027080F900F9008955F926F927F928F924A
:102860009F92AF92BF92CF92DF92EF92FF920F931F
:102870001F93CF93DF9300D000D00F92CDB7DEB778
:1028800080917A0280FD0AC0EAEBF1E011821082A9
:102890001282339621E0E93CF207C1F780903D02B5
:1028A00090903E028114910409F457C080FF55C0F6
:1028B000D12CC12C66246394712C53E0552E809149
:1028C000810293010C2C01C0220F0A94EAF78223A3
:1028D00009F43BC0F601EE0FFF1FE80DF91DE5906E
:1028E000F490E114F104C9F145E050E0B701CE01E4
:1028F00001960E94D33009810F3F39F18A81800F00
:102900009927991F8630910514F085E090E05C01CD
:10291000AA0CBB1C8A0D9B1DFC01E654FE4F5F01F7
:10292000059D8001112406541E4F0A151B0520F039
:10293000F5E0EF0EF11CD8CF98014D816C818B81B1
:102940000E94020B0D5F1F4FF0CF2FEFC21AD20A69
:1029500038E0C316D10409F0B2CF259A35B13F7DD6
:1029600025B120624FB7F8948AEB91E0FC015191B8
:10297000CF0168E025B9000000C057FF35B9550FF9
:10298000000000C000C000C035B900C06A9591F7D2
:10299000F1E0893C9F0751F74FBF8FE594E0019725
:1029A000F1F700C000000F900F900F900F900F9064
:1029B000DF91CF911F910F91FF90EF90DF90CF901B
:1029C000BF90AF909F908F907F906F905F90089591
:1029D0008F929F92AF92BF92CF92DF92EF92FF922F
:1029E0000F931F93CF93DF93FC01B280948081E01B
:1029F0008483C9ECD1E00AEB11E08BE4A82E882493
:102A00008394EE24EA94F12C2BE4C22ED12C911065
:102A10001DC01B821A8298014A81698188810E94A7
:102A2000020B25960D5F1F4F81E0C23ED80779F754
:102A3000DF91CF911F910F91FF90EF90DF90CF909A
:102A4000BF90AF909F908F900C942C142B812223D9
:102A500009F121502B833C818A2D821B311101C049
:102A6000822F90917D02899FC0011124B6010E949E
:102A700026306A83211104C0332311F01C82AB82FB
:102A800022E02B1540F280917B02888380917C02AA
:102A90008983C1CF0E94C330823091400CF0BBCFFC
:102AA00082E08B15C0F40E94C330B7010E943A3017
:102AB000888322E02B1590F40E94C33020917C0281
:102AC0002695622F70E00E943A30280F29831A82DF
:102AD000AB828C82A0CF80917B02EACF20917C02D6
:102AE000F5CFEF92FF921F93CF93DF93EC018AEB28
:102AF000E82E81E0F82E10E08C81970140917D0254
:102B000060917C02810F0E94020B1D5C83E0E80E45
:102B1000F11C1F3F89F70E942C149A818C8190FF31
:102B200008C08F5F8C83DF91CF911F91FF90EF9052
:102B300008958150F7CFBF92CF92DF92EF92FF922C
:102B40000F931F93CF93DF93FC018281DD24DA94EE
:102B500080FD02C0DD24D3940AEB11E0D0E0C0E098
:102B600025E0B22EF80111821082128294E0E92E43
:102B7000F12CC12C8091B7018C0D86300CF43DC036
:102B80006B2D0E941830892F082E000C990B8C1782
:102B90009D0791F480917D028E9DA0018F9D500D27
:102BA00011245595479555954795980160917C025C
:102BB00080917B020E94020BCD0CF1E0EF1AF1082C
:102BC000C9F621960D5F1F4FC530D10559F60E94F9
:102BD0002C148091B70191E0D91215C0811111C058
:102BE00084E08093B701DF91CF911F910F91FF9007
:102BF000EF90DF90CF90BF90089587FFC5CF8B5F98
:102C0000C3CF8150EECF90E00196BE010E943A30D2
:102C1000E8CF0F931F93CF93DF93CAEBD1E0FE0170
:102C2000118210821282339681E0E93CF807C1F7E5
:102C300010E000E08091B801082E000C990B0817F5
:102C400019078CF180911001082E000C990B801748
:102C500091074CF19E0140917D0260917C02809130
:102C60007B020E94020B0F5F1F4F23960530110558
:102C700009F70E942C1480910F019091B801980FD0
:102C80009093B80120911001280F20931001121683
:102C900014F494301CF0819580930F01DF91CF9153
:102CA0001F910F910895198218821A82DCCFEF923A
:102CB000FF920F931F93CF93DF93EC018C819D8143
:102CC0000196817099279D838C838AEBE82E81E0A1
:102CD000F82E10E005E5812F86952C813D81820F2D
:102CE000932F911D8170970140917D0260917C022C
:102CF000809F802D11240E94020B1F5F83E0E80E4D
:102D0000F11C153041F7DF91CF911F910F91FF908A
:102D1000EF900C942C14EF92FF920F931F93CF938C
:102D2000DF938C01CAEBD1E0F12CE12CF801948106
:102D300060917C0280917B02F2E0EF16F104FCF4DA
:102D40009923F9F09E0140917D020E94020B2FEF22
:102D5000E21AF20A239685E0E816F10439F70E9498
:102D60002C14F801848190E0019681709927848366
:102D7000DF91CF911F910F91FF90EF9008959923CC
:102D800009F39E0140E0E1CF90917A0290FF0CC0E0
:102D9000EAEBF1E0818360834283339691E0E93C82
:102DA000F907C1F70C942C1408950F931F93CF9338
:102DB000DF9300D00F92CDB7DEB78C018091B901BF
:102DC00081110AC09E012F5F3F4F4FEF6FEF0E94AE
:102DD000020B8A818093B901F8016481613069F046
:102DE0008091B90140E0662361F040E0623011F467
:102DF0004091B90180E060E004C06091B90140E019
:102E000080E00E94C416F801848190E0019663E09E
:102E100070E00E943A3084830F900F900F90DF9102
:102E2000CF911F910F910895CF93DF9300D00F9210
:102E3000CDB7DEB790917A0290FF0AC09E012F5F56
:102E40003F4F0E94020B4B8169818A810E94C41608
:102E50000F900F900F90DF91CF910895CF93DF9354
:102E6000EC01EC81F0E0E25FFB4F4491EAE7F2E035
:102E7000628181810E9414178C818F5F8C83DF9126
:102E8000CF910895CF93DF93EC01EAE7F2E043811D
:102E900062818C810E9414178C818F5F8C83DF91FB
:102EA000CF9108952F923F924F925F926F927F92AF
:102EB0008F929F92AF92BF92CF92DF92EF92FF924A
:102EC0000F931F93CF93DF9300D000D000D0CDB7E6
:102ED000DEB7582E262E342E2E8390917A0290FF44
:102EE00047C0E92FE695AE2FB0E0A45EBE4F8C91AF
:102EF00080937F029E7F923009F053C09E012F5F26
:102F00003F4F852D0E94020B4B8169818A810E946F
:102F1000C41650927B0220927C0230927D028E81F8
:102F2000882309F49FC060917A0270917B0280919E
:102F30007C0290917D020E94C7108091530280FF15
:102F400017C080917D021F928F9380917C021F9207
:102F50008F9380917B021F928F938BE893E09F93D6
:102F60008F930E9427080FB6F894DEBF0FBECDBF27
:102F700026960FB6F894DEBF0FBECDBFDF91CF917E
:102F80001F910F91FF90EF90DF90CF90BF90AF9087
:102F90009F908F907F906F905F904F903F902F9079
:102FA0000895823019F430907D02B3CF863019F441
:102FB00050907B02AECF8930D9F3893109F0A9CF87
:102FC000E9518E2F81708C838E2F809581708D8337
:102FD000E695F0E0E952FC4FE590F490FF248AEB8F
:102FE000C82E81E0D82EB12CA12C10E000E095E095
:102FF000692E712C20EB822E23E0922EC501B301A5
:103000000E9426309C81452C91112AC0460E809149
:10301000530280FF12C0FF92EF921F928D818F9317
:103020001F924F921F930F939F928F920E94270897
:103030000FB6F894DEBF0FBECDBF9601432D622DB3
:10304000842D0E94020B0F5F1F4FAE0CBF1C93E03C
:10305000C90ED11C0530110589F60E942C1459CFD8
:10306000461AD5CF8091530280FF82CF1F923F92A4
:103070001F922F921F925F9284E693E070CF9091FF
:103080007A0290FF55C0917081113CC0926090937C
:103090007A026623F1F160917A0270917B0280914D
:1030A0007C0290917D020E94C7108091530280FFA4
:1030B0000FC080917A0286951F928F938EE992E0DD
:1030C0009F938F930E9427080F900F900F900F905F
:1030D00060917A02669570E04BE050E084E091E008
:1030E0000E94DC30892B09F10E94B81081E08093A6
:1030F000450220E040917D0260917C0280917B023C
:103100000C9452178B3210F09465C1CF880F982B16
:10311000BECF8091530280FFDBCF80917A028695EB
:103120001F928F9380E892E0CBCF0E940A14DECFEB
:103130000895CF93DF93C1E0D0E001C0CC0F8A9512
:10314000EAF7809181028C2B80938102809180022A
:10315000811106C080917A0260E086950E943F1836
:1031600080918602C82BC09386020E94070A909322
:1031700085028093840284EF91E090938302809390
:103180008202DF91CF910895CF92DF92EF92FF926A
:103190000F931F936B017C01A7016627772780E1BE
:1031A000411551056105710519F4B701A60180E0CB
:1031B000052F162F272F332701151105210531055E
:1031C00019F0885FB901A8018A019B01F4E03695E6
:1031D000279517950795FA95D1F701151105210542
:1031E000310519F08C5FB901A8018A019B01E2E069
:1031F0003695279517950795EA95D1F7011511058D
:103200002105310519F08E5FB901A8017695679502
:1032100057954795452B462B472B09F08F5F8130FB
:10322000C1F0882391F08230B1F0C0927602D09242
:103230007702E0927802F09279021F910F91FF904D
:10324000EF90DF90CF900C94351080E00E94991899
:10325000ECCF81E0FBCF82E0F9CF0F931F93609119
:1032600076027091770280917802909179028B01B9
:103270009C010670112722273327063011052105EE
:10328000310529F468601F910F910C94C418677F71
:10329000FACF0F931F9341E050E060E070E004C06C
:1032A000440F551F661F771F8A95D2F7CB01BA01CD
:1032B00060957095809590950091760210917702B7
:1032C0002091780230917902602371238223932325
:1032D0001F910F910C94C41890912C028095892312
:1032E00080932C02282F277071F4282F082E000CB1
:1032F000330B9217130639F08595859585950E94B5
:10330000491910922C0208950F931F9341E050E049
:1033100060E070E004C0440F551F661F771F8A9558
:10332000D2F78091760290917702A0917802B091C5
:1033300079028A019B01082B192B2A2B3B2BC901EF
:10334000B8011F910F910C94C41880917A0281608A
:1033500080937A028091530280FF0DC01F9281E01A
:103360008F938AEB92E09F938F930E9427080F9090
:103370000F900F900F9080917A0261E086950C94E7
:103380003F1880917A02816080937A028091530283
:1033900080FF0DC01F9281E08F9381EF92E09F9399
:1033A0008F930E9427080F900F900F900F9080919D
:1033B0007A0260E086950C943F1880917A02869597
:1033C000815009F48AE261E00C943F1880917A02FE
:1033D00086958F5F8B3208F081E061E00C943F1896
:1033E00090917A0290FF07C09695981720F0961753
:1033F00010F40C94E61961E00C943F186CEE7EEF2B
:1034000090E080E00E941B3160E082E090E00E944A
:10341000FD3060E083E090E00E94FD3010923102C8
:1034200010923202109233021092340260E084E073
:1034300090E00E94FD3060E081E290E00E94FD306B
:1034400060E085E090E00E94FD3060E086E090E082
:103450000E94FD306FEF87E090E00E94FD3040E079
:1034600050E0BA0188E090E00E940F3160E08DE00A
:1034700090E00E94FD3040E050E0BA0188E190E029
:103480000E940F3160E087E190E00E94FD3040E053
:1034900050E0BA018CE190E00E940F3160E080E2E0
:1034A00090E00E94FD300E94A51921E04FEF6FEFE0
:1034B00080E00E94521761E08EE00E943F1840E0D9
:1034C00050E0BA018FE090E00E940F3140E050E000
:1034D000BA0183E190E00C940F31CF93DF938B31ED
:1034E00009F408C208F0A0C18B3009F4C6C108F085
:1034F0006EC1863009F4D4C148F4853009F4A2C104
:1035000082E19BE00E948E0780E0DAC1873009F4F7
:10351000DAC18830A9F781EB9BE00E948E0789E031
:1035200098E00E948E0783E090E00E94E9301F92AD
:103530008F9386E098E09F938F930E94270884E002
:1035400098E00E948E0782E090E00E94E930C82F48
:1035500081EF97E00E948E071F92CF938CEE97E049
:103560009F938F930E9427088AEE97E00E948E0710
:1035700080EE97E00E948E078C2F81701F928F93B0
:103580008DED97E09F938F930E9427088BED97E036
:103590000E948E0781ED97E00E948E07C1FB88276D
:1035A00080F91F928F938EEC97E09F938F930E94E8
:1035B00027088CEC97E00E948E0780EC97E00E9431
:1035C0008E07C2FB882780F91F928F938DEB97E0BF
:1035D0009F938F930E9427088BEB97E00E948E07A2
:1035E00082EB97E00E948E07C3FBCC27C0F91F92A5
:1035F000CF938FEA97E09F938F930E9427088DEADD
:1036000097E00E948E070E941E0DEC0189E997E069
:103610000E948E07DF93CF9384E997E09F938F9367
:103620000E94270882E997E00E948E0789E797E0C9
:103630000E948E078C2F81701F928F9386E797E0F0
:103640009F938F930E9427088DB79EB780960FB6E1
:10365000F8949EBF0FBE8DBF84E797E00E948E074F
:103660008DE597E00E948E07C1FB882780F91F92A5
:103670008F938AE597E09F938F930E94270888E5B0
:1036800097E00E948E0786E497E00E948E078D2FB8
:1036900081701F928F9383E497E09F938F930E9492
:1036A000270881E497E00E948E078FE297E00E944E
:1036B0008E07D695D1701F92DF938CE297E09F938F
:1036C0008F930E9427088AE297E00E948E0788E184
:1036D00097E00E948E07C2FB882780F91F928F9384
:1036E00085E197E09F938F930E94270883E197E0FD
:1036F0000E948E0781E097E00E948E07C3FB882717
:1037000080F91F928F938EEF96E09F938F930E9484
:1037100027088CEF96E00E948E0782EF96E00E94C9
:103720008E07C4FB882780F91F928F938FEE96E057
:103730009F938F930E9427088DEE96E00E948E073C
:103740008BED96E00E948E07C5FB882780F91F92BB
:103750008F9388ED96E09F938F930E94270886EDC4
:1037600096E00E948E078AEB96E00E948E07C6FBC9
:10377000882780F91F928F9387EB96E09F938F9312
:103780000E9427088DB79EB780960FB6F8949EBF0B
:103790000FBE8DBF85EB96E00E948E078DEA96E006
:1037A0000E948E07C7FBCC27C0F91F92CF938AEAED
:1037B00096E09F938F930E94270888EA96E00E94E4
:1037C0008E070F900F900F900F9081E079C080319D
:1037D00009F4A8C080F48E3009F092CE9091530283
:1037E000892F8B7F92FF84608093530282FF97C062
:1037F0008DE39BE08BC0863109F4A4C0893109F0C8
:103800007FCE8AE99AE00E948E0785E69AE00E94C0
:103810008E0783E39AE00E948E0782E09AE00E947E
:103820008E0787ED99E02BC08A3299F1E0F4873258
:1038300061F128F48E3108F463CE8D5127C08932AE
:1038400009F05ECE80E89BE00E948E070E940A117C
:103850009FEF24E38CE0915020408040E1F700C0CE
:1038600000000E94E709833468F48A3308F0AAC094
:10387000853359F0883309F043CE89E198E00E94FE
:103880008E07A3CF833409F03BCE80E00E94EC1377
:103890009CCF80EA9BE00E948E070E94FE1995CF84
:1038A00080915302807F809353028CEB99E00E94B9
:1038B0008E078CE99BE00E948E0781E080933502A1
:1038C000DF91CF91089590915302892F8E7F90FFC1
:1038D00081608093530280FF03C084E79BE0CFCFD9
:1038E00087E69BE00E948E0780915302817F809340
:1038F00053026BCF90915302892F8D7F91FF82608D
:103900008093530281FF08C08AE59BE00E948E07E6
:10391000809153028160EBCF8CE49BE0B0CF8DE2CD
:103920009BE0ADCF90915302892F877F93FF8860F2
:103930008093530283FF03C081E29BE0E7CF84E1E1
:103940009BE09DCF84E09BE00E948E070E94E20AEC
:103950001F928F938AEE9AE09F938F930E9427087D
:1039600080911B011F928F9383ED9AE09F938F9319
:103970000E942708809160021F928F9380EC9AE04A
:103980009F938F930E9427082FB7F8948091570236
:1039900090915802A0915902B0915A022FBFBF9343
:1039A000AF939F938F9389EA9AE09F938F930E949E
:1039B00027088DB79EB742960FB6F8949EBF0FBEEC
:1039C0008DBF03CF895362CFCF93C82F882309F4CB
:1039D0006BC08238C1F40E94E20A81FD65C089E3B0
:1039E0000E943E0A0E94C90F2FEF81EE94E0215001
:1039F00080409040E1F700C0000089E30E94310A56
:103A0000CF910C94C90F8338A1F40E94E20A80FD83
:103A10004BC083E50E943E0A0E94C90F2FEF81EE42
:103A200094E0215080409040E1F700C0000083E521
:103A3000E5CF8438A1F40E94E20A82FD35C087E414
:103A40000E943E0A0E94C90F2FEF81EE94E02150A0
:103A500080409040E1F700C0000087E4CFCF8CEFBA
:103A60008C0F813A08F043C080913502882399F089
:103A70008130E1F010923502EEEAF1E084EB91E062
:103A80002191C21709F45FC08E179F07C9F78C2FC9
:103A90000E943E0AB5CF80912F02823269F78C2FA7
:103AA0000E946D1A882341F3CF91089580912F02CF
:103AB0008232A9F3C431B9F038F4CB3049F088E848
:103AC00096E00E948E0711C0C93269F0C833B9F779
:103AD0008CEB99E00E948E078AE896E00E948E07A0
:103AE00081E08170DFCF1092350280E0FACF80E272
:103AF0008C0F883068F4C77021E030E001C0220FDD
:103B0000CA95EAF780912F02822B80932F0278CFFB
:103B1000EBE5EC0FE33040F4F0E0E95BFE4F808131
:103B200090E0CF910C94CC0AC85AC73108F0BCCFB2
:103B3000EC2FF0E0EE0FFF1FE65BFE4F80819181DE
:103B4000CF910C94B60A8C2F0E94310A0E94C90FA3
:103B50009ECFCF93C82F0E94E41CC93349F42FEFA6
:103B600087EE93E0215080409040E1F700C00000D4
:103B70008C2FCF910C9462100F931F93CF93DF93F0
:103B8000C62FD42F022FFC0182818823A1F06093DD
:103B9000E8010E94070A9093E3018093E201C77055
:103BA00081E001C0880FCA95EAF7DF91CF911F919C
:103BB0000F910C9458101091E801161335C08091A4
:103BC000E2019091E3010E94F809883C910560F5BB
:103BD000C0E2CD0F1D17B9F080E2810F883040F4AC
:103BE000177081E001C0880F1A95EAF70E944D1006
:103BF000C83048F481E09D2F977001C0880F9A95D6
:103C0000EAF70E945810802F0E94A91DC83098F42E
:103C1000D77081E001C0880FDA95EAF7DF91CF9184
:103C20001F910F910C944D10C77081E001C0880F57
:103C3000CA95EAF7F3CFDF91CF911F910F910895C5
:103C40004F925F926F927F928F929F92AF92BF92AC
:103C5000CF92DF92EF92FF920F931F93CF93DF9358
:103C600000D000D00F92CDB7DEB77C01FC0183817C
:103C70009481892B31F08081918189238F3F09F0D4
:103C800010C60F900F900F900F900F90DF91CF9173
:103C90001F910F91FF90EF90DF90CF90BF90AF906A
:103CA0009F908F907F906F905F904F9008950E94AB
:103CB000DE0E182F682F89819A810E947F0A698100
:103CC0007A81812F0E94520D8C01F70192819923F4
:103CD00009F4DCC5980122513F452031310508F037
:103CE000AEC58FEF93E00E94E93002515EE6852E6B
:103CF000912C882371F180912C02877011F2F701C9
:103D00008281882309F4BDCF82E00F900F900F903D
:103D10000F900F90DF91CF911F910F91FF90EF9037
:103D2000DF90CF90BF90AF909F908F907F906F90DB
:103D30005F904F900C946C198114F4E09F06D9F2B7
:103D4000C4010E94E930811101C001502FEF821A95
:103D5000920A0111F1CF1C821B82662463944AE00F
:103D6000542E84010F5F1F4FC4010E94E9308983E4
:103D70001A82882309F4BFCF9FEF980F933008F57C
:103D80008A83698232E0830E911CC8010E94E93067
:103D90008B83882309F4AFCF8E010F5F1F4FF8018B
:103DA00020812223F1F2213009F043C091818281E8
:103DB000913049F40E5F1F4F0E94A91D0F5F1F4FE6
:103DC000EECF4801E9CF923029F40E5F1F4F0E94D9
:103DD000E41CF4CF933029F40E5F1F4F0E94621051
:103DE000EDCF943019F00F5F1F4FE8CF0E5F1F4FDC
:103DF00030E020E0B8016F5F7F4FF80141818053D0
:103E0000990B8A30910550F021503109B8F28FE9B1
:103E10009FE00197F1F700C00000F6CF529EF0013D
:103E2000539EF00D11249C012E0F3F1F842F8B01F8
:103E3000E1CFE22FF0E0EA58FA4F7490822F869596
:103E40008695869590E0FC01EA59FA4FA490277078
:103E5000B12C022E02C0B594A7940A94E2F7E1E0D7
:103E6000AE22BB24FC01EA5AFA4FC490D12C02C006
:103E7000D594C7942A95E2F7F1E0CF22DD24A1146E
:103E8000B10419F081EE0E94E41CC114D10419F0B0
:103E900086EE0E94E41C872D0E94A91DCD2819F0F2
:103EA00086EE0E946210AB2809F488CF81EE96CF8F
:103EB00081E00E9484190E942D191DCF81E00E948B
:103EC0004919F9CF82E0F5CF053F2CE5120709F437
:103ED00061C008F45BC027E245EE66EE063F8CE564
:103EE000180709F4CFC4992309F4ECC41092E8012F
:103EF0000230ECE51E0708F430C10631FCE51F076F
:103F000038F098012A5F3C452930310508F025C179
:103F10000E941E0D90933B0280933A0200312CE5E3
:103F2000120709F4E9C008F073C008308CE51807DF
:103F300009F4D4C008F045C00430ECE51E0709F4CC
:103F4000C1C078F502302CE5120709F4B5C08091A4
:103F50003A02826003301C4509F4B1C060913A0214
:103F600010913B0284E090E00E94FD30612F81E2DD
:103F700090E00E94FD300E940A11BDCE27E245EE7E
:103F800065EE80C426E241EE60EE7CC427E245EE99
:103F900064EE78C426E241EE62EE74C428E241E0A9
:103FA000EFCF06308CE5180709F494C080913A02EF
:103FB000886007301C4508F482C080913A02806214
:103FC0007EC080913A028D7F0C30ECE51E0709F42B
:103FD00076C070F480913A028C600A302CE51207AA
:103FE00009F46DC008F47EC080913A028E7F67C0EC
:103FF0000E308CE5180709F47BC080913A028B7F64
:104000000F301C4508F45BC080913A028F7E57C088
:104010000B3FECE51E0709F459C030F503312CE5E0
:10402000120709F471C078F401318CE5180709F41E
:1040300067C002311C4509F091CF0E940A1180919E
:104040003A028F773CC00531ECE51E0709F464C0E5
:1040500008F478C080913B0281600A3F1C4509F05A
:104060007DCF80933B027ACF0F3F3CE5130709F4E5
:104070004FC088F480913B028D7F0D3F9CE519076E
:1040800081F380913B028E7F0E3F1C4550F380915F
:104090003B028360E6CF0130FDE51F0709F45BC0FA
:1040A00008F446C060E002301D4509F057CF8EE0AD
:1040B00090E00E94FD3052CF80913A02816080935F
:1040C0003A024CCF80913A028460F9CF80913B0252
:1040D0008260C7CF80913A028061F1CF80913A022D
:1040E0008064EDCF0E940A1180913A028068E7CF88
:1040F00080913A02877FE3CF80913A028F7DDFCFB4
:1041000080913A028F7BDBCF80913A02837FD7CFB9
:1041100080913B028C7FA5CF80913A0282FB992748
:1041200090F921E0922790FB82F990FB83F9C7CFA9
:1041300080913B02982F909591708E7F892B90FBF8
:1041400081F98FCF0E940A1190913A02892F97FB33
:1041500087F98058B4CF61E0AACF80912F02063151
:10416000ECE51E0709F0BAC38A7A91E009F490E001
:104170009093E901811106C089E20E943E0A0E94E3
:10418000C90FB9CD85E3F9CF85E3A5C3809153026B
:1041900080FF10C080917A02809581701F928F936A
:1041A0008EE296E09F938F930E9427080F900F90C6
:1041B0000F900F9080917A0280FF2EC08E7F8093A7
:1041C0007A0260917A0270917B0280917C029091D8
:1041D0007D020E94C7108091530280FF0FC0809122
:1041E0007A0281701F928F9386EF95E09F938F9351
:1041F0000E9427080F900F900F900F900E94B81008
:10420000FFEF20E732E0F15020403040E1F700C0FE
:1042100000000E942C146FCD0E94A5196CCD4DEDAD
:1042200059E166EE79E10E94EE0A65CD46EE59E16C
:104230006DED79E1F8CF46E157E26FE177E2F3CF38
:104240004FE157E266E177E2EECF4EEF56E26AE0E9
:1042500077E2E9CF4AE057E26EEF76E2E4CF46EE4E
:1042600056E262EF76E2DFCF42EF56E266EE76E2AA
:10427000DACF4AEE50E169ED70E1D5CF49ED50E17A
:104280006AEE70E1D0CF61E081E00E943F1833CD4B
:1042900065E082E00E94F0192ECD68E086E0FACF5A
:1042A0006EE089E0F7CF64E18FE0F4CF67E185E16C
:1042B000F1CF61E088E1E9CF62E289E1EBCF61E033
:1042C00083E2E3CF01308CE51807A1F00E3DECE569
:1042D0001E0711F101151C4511F50E940A112FEF5F
:1042E00034E38CE0215030408040E1F700C0000012
:1042F0000E94E70990915302892F8E7F90FF816081
:104300008093530280FF05C087E796E00E948E07E6
:10431000F2CC85E696E0FACF0E94FE19ECCCF701CC
:1043200000811181992309F43DC0C8010E94DE0E6D
:10433000D82E682FC8010E947F0AB8018D2D0E94D7
:104340005F0D8C01882EF701A580A2943FE0A32287
:10435000D280D11010922E0280912C02877099F099
:10436000DD2089F0812F807F803421F080E2800F72
:10437000883048F082E00E946C1980912C0287708E
:10438000CC24C3948111C12CB12EB2942FE0B2225F
:10439000FBE0FB1508F440C0EB2DF0E0E255FE4CCD
:1043A0000C944E30C8010E94570AD82EC6CF212F38
:1043B0002F70A22E107F19F0A29490EFA922DD2079
:1043C000C9F0AA2069F080E2800F883010F08110D7
:1043D0000BC080912F02A82AA0922F020E94C90F21
:1043E000802F0E94E41C18C080912E02A82AA0925F
:1043F0002E02F4CF802F0E946210AA2069F0A094B0
:10440000005E083010F081103BC080912F02A8227E
:10441000A0922F020E94C90FEB2DE850FF0B34979A
:1044200010F40E94E20ACC2009F42BCC80912C02DB
:1044300080FD27CCF70112828595859585950E9490
:104440008419C7010E94201E80912C0285958595B4
:1044500085950F900F900F900F900F90DF91CF9157
:104460001F910F91FF90EF90DF90CF90BF90AF9092
:104470009F908F907F906F905F904F900C94491910
:1044800080912E02A822A0922E02C4CF312F3F701D
:10449000932E107F103219F0929480EF982288208A
:1044A00071F081E0881661F1DD20B9F1AA2071F187
:1044B000F701858180FF94CF8F70858327C0DD2031
:1044C00091F090913002892F8929A11003C00E9498
:1044D0005810A2CFE1E0AE12FACF981709F49CCFA2
:1044E0008093300299CFA11006C00E942B0A892D1B
:1044F0000E944D1091CFF1E0AF1609F48DCFF5CFAA
:10450000DD2031F025E02A1508F486CF892DDFCF94
:1045100034E03A1508F480CFEACFAA2041F3F9E35A
:104520008F1286C12FEF37EE83E02150304080405C
:10453000E1F700C000007CC1812F869586958370CD
:1045400061F0813009F068CFC8019370D11002C0CA
:1045500090E080E00E94B60A5FCFC8019370D1104E
:1045600002C090E080E00E94CC0A56CF812F837079
:1045700009F066C0D11050CF802F82958695877044
:10458000880F880F602F6F70462E512C712C612C74
:10459000082E04C0440C551C661C771C0A94D2F7E4
:1045A00040E050E0BA0104FF0FC04FE050E060E08F
:1045B00070E004C0440F551F661F771F8A95D2F71D
:1045C0004095509560957095812F8695869583705E
:1045D000823019F1D8F40091310210913202209109
:1045E000330230913402813069F04429552966291B
:1045F0007729CB01BA0160237123822393230E9480
:1046000043100ACF402A512A622A732ACB01BA01E9
:104610006429752986299729F2CF442955296629C5
:1046200077290091310210913202209133023091AA
:104630003402CB01BA016027712782279327DFCF8D
:104640008695DD2011F0812F8170882309F4E4CE56
:10465000802F829586958770880F880F602F6F70E6
:10466000462E512C712C612C082E04C0440C551C74
:10467000661C771C0A94D2F740E050E0BA0104FFB0
:104680000FC04FE050E060E070E004C0440F551FE1
:10469000661F771F8A95D2F7409550956095709563
:1046A000812F869586958370823019F1D8F4009118
:1046B0007602109177022091780230917902813050
:1046C00069F04429552966297729CB01BA0160236D
:1046D0007123822393230E94C4189ECE402A512A1C
:1046E000622A732ACB01BA01642975298629972980
:1046F000F2CF442955296629772900917602109135
:1047000077022091780230917902CB01BA016027BB
:10471000712782279327DFCF1F70DD2029F0812F9B
:104720000E948419802FD3CE802F0E944D10812F9C
:104730000E94491971CE802F92EF891609F450C05A
:10474000981578F0E0EF8E1619F1F1EF8F1609F455
:104750003FC0DD2009F467C0A11042CE812F8F71C8
:104760003CC023EF821609F440C034EF8312F1CF2E
:10477000DD2009F44DC01F71812F0E948419E8E0EB
:104780001E9FC0011124836080932C02812F25C0BD
:10479000DD20C9F084E08A1508F43ECE1F7161E087
:1047A00070E080E090E004C0660F771F881F991FBB
:1047B0001A95D2F700917602109177022091780233
:1047C00030917902A4CF95E09A1508F425CEE6CF72
:1047D000812F8F71DD2009F4ABCF0E9484191CCE8C
:1047E000812F8F71DD20C9F3A3CF60E070E0CB0192
:1047F000DD2009F470CF1F7161E070E080E090E08F
:1048000004C0660F771F881F991F1A95D2F763CFD0
:1048100081E00E946C19F1E0FA1508F0FDCD82E00C
:104820000E946C19F9CDAA2039F0893309F47ACEA7
:10483000802F0E946210F0CD812F8F7179CF0031CF
:10484000FFE51F0709F434CB01312FE5120709F406
:1048500039CB033F2CE5120709F494CB08F034CB95
:10486000083D8CE5180709F489CB093DECE51E07E6
:1048700009F494CB073DFCE51F0709F034CB26E291
:1048800041EE61EEC7010E94BC1D35CA00313FE513
:10489000130709F413CB01318FE51807D1F682E035
:1048A0000ECB85E0DE01119601900D928A95E1F71D
:1048B000F701228189819A812111F9C90E94570A41
:1048C000182FFDC906311C4509F029CD8091E90159
:1048D00081115ACC89E20E94310A51CC8272F801CE
:1048E000E25CFC45E431F10508F0ECCCE654FE4C0A
:1048F0000C944E301F93CF93DF938091EF01807F14
:10490000A9F48091EC01882389F080912102D09153
:10491000F0016091EA017091EB01A091ED01B0917D
:10492000EE01C62FC72316E0D81304C0DF91CF9144
:104930001F91089590E0109711F0CF3F19F4019660
:104940008770F2CF189F9001199F300D1124F90143
:10495000EF50FE4F41814713F2CF40814613EFCF16
:1049600042814111ECCF438154814A1B5B0B483C8F
:10497000510528F78091EF018F7080618093EF01DE
:10498000F901EA50FE4F80818F70806180838AEE4A
:1049900091E00E94201EDF91CF911F910C94AC0AF0
:1049A000AF92BF92CF92DF92EF92FF920F931F933D
:1049B000CF93DF93CDB7DEB761970FB6F894DEBF24
:1049C0000FBECDBF8C0185E0F801DE011D96019080
:1049D0000D928A95E1F7F80180819181E2802AEEBB
:1049E000A22E21E0B22E6091ED017091EE016115D1
:1049F000710509F43EC13091EA014091EB01232F8A
:104A000024232F3F09F435C1C380D480F090EC01FA
:104A1000F601E61BF70BFF2009F4FBC02091EF0124
:104A2000522F507FE83CF10508F0BBC0511178C00F
:104A3000FE2C491321C038131FC0E1101DC02F7078
:104A400020612093EF01C5010E94201E8091EF019B
:104A5000F80185838F2D61960FB6F894DEBF0FBEE7
:104A6000CDBFDF91CF911F910F91FF90EF90DF901D
:104A7000CF90BF90AF900895CD2829F0282F2923FB
:104A80002F3F09F014C120E0F22FF170DF2E20FF3C
:104A90003DC0209121024091F00156E0241315C041
:104AA0008D879E878D859E850E94200F292F2295B8
:104AB0002F702230F8F0243020F59F70F9F0F801C3
:104AC0009581907FD9F4D12C1FC030E0529FF00126
:104AD000539FF00D1124EF50FE4F6181961306C0D5
:104AE0006081861303C06281E61210C02F5F3F4FC2
:104AF0002770D4CF9F7011F0882329F3805E88300F
:104B000010F3C8010E94201EFD2CA4CFEE2009F452
:104B1000A1CF8091EF0181608093EF01F12C9ACFBA
:104B2000491312C0381310C0E1100EC0F8012583DC
:104B3000C8010E94201E86E0F801AAEEB1E00190B3
:104B40000D928A95E1F786CF8D879E878D859E850C
:104B50000E942A0F882309F1EE20F9F08091EF01DD
:104B6000803270F02091EA013091EB0138872F8379
:104B70001986DB86CA868C87CE0107960E94201E86
:104B800086E0F801AAEEB1E001900D928A95E1F776
:104B90000E947A24FF24F3945DCFC8010E94201E56
:104BA000F9CF51110AC08AEE91E00E94201E86E0E2
:104BB000F50111928A95E9F7B1CF49130FC0381367
:104BC0000DC0E1100BC0F8012583C8010E94201E12
:104BD00086E0F50111928A95E9F73CCF8D879E8793
:104BE0008D859E850E942A0F8823B9F2EE20A9F2B6
:104BF0008091EF01803220F22091EA013091EB01A7
:104C00003A8329831B82DD82CC828E83CE0101967A
:104C1000B5CFE83CF105E0F6FE2CEE2009F4BDCF5F
:104C2000491316C0381314C08091EF0180FD83CF63
:104C3000982F907F09F47FCFF8018583903F09F486
:104C400077CF982F907F905F8F70892B858370CF5F
:104C50008D879E878D859E850E942A0F811190CF1A
:104C60008091EF0181608093EF01C8010E94201EB6
:104C7000F1CEEE2009F491CF8D879E878D859E859C
:104C80000E942A0FF82E882309F487CF86E0F801C6
:104C9000AAEEB1E001900D928A95E1F78091EA01C8
:104CA0009091EB010E94200F0E947A24D3CE21E044
:104CB0002E25EACE1F93CF93DF93CDB7DEB767974C
:104CC0000FB6F894DEBF0FBECDBF4B8B5C8B6D8BE8
:104CD0007E8B8F8B1A8A198A85E0FE017396DE011E
:104CE0001D9601900D928A95E1F786E0FE013D96B2
:104CF000DE01179601900D928A95E1F7CE01079695
:104D00000E94D024811112C086E0FE013796DE0198
:104D1000119601900D928A95E1F78A859B85892BE2
:104D200029F08F81988589238F3FB1F516E0809116
:104D300021029091F00189131DC067960FB6F89477
:104D4000DEBF0FBECDBFDF91CF911F91089596E0DA
:104D5000929FD001939FB00D1124AF50BE4FFE0122
:104D6000319601900D929A95E1F78093F0010E949F
:104D7000AC0ADCCF819FC00111248F509E4F0E944E
:104D8000D0248823D1F28091210290E0019687708F
:104D9000992780932102CBCF2091F00130E0C90107
:104DA000019687709927409121024817190679F6D4
:104DB0000E940A111092F0011092210286E0EAEEA0
:104DC000F1E0DF011D928A95E9F7B0CFEAE7F2E062
:104DD000438128E0421B08F440E021E062818181A8
:104DE0000C945217EAE7F2E0438128E0420F08F4FE
:104DF0004FEF21E0628181810C945217EAE7F2E0E3
:104E0000628128E0621B08F460E021E04381818137
:104E10000C945217EAE7F2E0628128E0620F08F48E
:104E20006FEF21E0438181810C945217EAE7F2E0B1
:104E3000818121E04381628188500C945217EAE716
:104E4000F2E0818121E043816281885F0C945217F6
:104E500080917A028E7F80937A028091530280FF44
:104E60000CC01F921F928AE293E09F938F930E943F
:104E700027080F900F900F900F900E94B8102FEFFF
:104E800080E792E0215080409040E1F700C00000B0
:104E90000C942C141F920F920FB60F9211242F9383
:104EA0003F934F935F936F937F938F939F93AF93B2
:104EB000BF93CF93DF93EF93FF93D091E900DF701F
:104EC0008091EC00C82FC17080FDC0E81092E9000D
:104ED0008091F000877F8093F00078940E941511F4
:104EE0001092E9008091F00088608093F000CD2B53
:104EF000CF70C093E900FF91EF91DF91CF91BF9107
:104F0000AF919F918F917F916F915F914F913F9161
:104F10002F910F900FBE0F901F9018951F920F9218
:104F20000FB60F9211242F933F934F935F936F937C
:104F30007F938F939F93AF93BF93EF93FF93809152
:104F4000E10082FF15C08091E20082FF11C08091D4
:104F5000E1008B7F8093E10020915C022F5F822F24
:104F600062E30E940C30992309F4CBC020935C02C9
:104F70008091DA0080FF28C08091D80080FF24C093
:104F80008091DA008E7F8093DA008091D90080FFD3
:104F9000EEC080E189BD82E189BD09B400FEFDCF8C
:104FA00081E08093750287EA9DE00E948E078091E0
:104FB0005D02811109C00E9430080E94230980917E
:104FC000E20084608093E2008091E10080FF1BC0DA
:104FD0008091E20080FF17C08091E2008E7F809375
:104FE000E2008091E20080618093E2008091D8002D
:104FF00080628093D80019BC85E0809375028FEAA7
:105000009DE00E948E078091E10084FF3AC080916C
:10501000E20084FF36C080E189BD82E189BD89B5A7
:10502000982F917080FFFBCF8091D8008F7D809367
:10503000D8008091E1008F7E8093E1008091E200B2
:105040008F7E8093E2008091E20081608093E20095
:1050500080916C02882309F494C084E080937502E7
:1050600083EB9DE00E948E070E940A110E94E20AD3
:1050700010925F0280915E0281110E94C1190E940C
:105080000A148091E10083FF2BC08091E20083FF2E
:1050900027C08091E100877F8093E10082E08093C8
:1050A000750210926C028091E1008E7F8093E10086
:1050B0008091E2008E7F8093E2008091E200806127
:1050C0008093E20042E060E080E00E94F10880917D
:1050D000F00088608093F00087EB9DE00E948E07CF
:1050E000FF91EF91BF91AF919F918F917F916F91C0
:1050F0005F914F913F912F910F900FBE0F901F9096
:10510000189510925C0280915B02882309F430CFDD
:10511000809175028430C1F49091E9009F702091D4
:10512000EC00822F817020FD80E8892B95E0909320
:10513000E9009091EB0090FF04C09091EE0097FD84
:1051400008C08F708093E90010925B0211CF10921B
:10515000F1009091E80095FDFACF9091E80090FF62
:10516000F0CF9091E8009E779093E800EACF19BCC9
:10517000109275028BEA9DE00E948E0710925D02EC
:1051800023CF8091E30087FD93E09093750268CF71
:10519000CDB7DEB7AA970FB6F894DEBF0FBECDBF6E
:1051A00084B7877F84BF0FB6F894A895809160007C
:1051B000886180936000109260000FBE80E890E0EC
:1051C0000FB6F89480936100909361000FBE85B78D
:1051D000806885BF85B7806885BF0E9430080E94BF
:1051E00023098091E20084608093E2008CE49CE0DB
:1051F0009093AB018093AA017894809175028823E3
:10520000A1F01091E9001F709091EC00892F81703E
:1052100090FD80E8182B1092E9008091E80083FD52
:105220000E9415111F701093E90082E084BD93E085
:1052300095BD9AEF97BD80936E0028E731E061E855
:1052400071E001E010E0D90150E040E08D918F3F26
:1052500091F0E82FE295EF70F0E0D1A08F70780127
:1052600001C0EE0C8A95EAF79E2D90959D2191A3A1
:1052700082A18E2982A34F5F5F4F4330510531F7E2
:105280002D5F3F4F62177307F1F6109237021092AD
:105290005402109238021092550210923902109264
:1052A00056020E94980B8FE39CE90197F1F700C02A
:1052B00000000E94980B8091540280FF0BC080E098
:1052C0000E94B10F6FEF7FEF90E080E00E941B31F2
:1052D0000E94E70990E080E00E94F7308C3E9E4FEC
:1052E00011F00E94FE1982E290E00E94E9308032C3
:1052F00009F031C683E290E00E94E930873009F07E
:105300002AC684E290E00E94E930873209F023C681
:1053100090E080E00E94F7308C3E9E4F11F00E949A
:10532000FE1982E090E00E94E930809353020E94CF
:105330001E0D90933B0280933A0283E090E00E941E
:10534000E930682F70E090E080E00E944310809187
:105350003C028111E0C08091530280FF14C083E0C1
:105360009DE09F938F930E942708809153020F9096
:105370000F9080FF08C08DEE9CE09F938F930E945A
:1053800027080F900F9090E080E00E94F7308C3E4D
:105390009E4F81F08091530280FF08C085EC9CE015
:1053A0009F938F930E9427080F900F900E94FE19E1
:1053B0000E94FB1088E090E00E94F13060937A0236
:1053C00070937B0280937C0290937D026E7FD1F478
:1053D0008091530280FF08C08CE79CE09F938F93DD
:1053E0000E9427080F900F900E94FB1088E090E029
:1053F0000E94F13060937A0270937B0280937C026A
:1054000090937D020E94F30A8091530280FF76C040
:1054100083E69CE09F938F930E942708809153021C
:105420000F900F9080FF6AC080917A0281701F9266
:105430008F9386E49CE09F938F930E94270880912E
:1054400053020F900F900F900F9080FF57C08091E4
:105450007A0286951F928F938BE29CE09F938F93A5
:105460000E942708809153020F900F900F900F9089
:1054700080FF44C080917B021F928F9381E19CE06A
:105480009F938F930E942708809153020F900F9053
:105490000F900F9080FF32C080917C021F928F93FB
:1054A00087EF9BE09F938F930E9427088091530280
:1054B0000F900F900F900F9080FF20C080917D0281
:1054C0001F928F938DED9BE09F938F930E942708EF
:1054D000809153020F900F900F900F9080FF0EC09D
:1054E00080917E021F928F9381EC9BE09F938F931C
:1054F0000E9427080F900F900F900F90109280023B
:1055000080917A0280FF04C060E086950E943F1877
:1055100081E080933C0265E971E01DE4812E12E098
:10552000912E21E931E0E3E9F1E041E050E0119111
:10553000812F82958F7090E0DC019196FC9091977D
:105540001F70E12E6A0101C0CC0C1A95EAF70C2DF0
:1055500000950F2191960C93919792961C9192979A
:105560001C2992961C93D901FD909D010F2D029547
:105570000F7010E0D8019196BC90BF2DBF70FB2E2C
:105580006A0101C0CC0CBA95EAF7DC2CD094DB2080
:10559000D8019196DC9291979296DC909297DC28B4
:1055A0009296DC92DC0190968C9190E002C09595E9
:1055B0008795EA94E2F78170D80190960C9110E0FB
:1055C00002C015950795FA94E2F790E000FD92E08D
:1055D000892BD4018D934D016E177F0709F0A7CF5A
:1055E0008AE19DE090933E0280933D0281E191E04B
:1055F0009093400280933F0286E99DE00E948E07CF
:1056000022242394312C80917502853059F10E9417
:10561000980BF0E5CF2EF2E0DF2EA4E5AA2EA2E053
:10562000BA2E10E000E0502EF501F1905F01D60196
:10563000ED906D01EF107AC00F5F1F4F0330110521
:1056400091F78FEF8EA38FA318A60E94070A81609F
:10565000782F9AA789A74EA15FA168A58AA50E9465
:105660005A2689C082E99DE00E948E0780917502CA
:10567000843009F434C01092410288E190E020E4C3
:105680000FB6F894A895809360000FBE2093600039
:105690000E94B81080915F0281110AC081E080935E
:1056A0005F0280917A02817080935E020E942827B7
:1056B00083B7817F846083BF83B7816083BF789421
:1056C000889583B78E7F83BF0FB6F894A895809195
:1056D0006000886180936000109260000FBE80912E
:1056E0006B02882309F48FCF0E94980B809155029A
:1056F00090915402892B90915602892B09F483CF03
:1057000080E189BD82E189BD09B400FEFDCF8091B1
:10571000D8008F7D8093D8008091E00082608093D4
:10572000E0008091E00081FDFCCF6DCF80915302BD
:1057300081FDA7C180E099249394EF249E2D9921A7
:1057400009F4D3C189A35AA2F92081E009F480E0C9
:105750008BA30E94070A8160782F9DA38CA349A187
:105760005AA16BA18DA10E945A26F801E05BFD4F62
:1057700080819826908280918002882309F441C01C
:1057800080917F02E0917A02E695E81BE093440263
:10579000823009F0B0C1F0E0EF5AF24FE4910E2FE1
:1057A00010E07EE2E72E77E1F72E80914502882314
:1057B00089F0109245020E94070A980120953095C1
:1057C000820F931F909343028093420210924702EC
:1057D0001092460280914202909143020E94F80981
:1057E0008017910770F0E0914202F09143020E0F92
:1057F0001F1F109343020093420282E492E0F701DC
:105800000995809186028823B9F180918402909154
:1058100085020E94F80920918202309183022817A4
:10582000390750F510E000E08091860290E0002EEC
:1058300002C0959587950A94E2F780FF16C0C101D2
:10584000002E01C0880F0A94EAF78095909181029A
:1058500089238093810280918002811106C080910A
:105860007A0260E086950E943F180F5F1F4F083054
:105870001105D1F6109286020BE412E069E4E62EDF
:1058800062E0F62E71E9472E71E0572EE3E98E2E85
:10589000E1E09E2EFDE4CF2EF2E0DF2E712C662497
:1058A0006394D601ED916D01EE0FEE0FD4012D91B1
:1058B0004D01A22FA295AF70B0E090968C9190E030
:1058C0002F7002C0959587952A95E2F781709927E8
:1058D000D2014D912D01A42FA295AF70B0E090960A
:1058E0002C9130E04F7002C0359527954A95E2F72C
:1058F000A9014170552720FF02C042E050E0842BEF
:10590000E82BD6011197EC935801EF70F0E0EF57B8
:10591000FE4F8081F8019081890F80838430FCF0F4
:10592000D7018C918F5F8C9371103CC0809176026F
:1059300090917702A0917802B09179020097A10529
:10594000B10509F447C152E0B695A795979587959B
:105950005A95D1F780FF3EC18AEA0E94A91DD8015D
:105960008C918D3FFCF4F701808181508083711010
:1059700019C08091760290917702A0917802B0913F
:1059800079020097A105B10509F43CC142E0B69542
:10599000A795979587954A95D1F780FF33C189EAF6
:1059A0000E94A91D0F5F1F4FF8013197D5018C91FF
:1059B000837887FF03C081508C6F8F5F8083BFEF38
:1059C000EB1AFB0AE1E07E1202C10E94E20A90910A
:1059D0004F02891739F10E94E20A182F80934F0273
:1059E0008091530282FF1EC080FF1CC08CE59DE0A9
:1059F0000E948E078091530280FF14C01F921F9354
:105A000027E53DE03F932F930E94270880915302A2
:105A10000F900F900F900F9080FF04C085E59DE0E0
:105A20000E948E0780917502843009F0ECCD83E0EE
:105A30008093E9008091E80082FFE5CD8091E80045
:105A400090E085FF0CC00E944F0830E2E32EF12C5D
:105A50008E010F5F1F4F882309F4EBC091E0809106
:105A6000E8008B778093E800992309F4CCCDE98195
:105A7000E150E33108F025C1F0E0E253FE4C0C9414
:105A80004E3081E39DE00E948E07E4E58E2EE2E039
:105A90009E2E712C612C7F926F92ECE2FDE0FF93C1
:105AA000EF930E94270889E29DE00E948E07D401AF
:105AB0008D914D010E94130A1F928F93E4E2FDE045
:105AC000FF93EF930E94270882E29DE00E948E07D9
:105AD0003FEF631A730A0FB6F894DEBF0FBECDBF57
