:100000000C9430070C9477070C9477070C947707BF
:100010000C9477070C9477070C9477070C94770768
:100020000C9477070C9477070C9485270C94412740
:100030000C94A02E0C9477070C9477070C947707F8
:100040000C9477070C9477070C9477070C94770738
:100050000C9477070C947C2E0C9477070C947707FC
:100060000C9477070C9477070C9477070C94770718
:100070000C9477070C9477070C9477070C94770708
:100080000C9477070C9477070C9477070C947707F8
:100090000C9477070C9477070C9477070C947707E8
:1000A0000C9477070C9477070C947707000500FFF2
:1000B000FFFF00000000000555FFFFFF00000000EB
:1000C0000005AAFFFFFF000000000631FF0974A130
:1000D000010975150026FF00952075088102097633
:1000E000150026FF00952075089102C005010980C2
:1000F000A101850319012AB700150126B700950152
:1001000075108100C0050C0901A101850419012A9F
:10011000A002150126A002950175108100C006609D
:10012000FF0961A1010962150026FF0095207508ED
:1001300081020963150026FF00952075089102C011
:1001400005010906A101050719E029E715002501A8
:10015000950875018102950175088101050719004F
:1001600029FF150026FF009506750881000508196E
:10017000012905950575019102950175039101C04D
:10018000000101010101010101010202020202025A
:10019000020202030303030303030304040404042D
:1001A00004040505050505060606060607070707F4
:1001B0000708080808090909090A0A0A0B0B0B0CA9
:1001C0000C0C0D0D0D0E0E0E0F0F0F101011111146
:1001D00012121313141415151616171718181919C7
:1001E0001A1A1B1B1C1D1D1E1E1F2020212222232C
:1001F0002424252626272829292A2B2C2D2D2E2F6D
:1002000030313232333435363738393A3B3C3D3E83
:100210003F404142434445464748494A4C4D4E4F72
:1002200050515354555658595A5B5D5E5F61626434
:10023000656668696B6C6D6F7072737577787A7BC1
:100240007D7E8082838587888A8C8E8F9193959618
:10025000989A9C9EA0A2A3A5A7A9ABADAFB1B3B538
:10026000B7BABCBEC0C2C4C6C9CBCDCFD1D4D6D814
:10027000DBDDDFE2E4E7E9EBEEF0F3F5F8FAFDFFB2
:100280007267626C69676874206D6F6465205B4E8D
:100290004F454550524F4D5D3A2025750A00726713
:1002A000626C69676874206D6F6465205B454550BA
:1002B000524F4D5D3A2025750A007267626C69677E
:1002C000687420656E61626C65205B454550524FD5
:1002D0004D5D3A207267626C696768745F636F6E28
:1002E0006669672E656E61626C65203D2025750A22
:1002F000007267626C6967687420656E61626C6524
:10030000205B4E4F454550524F4D5D3A207267621B
:100310006C696768745F636F6E6669672E656E618E
:10032000626C65203D2025750A007267626C696702
:1003300068742064697361626C65205B4E4F45454B
:1003400050524F4D5D3A207267626C696768745F06
:10035000636F6E6669672E656E61626C65203D2015
:1003600025750A007267626C69676874207365742A
:1003700020687376205B4E4F454550524F4D5D3A95
:100380002025752C25752C25750A007267626C690D
:100390006768742073657420687376205B454550E8
:1003A000524F4D5D3A2025752C25752C25750A0078
:1003B0007267626C69676874207261696E626F77D8
:1003C00020736574206873763A2025642C25642C8C
:1003D00025642C25750A00FFAA7F55407267626C60
:1003E000696768742074696D657220656E61626CFE
:1003F00065642E0A007267626C69676874207469AC
:100400006D65722064697361626C652E0A00222337
:10041000252628292A2C2D2F3032333536383A3BE1
:100420003D3E4042434547494A4C4E505153555733
:10043000595A5C5E6062646668696B6D6F71737552
:1004400077797B7D7F81838587898A8C8E90929452
:1004500096989A9C9E9FA1A3A5A7A8AAACAEAFB15F
:10046000B3B4B6B8B9BBBCBEBFC1C2C3C5C6C7C9A9
:10047000CACBCCCDCED0D1D2D2D3D4D5D6D7D7D863
:10048000D9D9DADADBDBDBDCDCDCDCDCDDDDDDDDB5
:10049000DCDCDCDCDCDBDBDBDADAD9D9D8D7D7D6BD
:1004A000D5D4D3D2D2D1D0CECDCCCBCAC9C7C6C574
:1004B000C3C2C1BFBEBCBBB9B8B6B4B3B1AFAEACBA
:1004C000AAA8A7A5A3A19F9E9C9A98969492908E65
:1004D0008C8A89878583817F7D7B79777573716F3E
:1004E0006D6B6968666462605E5C5A59575553511A
:1004F000504E4C4A4947454342403E3D3B3A3836D0
:10050000353332302F2D2C2A2928262523225F41EE
:10051000600061425C005D005E0059005A005B00B3
:100520000100AE00C25C0100C95C0100C45CCA5C91
:10053000C35C000000000100DE5C005C015C0000A8
:1005400000000000000000000000000000000000AB
:1005500000000000000000007E0F00D4FFFFFFC776
:100560000000007800000000000000002A2B280096
:100570000000000000000000000000000000002952
:10058000000000002C1E3420212224342627252E92
:10059000362D3738271E1F202122232425263333CA
:1005A000362E37381F0405060708090A0B0C0D0EF6
:1005B0000F101112131415161718191A1B1C1D2FC2
:1005C0003130232D350405060708090A0B0C0D0EE2
:1005D0000F101112131415161718191A1B1C1D2FA2
:1005E0003130354C7267626C696768742064697376
:1005F00061626C65205B454550524F4D5D3A2072FB
:1006000067626C696768745F636F6E6669672E65A1
:100610006E61626C65203D2025750A007267626C10
:100620006967687420746F67676C65205B45455027
:10063000524F4D5D3A207267626C696768745F6300
:100640006F6E6669672E656E61626C65203D202560
:10065000750A0044454255473A2064697361626CEB
:1006600065642E0A0044454255473A20656E616232
:100670006C65642E0A003F00433E20000A002530CE
:10068000325820006B6579626F6172645F726570C9
:100690006F72743A20000A002575002E6E6B726F1F
:1006A0003A20000A002575002E737761705F626141
:1006B000636B736C6173685F6261636B73706163BA
:1006C000653A20000A002575002E737761705F6718
:1006D000726176655F6573633A20000A00257500D4
:1006E0002E6E6F5F6775693A20000A002575002E2F
:1006F000737761705F72616C745F726775693A20BD
:10070000000A002575002E737761705F6C616C7450
:100710005F6C6775693A20000A002575002E7377B3
:1007200061705F7263746C5F726775693A20000A6A
:10073000002575002E737761705F6C63746C5F6C5D
:100740006775693A20000A002575002E6361707391
:100750006C6F636B5F746F5F636F6E74726F6C3A14
:1007600020000A002575002E737761705F636F6E3D
:1007700074726F6C5F636170736C6F636B3A2000AF
:100780000A0025303258006B65796D61705F636FC8
:100790006E6669672E7261773A20000A002575003F
:1007A0002E6D6F7573653A20000A002575002E6B5B
:1007B0006579626F6172643A20000A002575002E27
:1007C0006D61747269783A20000A002575002E6503
:1007D0006E61626C653A20000A0025303258006470
:1007E000656275675F636F6E6669672E7261773ADF
:1007F00020000A0025750064656661756C745F6C85
:10080000617965723A20000A092D204D616769639C
:10081000202D0A443A094465627567204D6573735B
:1008200061676520546F67676C650A583A094D61C6
:1008300074726978204465627567204D6F64652025
:10084000546F67676C65202D2053686F77206B6548
:10085000797072657373657320696E206D6174724F
:10086000697820677269640A4B3A094B6579626F4F
:1008700061726420446562756720546F67676C65B8
:10088000202D2053686F77206B65797072657373C4
:10089000207265706F72740A4D3A0944656275671B
:1008A000204D6F75736520546F67676C650A563A03
:1008B0000956657273696F6E0A533A09537461740D
:1008C00075730A433A09416374697661746520431C
:1008D0006F6E736F6C65204D6F64650A46312D46EF
:1008E00031303A0953776974636820746F204C6122
:1008F00079657220302D392028463130203D204C3A
:1009000030290A302D393A095377697463682074A5
:100910006F204C6179657220302D390A475241565B
:10092000453A0953776974636820746F204C617984
:10093000657220302028616C7465726E617465295F
:100940000A423A094A756D7020746F20426F6F74C5
:100950006C6F616465720A4553433A094A756D705C
:1009600020746F20426F6F746C6F61646572202811
:10097000616C7465726E617465290A453A0950723A
:10098000696E7420454550524F4D2053657474690B
:100990006E67730A4253504143453A09436C65619F
:1009A0007220454550524F4D0A000A092D20436FD1
:1009B0006E736F6C65202D0A4553432F713A097190
:1009C0007569740A004743433A20382E332E30208D
:1009D0004156522D4C4942433A20322E302E30207F
:1009E0004156525F415243483A20617672350A00BF
:1009F0004F5054494F4E533A204C5546412045588C
:100A00005452414B455920434F4E534F4C45204380
:100A10004F4D4D414E44204C544F20343039360A0E
:100A2000004255494C443A2022302E392E34362D7E
:100A3000342D6764666133303122202831343A34F2
:100A4000363A3332204A756C203237203230323019
:100A5000290A005649443A2030783437353228671D
:100A60007265676F72696F29205049443A20307867
:100A700034443439284D69786929205645523A2042
:100A80003078303030310A000A092D2056657273F3
:100A9000696F6E202D0A0074696D65725F72656101
:100AA00064333228293A202530346C580A006B65AB
:100AB00079626F6172645F69646C653A2025580AD7
:100AC000006B6579626F6172645F70726F746F63DF
:100AD0006F6C3A2025580A00686F73745F6B6579F4
:100AE000626F6172645F6C65647328293A202558CF
:100AF0000A000A092D20537461747573202D0A00B1
:100B00003F000A6D6F7573653A206F66660A000ACA
:100B10006D6F7573653A206F6E0A000A6B657962B6
:100B20006F6172643A206F66660A000A6B657962CB
:100B30006F6172643A206F6E0A000A6D61747269A7
:100B4000783A206F66660A000A6D61747269783AB5
:100B5000206F6E0A000A64656275673A206F6666E8
:100B60000A000A64656275673A206F6E0A000A0A15
:100B70004A756D70696E6720746F20626F6F746C58
:100B80006F616465722E2E2E2000433E2000436C60
:100B9000656172696E6720454550524F4D0A006588
:100BA00065636F6E6669673A0A004C25640A0072D5
:100BB00067626C696768745F636F6E6669672E73DE
:100BC00070656564203D2025640A007267626C6967
:100BD0006768745F636F6E6669672E76616C203D2F
:100BE0002025640A007267626C696768745F636FCE
:100BF0006E6669672E736174203D2025640A007259
:100C000067626C696768745F636F6E6669672E6898
:100C10007565203D2025640A007267686C69676805
:100C2000745F636F6E6669672E6D6F6465203D202B
:100C300025640A007267626C696768745F636F6E2F
:100C40006669672E656E61626C65203D2025640AC9
:100C5000007267626C696768745F636F6E6669676C
:100C600020454550524F4D3A0A007267626C6967E1
:100C700068745F696E6974207267626C6967687412
:100C80005F636F6E6669672E6D6F6465203D20300F
:100C90002E2057726974652064656661756C7420D6
:100CA00076616C75657320746F20454550524F4DC9
:100CB0002E0A007267626C696768745F696E697496
:100CC000206565636F6E666967206973206E6F7457
:100CD00020656E61626C65642E0A007267626C69E1
:100CE0006768745F696E6974207374617274210A35
:100CF000007267626C696768745F696E697420630B
:100D0000616C6C65642E0A00C000B600AC00000087
:100D10000A0025303862003A200025303258000A97
:100D2000722F632030313233343536370A003219AE
:100D30000A00047F3F1F643214643214783C1E1E84
:100D4000140A050A0025303258006B6579626F611C
:100D500072645F7365745F6C65643A2000726762E9
:100D60006C696768742073657420737065656420AE
:100D70005B4E4F454550524F4D5D3A2025750A0058
:100D80005B735D004B6579626F617264207374619F
:100D900072742E0A005B435D005B445D005B535D33
:100DA000005B575D005B525D0009027B000401009F
:100DB000A0FA09040000010301010009211101004A
:100DC000012240000705810308000A09040100020E
:100DD0000300000009211101000122220007058201
:100DE000032000010705030320000109040200019C
:100DF00003000000092111010001223200070584CF
:100E00000320000A09040300020300000009211165
:100E100001000122220007058503200001070505C6
:100E20000320000112011001000000085247494D43
:100E30000100010203010403300000000A034D0019
:100E40006900780069000000120367007200650005
:100E500067006F00720069006F000000040309045E
:100E600011241FBECFEFDAE0DEBFCDBF04B603FE14
:100E700027C080916C0290916D02A0916E02B0919A
:100E80006F028730904BA740B04BD1F410926C02A8
:100E900010926D0210926E0210926F0214BE84B70F
:100EA000877F84BF0FB6F894A89580916000886111
:100EB00080936000109260000FBEE0E0F8E30995B7
:100EC00022E0A6E9B1E001C01D92AC36B207E1F71D
:100ED00011E0A0E0B1E0E8E3F1E602C005900D9278
:100EE000A639B107D9F70E94BF280C944F300C9453
:100EF0000000FF93EF93E0919601F09197013097F6
:100F000009F00995EF91FF910895FC0185918030DA
:100F100011F0EFDFFBCF0895FF27E0E230E247FF5B
:100F20000CC0419597FF09C0EDE2609570958095E2
:100F30009095611D711D811D911D27FF02C0219596
:100F400030E350E2AA27660F771F881F991FAA1F58
:100F5000A41710F0A41B63955A95A9F7AA3008F0BE
:100F6000A95FA05DAF93F3956115710581059105AA
:100F700041F7ED3211F4EF93F395F21718F43F9324
:100F8000F395FBCF8F91B5DFFA95E1F70895E991DD
:100F9000F9918591803021F0853219F0AADFF9CFDF
:100FA000089520E0E89455915532C1F3503311F47F
:100FB000689455915A3348F4505390F3220F022EFF
:100FC000220F220F200D250FF4CF0EF421958991C9
:100FD0009991533619F3533729F1533559F1BC011F
:100FE00088279927E8945C3621F48991999168942F
:100FF0005591543639F446EF7EF077FF0DC08FEFF0
:101000009FEF0AC055374AE039F0583540E121F0EA
:10101000523642E009F00895FF93EF937DDFEF91A0
:10102000FF91B7CFFF93EF93FC0181918030B9F32B
:1010300060DFFBCFFF93EF9368DFF1CFDF93CF93B8
:10104000CDB7DEB72596A3DFCF91DF910895E8ED08
:10105000F0E080818E7F80831092E2001092DA00AF
:101060001092E100A0EEB0E08C9181608C938081C1
:101070008F77808319BCA7EDB0E08C918E7F8C9325
:1010800080818F7E80831092420208952091E40037
:101090003091E50095E6A9012091EC00822F817046
:1010A00020FF06C08091E80080FF06C080E0089520
:1010B0002091E80022FD1AC080915A02882389F00D
:1010C000853089F08091EB0085FD0FC02091E40010
:1010D0003091E50042175307F9F29150E1F684E0B0
:1010E000089582E0089583E0089581E00895EF92E5
:1010F000FF920F931F93CF937C018B010E944608B0
:10110000C82F811117C08091E80085FD0BC0809128
:10111000E8008E778093E8000E944608882399F3C0
:10112000C82F08C0F70181917F018093F100015021
:10113000110949F78C2FCF911F910F91FF90EF90DC
:101140000895CF93FC0180915A02843001F5C0913B
:10115000E900CF702091EC00922F917020FD90E873
:10116000C92B82E08093E9008091E80080FF0CC0E9
:1011700050E040E060E270E0CF010E94770880918B
:10118000E8008E778093E800CF70C093E900CF919C
:1011900008958091520287FF13C08091E80082FF7A
:1011A00006C08091E8008B778093E80004C08091AE
:1011B0005A028111F2CF089580915A028823D9F3FF
:1011C0008091E80080FFF8CF8091E8008E77ECCF27
:1011D000982F9093E900242F762F50E0891731F053
:1011E0007091EC002091ED005091F00021FD07C0BE
:1011F0009F5F973071F78093E90081E00895309107
:10120000EB003E7F3093EB003091ED003D7F30935B
:10121000ED003091EB0031603093EB007093EC0007
:101220002093ED005093F0002091EE0027FDE0CFD9
:1012300080E00895CF92DF92EF92FF920F931F9379
:10124000CF93DF93C8EDD0E088818F7E8883E7ED70
:10125000F0E080818160808384E082BF81E08093C0
:10126000420288818E7F888302EE10E0F8011082AE
:101270001092DA0081EEC82ED12CF60110828881FE
:101280008F77888388818068888388818F7D888331
:1012900019BC10925A0210925102109250021092F0
:1012A0004F0290EEE92EF12CF70180818B7F808335
:1012B00088818160888342E060E080E00E94E808E5
:1012C000F60180818E7F8083F80180818160808338
:1012D000808188608083F70180818E7F8083888110
:1012E00080618883DF91CF911F910F91FF90EF90E4
:1012F000DF90CF900895FC0180915802909159029F
:1013000086179707A0F06115710529F49091E80000
:101310009E779093E80090E06115710551F491116A
:1013200008C08091E80082FF34C080E00895BC01CD
:10133000F2CF80915A028823C1F18530C1F18091AA
:10134000E80083FD30C08091E80082FDEACF809103
:10135000E80080FFE1CF8091F3002091F200382F68
:101360006115710519F02830310558F091E02830E9
:10137000310509F090E02091E8002E772093E800F5
:10138000CBCF81918093F100615071092F5F3F4F66
:10139000E7CF80915A02882341F0853041F0809157
:1013A000E80083FFBECF81E0089582E0089583E0E6
:1013B00008950895089580914602089587E797E774
:1013C000909301088093000888E19AE00FB6F894A2
:1013D000A895809360000FBE90936000FFCF9C01A2
:1013E0004FB7F89480913C0290913D02A0913E024B
:1013F000B0913F024FBF821B930B08952FB7F89413
:1014000080913C0290913D02A0913E02B0913F023A
:101410002FBF0895829590E09C01220F331F220F69
:10142000331F2C7C95958795959587958373282BED
:1014300030E0C901880F991F8A7A3595279525755F
:10144000822B089580911C02811110921C02089534
:10145000EAE9F1E09191891303C0DF0111971C9231
:1014600091E0E03AF907B1F70895AAE9B1E0EFEFAA
:1014700090E02D91821751F0EF3F19F4211101C036
:10148000E92F9F5F9630A9F7EF3F09F408950E2EDC
:10149000000CFF0BE856FE4F82830895E92FEE0FF4
:1014A0009E0F890F982F977086958695869525E0D3
:1014B000829FF0011124E25FFD4F50E040E080E0A8
:1014C000219130E0092E02C0369527950A94E2F763
:1014D00021703327042E01C0220F0A94EAF7822BD1
:1014E0004F5F5F4F4530510559F70895E92FEE0FD3
:1014F0009E0F890F982F977041E001C0440F9A9575
:10150000EAF786958695869595E0899FF0011124E6
:10151000E25FFD4F30E020E070E05191DF01119774
:10152000CB01022E02C0969587950A94E2F781704E
:1015300081958527842385278C932F5F3F4F253006
:10154000310559F7089580910D029091DC019813AF
:1015500001C008958F5F8770FACF2091D20130913A
:10156000D3012817390771F09093D3018093D201EA
:10157000E0912B02F0912C02309721F00084F1854C
:10158000E02D099408952091D0013091D1012817C0
:10159000390771F09093D1018093D001E0912B0233
:1015A000F0912C02309721F00680F781E02D09940C
:1015B0000895E0912B02F0912C02309721F00190D8
:1015C000F081E02D099480E00895FA01811101C0B5
:1015D000FB01099480915F02982F9E7F29F481700E
:1015E000826080935F0208958635E8F38170846598
:1015F000F8CFAF92BF92DF92EF92FF920F931F93BB
:10160000CF93DF93082F162FE901E42FF0E0E05885
:10161000FE4F611110C0E4915E2F4E2F4983E88385
:101620005A83DF91CF911F910F91FF90EF90DF9040
:10163000BF90AF900895E62EF12C4491D42EE42F64
:10164000F0E026E0829FC00111242FEF30E0B901C5
:101650000E94E12E802F90E0880F991F55E5569F3C
:10166000D001579FB00D11248A1B9B0B982F990F07
:10167000890F5901AE18BF08AE9ED001AF9EB00DC4
:10168000BE9EB00D11245B2F189F80011124012FE5
:1016900011275901A01AB10AAE9E8001AF9E100D0C
:1016A000BE9E100D11245901A81AB108AE9CC001AC
:1016B000AF9C900DBE9C900D1124892F9927281B5B
:1016C000390B2E9FC0012F9F900D3E9F900D11242E
:1016D000E92F62307105A1F050F46115710509F42C
:1016E0009DCF6130710581F0EB2F512F97CF643082
:1016F000710569F080F06630710509F48FCFF4CF81
:10170000E42F4B2F592F8ACFE42F412F87CFEB2F78
:10171000542F492F83CF4B2F5D2DE12F7FCFEF9299
:10172000FF920F931F93CF93DF93E3E2F2E068E71A
:1017300071E0C0E001E010E07B0150E040E030E00B
:10174000D7012D917D012F3FB9F0822F82958F70A7
:1017500090E0DC0190968C9190E02F7002C09595FE
:1017600087952A95E2F780FD3BC0C801042E01C091
:10177000880F0A94EAF7382B4F5F5F4F43305105CB
:10178000F9F68081831771F1308381E0C82B31969F
:101790006D5F7F4FB1E061387B0771F6CC2321F19B
:1017A00081E08093A2010E94FE099093A1018093A1
:1017B000A0018091A0019091A1010E94EF090697DC
:1017C000B8F08091230280933902809124028093A3
:1017D0003A028091250280933B021092A20108C038
:1017E00080E0C9CF80E0D2CF8091A2018111E1CF0A
:1017F0008C2FDF91CF911F910F91FF90EF90089563
:101800009091260292FF06C0282F28712830F9F403
:10181000877F846093FF06C0282F28712831F1F458
:10182000877E84612091270220FF06C0382F3871FF
:101830003830D9F4877F816021FF06C0282F2871B6
:101840002831D1F4877E816194FD877E0895282F09
:1018500024712430F9F68B7F8860DCCF282F247127
:10186000243101F78B7E8861DDCF382F3171313023
:1018700019F78E7F8860E0CF282F2171213121F761
:101880008E7E8861E1CF9FB7F894109240029FBF8F
:1018900090915A02943009F048C02091E9002F70CD
:1018A0003091EC00932F917030FD90E8922B25E061
:1018B0002093E9002091EB0020FF34C02091EE003E
:1018C00027FF30C020912202222321F02091E8003E
:1018D00025FF28C01092220226E03091E80035FF53
:1018E00014C08093F1008091E80085FD27C08091AD
:1018F000E80080FFFCCF8091E8008E778093E800BD
:101900009F709093E90080E0089530915A0234303E
:1019100049F43091EB0035FD05C0215041F481E0E0
:10192000809322029F709093E9008FEF0895EFE972
:10193000FFE03197F1F700C00000CFCF8FB7F894E8
:1019400021E0209340028FBFDBCFCF93DF9300D005
:101950000F92CDB7DEB790915A02943011F589837A
:101960007B836A839093E9008FEF9091E800815028
:1019700095FD06C095ED9A95F1F700008111F5CF20
:101980008091E80085FF0DC050E040E063E070E02A
:10199000CE0101960E9477088091E8008E778093AF
:1019A000E8000F900F900F90DF91CF910895209154
:1019B0005A02243021F4BC0184E00C94A50C089553
:1019C000BC0183E00C94A50CCF93DF93EC018091D4
:1019D0005A02843039F581E08093E9008FEF9091CD
:1019E000E800815095FD06C095ED9A95F1F700004D
:1019F0008111F5CF8091E80085FF14C050E040E0F0
:101A000068E070E0CE010E9477088091E8008E7750
:101A10008093E80088E0FE01A7E4B2E001900D9217
:101A20008A95E1F7DF91CF910895CF9384E090E01C
:101A30000E94A42FC82F81E290E00E94A42F982F2B
:101A40008C2FCF9108950F931F93CF93DF93C42FC3
:101A5000D0E0CC0FDD1F26E0629FC00DD11D112408
:101A600032E1839FC00DD11D1124CE0186960E94C4
:101A7000A42F082F10E0102F0027CE0187960E9478
:101A8000A42F9801282BC901DF91CF911F910F91AD
:101A90000895462F843038F4733028F4633018F4F6
:101AA000672F0C94230D90E080E00895CF93DF938F
:101AB0000E94490DEC0182389105A9F1D8F58133D6
:101AC000910509F496C048F58932910509F48AC058
:101AD0008A9709F495C0C11522E5D20708F0B6C06F
:101AE000C11531E5D30708F026C1C83ED10508F07D
:101AF0009CC0C03ED10560F5C83AD10508F087C04A
:101B0000C53AD10508F0EFC0C130D10509F12097E1
:101B1000F9F0C430D105E0F440C08533910509F4F3
:101B20005AC0C997C1F680912602837089F0C0EE31
:101B3000D0E00EC0833E910599F170F4803E91058E
:101B400001F1823E910539F68091260282FD21C085
:101B5000CE01DF91CF910895863E910561F1873ED8
:101B6000910571F1843E910509F0B5CF809127026E
:101B700081FFEECF80912602C7EED0E084FD0DC03C
:101B8000E7CF8091260280FD07C19091270290FF48
:101B9000DFCFC3EED0E084FFDBCFD0E0C0E0D8CF12
:101BA0008091260282FDFBC09091270290FDBFCF5D
:101BB00084FFCECFF2CF8091260283FDDDCFC8CF48
:101BC0008091260283FDEEC09091270291FFF0CF15
:101BD000C4EED0E0BDCF8091260285FFB9CFC9E227
:101BE000D0E0B6CF8091260285FFB2CFC5E3D0E02A
:101BF000AFCF8091260286FFABCFCAE2D0E0A8CF5C
:101C00008091260286FFA4CFC1E3D0E0A1CFCF3BD5
:101C1000D10518F6C85AD0E0CC0FDD1FC65BDE4FE9
:101C20000990D881C02DD46493CFC11540E5D40765
:101C300008F064C0C11580E4D80708F05CC0CE018C
:101C40009A9581159F4108F483CFA7CFC11536E53A
:101C5000D30718F5C11545E5D40708F084C0C115B0
:101C600084E5D80708F07AC09C2F969596959E013A
:101C700023703327C115D34508F462C0C1E0D0E01A
:101C800002C0CC0FDD1F2A95E2F730E2939FC0011E
:101C90001124C82BD92BDA685BCFC1158AE5D80788
:101CA00078F4C11599E5D90708F068C0C11528E591
:101CB000D20708F472CFDC2FCC27C06FD06A48CF90
:101CC000CE0190568115904208F067CF8D2F8F710D
:101CD0000E94000C90E0982F882788279F719C0114
:101CE0002C2BE90149C0C55AD0E0C95BDE4FC88141
:101CF000D0E0D0642DCFDF70D06A2ACFCE01E4E0EF
:101D000096958795EA95E1F783702C2F2695269571
:101D1000237040E2249F90011124382B8C2F837074
:101D2000C1E0D0E002C0CC0FDD1F8A95E2F7C22BE4
:101D3000D32BDC680DCFDC2FCC27C16FD06A08CF46
:101D4000C1E0D0E002C0CC0FDD1F2A95E2F720E20F
:101D5000929FC0011124C82BD92BEBCFDC2FCC27AD
:101D6000C46FD06AF5CE8C2F0E94000CC82FD0E033
:101D7000DC2FCC27CC27DF71D062EACE8C2F8F707E
:101D80000E94000C34E0D695C7953A95E1F7CF70E4
:101D90009C2FEC01D069DCCEC9E3D0E0D9CEC2EEF5
:101DA000D0E0D6CEC6EED0E0D3CEBF92CF92DF92B7
:101DB000EF92FF920F931F93CF93DF938C01C0900C
:101DC0005B02D0905C02E0905D02F0905E02809138
:101DD0001D0290911E02A0911F02B0912002C82AFC
:101DE000D92AEA2AFB2ACFE1D0E0BC2ED701C601CE
:101DF0000C2E04C0B695A795979587950A94D2F7AF
:101E000080FD0EC0219788F7B12C8B2DDF91CF91EB
:101E10001F910F91FF90EF90DF90CF90BF900895AA
:101E2000B8018C2F0E94560D019761F3EECFCF932E
:101E3000DF93EC010E94D50EBE01DF91CF910C948F
:101E4000560D0E94170F292F2F7092959F70925058
:101E50009E3078F4E92FF0E0EF5AFF4C0C94092FF4
:101E6000803F19F020F4883E20F481E00895843FFB
:101E7000E1F380E00895883EC0F3813FD1F7F5CFCC
:101E8000822F86958695869508956F927F928F9280
:101E90009F92AF92BF92CF92DF92EF92FF920F93F9
:101EA0001F93CF93DF938EE0C82E85E0D82E9EE35C
:101EB000E92EF12CE701629736011BC0F5018590F0
:101EC0009490692DC8010E94B82F682DC801019611
:101ED0000E94B82F82E0A80EB11C0E5F1F4FC017E2
:101EE000D10761F786E0680E711C2696CE15DF05D6
:101EF00029F08E01065011095301E0CF7E0182E1E5
:101F0000E80EF11C82E1C80ED11C86E8E816F10447
:101F100089F6DF91CF911F910F91FF90EF90DF90A5
:101F2000CF90BF90AF909F908F907F906F900895CB
:101F3000CF93DF93CEE6D0E060E0CE010E94B82FD1
:101F40002196C11584E0D807B9F7DF91CF910895A4
:101F5000CF93C82F6FEF811160E282E290E00E9480
:101F6000B82F6FEFC11167E083E290E00E94B82FB5
:101F70006FEFC11167E284E290E0CF910C94B82F2B
:101F8000EF92FF920F931F93CF93DF9380911B02E9
:101F900090911A02892B90911902892B80939801B4
:101FA00090911C02992391F0892B8093980120E055
:101FB0008AE991E0FC013191CF0131112F5FF1E00D
:101FC000803A9F07B9F721110E94220AE0912B0263
:101FD000F0912C023097C9F10280F381E02D88E95D
:101FE00091E009958091380282FF2FC080FF04C0E4
:101FF00084E896E00E948507C8E9D1E080EAE82EEF
:1020000081E0F82E0EE716E08091380280FF0BC0C9
:1020100088811F928F931F930F930E941E080F9029
:102020000F900F900F902196EC16FD0669F78091A6
:10203000380280FF0AC08CE796E0DF91CF911F91B4
:102040000F91FF90EF900C948507DF91CF911F9136
:102050000F91FF90EF90089510921A0210921902BA
:102060000E94C00F90E080E00E94C30A90E080E0F0
:102070000C94AD0A60931D0270931E0280931F02A0
:10208000909320020C942C10882341F0809590911D
:102090001B02892380931B020C94C00F0895882390
:1020A00039F090911B02982B90931B020C94C00F57
:1020B0000895882309F452C0823871F40E94D90A25
:1020C00081FF4CC089E30E94350A0E94C00F89E35A
:1020D0000E94280A0C94C00F833859F40E94D90A30
:1020E00080FF3CC083E50E94350A0E94C00F83E553
:1020F000EFCF843859F40E94D90A82FF2FC087E4B9
:102100000E94350A0E94C00F87E4E2CF9CEF980F2F
:10211000913AF0F290E2980F983088F4877021E0BD
:1021200030E0A90102C0440F551F8A95E2F7CA01A9
:10213000809590911B02892380931B02CBCF9BE556
:10214000980F933020F490E080E00C94C30A885AF2
:10215000873120F490E080E00C94AD0A089510924D
:1021600065028091380280FF08C085EF93E09F935D
:102170008F930E941E080F900F900895CF92DF92C8
:10218000EF92FF926B017C010E94EA0AB701A6015F
:1021900088E090E0FF90EF90DF90CF900C94CA2FF2
:1021A00080916302833018F48F5F809363026091A3
:1021B0005F027091600280916102909162020C94C2
:1021C000BE1080916302882319F0815080936302CE
:1021D00060915F0270916002809161029091620251
:1021E0000C94BE10EFE5F2E083E0808311828FEF64
:1021F00082838383148260817181828193810C94B4
:10220000BE1010921B02EAE9F1E086E0DF011D92A8
:102210008A95E9F70C942C101F93CF93DF93CDB7D9
:10222000DEB7AA970FB6F894DEBF0FBECDBF82E52A
:1022300092E02091F100DC012D93CD01B2E08A35CE
:102240009B07B9F780915302833009F471C0B8F449
:10225000813009F448C0823009F4B2C08091E800AE
:1022600083FF99C280915202909153029A3008F0F4
:1022700092C2E92FF0E0E15AFF4C0C94092F8A300A
:1022800009F48DC08B3009F470C0893039F7809122
:102290005202813219F780915602909157020097AD
:1022A00011F00297D9F68091E800877F8093E800CB
:1022B0008091E80082FF37C09091F3008091F20096
:1022C000029729F48091F1008B7F813021F4809175
:1022D000F100809346028091E8008B778093E800BC
:1022E0000E94C908BBCF80915202813A09F0B6CF53
:1022F0008091E800877F8093E8008091560290915A
:102300005702892B61F468E087E492E070E00E9454
:102310007B098091E8008B778093E8009FCF60E095
:1023200090E080E0F3CF80915A028111C1CF96CF27
:1023300080915202813A09F091CF8091560290919A
:102340005702892B09F08ACF8091E800877F80931C
:10235000E8008091E80080FFFCCF80911B01809312
:10236000F1008091E8008E77B9CF809152028132DE
:1023700009F074CF8091560290915702892B09F091
:102380006DCF8091E800877F8093E8000E94C908A4
:102390008091540280931B010E9401115FCF8091B4
:1023A0005202813209F05ACF8091E800877F8093F2
:1023B000E8000E94C90880915502809345024ECFE3
:1023C00080915202813A09F049CF8091E800877FDD
:1023D0008093E8008091E80080FFFCCF8091450267
:1023E000BECF803899F0823809F0D5C1809156026D
:1023F0008F70873008F0CFC18093E9008091EB00A7
:1024000085FB882780F91092E90006C080914F0271
:1024100090915002911182609091E800977F909383
:10242000E8008093F1001092F1008091E8008E772F
:10243000AEC1882309F49CC1823009F0ACC18091FF
:10244000540281119FC1809156028F702FEF280F87
:10245000263008F0A0C18093E9002091EB0020FF16
:1024600091C1933031F48091EB0080628093EB0056
:1024700089C19091EB0090619093EB0021E030E0F6
:1024800001C0220F8A95EAF72093EA001092EA0031
:102490008091EB008860EACF81117DC110915402D8
:1024A0001F778091E3008078812B8093E3008091F7
:1024B000E800877F8093E8000E94C9088091E800C7
:1024C00080FFFCCF8091E30080688093E30082E08E
:1024D000111183E080935A025EC18058823008F067
:1024E0005AC120915402309155022C3DE3E03E0741
:1024F000A1F583E08A838AE289834FB7F894DE01ED
:10250000139620E03EE051E2E32FF0E050935700B5
:10251000E49120FF03C0E295EF703F5FEF708E2FD4
:1025200090E0EA30C0F0C7968D939D932F5F2431E1
:1025300059F74FBF8091E800877F8093E8006AE2F7
:1025400070E0CE0101960E947B098091E8008B77B4
:102550008093E80020C1C096E7CF80915602909109
:102560005702432F55274330510509F44AC078F5E7
:102570004130510509F485C08BE790E0E9EAFDE0C0
:102580004230510509F007C12091E800277F2093D0
:10259000E80020915802309159028217930708F4FD
:1025A0009C0140E02115310509F070C041116EC059
:1025B0008091E80082FDC9CF80915A02882329F2D8
:1025C000853019F28091E80083FFF2CFBECF41320F
:1025D000510509F447C04232510509F0DCC084308E
:1025E000910508F0D8C0FC01EE0FFF1FEB57FE4F1E
:1025F0000190F081E02D8F579E4FDC018C9190E08F
:102600001DC0332721303105E9F02115310579F05E
:1026100022303105F9F02330310509F0BCC0E6E382
:10262000FEE0E4918E2F90E0E6E3FEE007C0ECE5EB
:10263000FEE0E4918E2F90E0ECE5FEE0009709F4D7
:10264000AAC0A2CFE8E4FEE0E4918E2F90E0E8E497
:10265000FEE0F4CFECE3FEE0E4918E2F90E0ECE3BB
:10266000FEE0ECCF8430910508F095C0880F991FEB
:10267000FC01E357FE4F0190F081E02D89E090E0EE
:1026800083CF82E190E0E4E2FEE07ECF80915A02C7
:10269000882309F45ACF853009F457CF8091E80098
:1026A00083FD53CF8091E80082FD82CF8091E800C6
:1026B00080FF78CF9091F3008091F20021153105D1
:1026C00019F08830910550F041E0089709F040E09A
:1026D0008091E8008E778093E80064CF4491409326
:1026E000F1003196215031090196E8CF803809F088
:1026F00052C08091E800877F8093E800809151026A
:102700008093F10092CE811146C010915402123094
:1027100008F041C08091E800877F8093E800109323
:1027200051020E94C908112311F084E005C0809174
:10273000E30087FDFACF81E080935A0242E061EC2A
:1027400081E00E94E80842E261EC84E00E94E8082F
:1027500042E261EC82E00E94E80842E260EC83E041
:102760000E94E80842E261EC85E00E94E80813C09C
:1027700080915402813079F481E0933009F080E057
:10278000809350021092E9008091E800877F809347
:10279000E8000E94C9088091E80083FF0AC0809188
:1027A000E800877F8093E8008091EB00806280934F
:1027B000EB00AA960FB6F894DEBF0FBECDBFDF9137
:1027C000CF911F910895CF93C82F1F928F938AEABC
:1027D0009BE09F938F930E941E0861E070E080E071
:1027E00090E004C0660F771F881F991FCA95D2F723
:1027F0000E943A100F900F900F900F90CF910C9471
:10280000011160915F02669570E04BE050E084E05A
:1028100091E00E94972F892B19F481E08093650243
:102820000E94FE0990932F0280932E02809138021D
:1028300080FF08C08CED93E09F938F930E941E0849
:102840000F900F9008955F926F927F928F929F9258
:10285000AF92BF92CF92DF92EF92FF920F931F93AE
:10286000CF93DF9300D000D00F92CDB7DEB7809129
:102870005F0280FD0AC0E6EAF1E011821082128256
:10288000339621E0E53BF207C1F780902902909052
:102890002A028114910409F457C080FF55C0D12C3D
:1028A000C12C66246394712C53E0552E80916602EE
:1028B00093010C2C01C0220F0A94EAF7822309F439
:1028C0003BC0F601EE0FFF1FE80DF91DE590F490F7
:1028D000E114F104C9F145E050E0B701CE010196E1
:1028E0000E948E2F09810F3F39F18A81800F99272D
:1028F000991F8630910514F085E090E05C01AA0CE8
:10290000BB1C8A0D9B1DFC01EA55FE4F5F01059D16
:10291000800111240A551E4F0A151B0520F0F5E011
:10292000EF0EF11CD8CF98014D816C818B810E94F4
:10293000F90A0D5F1F4FF0CF2FEFC21AD20A38E00D
:10294000C316D10409F0B2CF259A35B13F7D25B128
:1029500020624FB7F89486EA91E0FC015191CF01D3
:1029600068E025B9000000C057FF35B9550F0000D9
:1029700000C000C000C035B900C06A9591F7F1E011
:10298000853B9F0751F74FBF8FE594E00197F1F723
:1029900000C000000F900F900F900F900F90DF91EC
:1029A000CF911F910F91FF90EF90DF90CF90BF904C
:1029B000AF909F908F907F906F905F9008958F92CF
:1029C0009F92AF92BF92CF92DF92EF92FF920F93BE
:1029D0001F93CF93DF93FC01B280948081E08483C6
:1029E000C5EBD1E006EA11E08BE4A82E882483949D
:1029F000EE24EA94F12C2BE4C22ED12C91101DC0B0
:102A00001B821A8298014A81698188810E94F90A91
:102A100025960D5F1F4F81E0CE3CD80779F7DF91F7
:102A2000CF911F910F91FF90EF90DF90CF90BF90CB
:102A3000AF909F908F900C9423142B81222309F147
:102A400021502B833C818A2D821B311101C0822FA2
:102A500090916202899FC0011124B6010E94E12E6B
:102A60006A83211104C0332311F01C82AB8222E05F
:102A70002B1540F2809160028883809161028983E6
:102A8000C1CF0E947E2F823091400CF0BBCF82E0FC
:102A90008B15C0F40E947E2FB7010E94F52E88830B
:102AA00022E02B1590F40E947E2F20916102269542
:102AB000622F70E00E94F52E280F29831A82AB82C4
:102AC0008C82A0CF80916002EACF20916102F5CF85
:102AD000EF92FF921F93CF93DF93EC0186EAE82EEB
:102AE00081E0F82E10E08C819701409162026091A4
:102AF0006102810F0E94F90A1D5C83E0E80EF11C5F
:102B00001F3F89F70E9423149A818C8190FF08C08F
:102B10008F5F8C83DF91CF911F91FF90EF9008958D
:102B20008150F7CFBF92CF92DF92EF92FF920F9337
:102B30001F93CF93DF93FC018281DD24DA9480FD23
:102B400002C0DD24D39406EA11E0D0E0C0E025E025
:102B5000B22EF80111821082128294E0E92EF12C3B
:102B6000C12C8091A3018C0D86300CF43DC06B2DDF
:102B70000E94D32E892F082E000C990B8C179D07CD
:102B800091F4809162028E9DA0018F9D500D1124C1
:102B900055954795559547959801609161028091AB
:102BA00060020E94F90ACD0CF1E0EF1AF108C9F6B3
:102BB00021960D5F1F4FC530D10559F60E94231491
:102BC0008091A30191E0D91215C0811111C084E058
:102BD0008093A301DF91CF911F910F91FF90EF9010
:102BE000DF90CF90BF90089587FFC5CF8B5FC3CF95
:102BF0008150EECF90E00196BE010E94F52EE8CF05
:102C00000F931F93CF93DF93C6EAD1E0FE011182A9
:102C100010821282339681E0E53BF807C1F710E09D
:102C200000E08091A401082E000C990B08171907E9
:102C30008CF180911001082E000C990B80179107E0
:102C40004CF19E01409162026091610280916002AC
:102C50000E94F90A0F5F1F4F23960530110509F7EF
:102C60000E94231480910F019091A401980F9093DA
:102C7000A40120911001280F20931001121614F4C2
:102C800094301CF0819580930F01DF91CF911F91BB
:102C90000F910895198218821A82DCCFEF92FF9269
:102CA0000F931F93CF93DF93EC018C819D8101964D
:102CB000817099279D838C8386EAE82E81E0F82E27
:102CC00010E005E5812F86952C813D81820F932FA1
:102CD000911D817097014091620260916102809F15
:102CE000802D11240E94F90A1F5F83E0E80EF11C79
:102CF000153041F7DF91CF911F910F91FF90EF9029
:102D00000C942314EF92FF920F931F93CF93DF93B2
:102D10008C01C6EAD1E0F12CE12CF801948160919C
:102D2000610280916002F2E0EF16F104FCF4992355
:102D3000F9F09E01409162020E94F90A2FEFE21A17
:102D4000F20A239685E0E816F10439F70E9423146D
:102D5000F801848190E00196817099278483DF9146
:102D6000CF911F910F91FF90EF900895992309F350
:102D70009E0140E0E1CF90915F0290FF0CC0E6EA37
:102D8000F1E0818360834283339691E0E53BF9076C
:102D9000C1F70C94231408950F931F93CF93DF93DF
:102DA00000D00F92CDB7DEB78C018091A5018111C3
:102DB0000AC09E012F5F3F4F4FEF6FEF0E94F90A4D
:102DC0008A818093A501F8016481613069F0809166
:102DD000A50140E0662361F040E0623011F44091CB
:102DE000A50180E060E004C06091A50140E080E0C2
:102DF0000E94BB16F801848190E0019663E070E0C8
:102E00000E94F52E84830F900F900F90DF91CF9149
:102E10001F910F910895CF93DF9300D00F92CDB7FC
:102E2000DEB790915F0290FF0AC09E012F5F3F4F77
:102E30000E94F90A4B8169818A810E94BB160F901A
:102E40000F900F90DF91CF910895CF93DF93EC0116
:102E5000EC81F0E0E25FFB4F4491EFE5F2E062814C
:102E600081810E940B178C818F5F8C83DF91CF91C2
:102E70000895CF93DF93EC01EFE5F2E043816281A7
:102E80008C810E940B178C818F5F8C83DF91CF9197
:102E900008952F923F924F925F926F927F928F92FE
:102EA0009F92AF92BF92CF92DF92EF92FF920F93D9
:102EB0001F93CF93DF9300D000D000D0CDB7DEB703
:102EC000582E262E342E2E8390915F0290FF47C0FD
:102ED000E92FE695AE2FB0E0A45EBE4F8C918093B3
:102EE00064029E7F923009F053C09E012F5F3F4FD6
:102EF000852D0E94F90A4B8169818A810E94BB1647
:102F00005092600220926102309262028E81882388
:102F100009F49FC060915F0270916002809161022C
:102F2000909162020E94BE108091380280FF17C00B
:102F3000809162021F928F93809161021F928F9302
:102F4000809160021F928F938BE893E09F938F9301
:102F50000E941E080FB6F894DEBF0FBECDBF2696A6
:102F60000FB6F894DEBF0FBECDBFDF91CF911F919A
:102F70000F91FF90EF90DF90CF90BF90AF909F9018
:102F80008F907F906F905F904F903F902F9008951B
:102F9000823019F430906202B3CF863019F4509029
:102FA0006002AECF8930D9F3893109F0A9CFE95158
:102FB0008E2F81708C838E2F809581708D83E69506
:102FC000F0E0E952FC4FE590F490FF2486EAC82E29
:102FD00081E0D82EB12CA12C10E000E095E0692E04
:102FE000712C20EB822E23E0922EC501B3010E94AA
:102FF000E12E9C81452C91112AC0460E8091380209
:1030000080FF12C0FF92EF921F928D818F931F92CB
:103010004F921F930F939F928F920E941E080FB69C
:10302000F894DEBF0FBECDBF9601432D622D842DD7
:103030000E94F90A0F5F1F4FAE0CBF1C93E0C90E30
:10304000D11C0530110589F60E94231459CF461A68
:10305000D5CF8091380280FF82CF1F923F921F927E
:103060002F921F925F9284E693E070CF90915F025F
:1030700090FF55C0917081113CC0926090935F02A7
:103080006623F1F160915F027091600280916102AC
:10309000909162020E94BE108091380280FF0FC0A2
:1030A00080915F0286951F928F938EE992E09F93A5
:1030B0008F930E941E080F900F900F900F906091B9
:1030C0005F02669570E04BE050E084E091E00E9482
:1030D000972F892B09F10E94AF1081E08093310274
:1030E00020E04091620260916102809160020C9444
:1030F00049178B3210F09465C1CF880F982BBECF43
:103100008091380280FFDBCF80915F0286951F920D
:103110008F9380E892E0CBCF0E940114DECF089518
:10312000CF93DF93C1E0D0E001C0CC0F8A95EAF7DE
:10313000809166028C2B80936602809165028111DA
:1031400006C080915F0260E086950E9436188091EB
:103150006B02C82BC0936B020E94FE0990936A0217
:103160008093690284EF91E09093680280936702F4
:10317000DF91CF910895CF92DF92EF92FF920F935C
:103180001F936B017C01A7016627772780E141151A
:1031900051056105710519F4B701A60180E0052FFD
:1031A000162F272F3327011511052105310519F099
:1031B000885FB901A8018A019B01F4E03695279543
:1031C00017950795FA95D1F70115110521053105D8
:1031D00019F08C5FB901A8018A019B01E2E03695E4
:1031E000279517950795EA95D1F701151105210542
:1031F000310519F08E5FB901A8017695679557954D
:103200004795452B462B472B09F08F5F8130C1F046
:10321000882391F08230B1F0C0925B02D0925C02C0
:10322000E0925D02F0925E021F910F91FF90EF908D
:10323000DF90CF900C942C1080E00E949018ECCF7F
:1032400081E0FBCF82E0F9CF0F931F9360915B0287
:1032500070915C0280915D0290915E028B019C01F5
:103260000670112722273327063011052105310565
:1032700029F468601F910F910C94BB18677FFACFF7
:103280000F931F9341E050E060E070E004C0440FF2
:10329000551F661F771F8A95D2F7CB01BA0160953B
:1032A00070958095909500915B0210915C02209141
:1032B0005D0230915E0260237123822393231F916C
:1032C0000F910C94BB1890911802809589238093DC
:1032D0001802282F277071F4282F082E000C330BAA
:1032E0009217130639F08595859585950E944019AA
:1032F0001092180208950F931F9341E050E060E090
:1033000070E004C0440F551F661F771F8A95D2F7DF
:1033100080915B0290915C02A0915D02B0915E028F
:103320008A019B01082B192B2A2B3B2BC901B801C1
:103330001F910F910C94BB1880915F028160809364
:103340005F028091380280FF0DC01F9281E08F9351
:103350008AEB92E09F938F930E941E080F900F902C
:103360000F900F9080915F0261E086950C94361863
:1033700080915F02816080935F028091380280FFBC
:103380000DC01F9281E08F9381EF92E09F938F9306
:103390000E941E080F900F900F900F9080915F0277
:1033A00060E086950C94361880915F028695815076
:1033B00009F48AE261E00C94361880915F028695E8
:1033C0008F5F8B3208F081E061E00C9436189091A9
:1033D0005F0290FF07C09695981720F0961710F49B
:1033E0000C94DD1961E00C9436186CEE7EEF90E0E1
:1033F00080E00E94D62F60E082E090E00E94B82F2B
:1034000060E083E090E00E94B82F10921D021092BD
:103410001E0210921F021092200260E084E090E0F1
:103420000E94B82F60E081E290E00E94B82F60E037
:1034300085E090E00E94B82F60E086E090E00E9476
:10344000B82F6FEF87E090E00E94B82F40E050E087
:10345000BA0188E090E00E94CA2F60E08DE090E021
:103460000E94B82F40E050E0BA0188E190E00E944D
:10347000CA2F60E087E190E00E94B82F40E050E062
:10348000BA018CE190E00E94CA2F60E080E290E0F7
:103490000E94B82F0E949C1921E04FEF6FEF80E04F
:1034A0000E94491761E08EE00E94361840E050E02B
:1034B000BA018FE090E00E94CA2F40E050E0BA01CC
:1034C00083E190E00C94CA2FCF93DF938B3109F402
:1034D00008C208F0A0C18B3009F4C6C108F06EC163
:1034E000863009F4D4C148F4853009F4A2C180E0E3
:1034F0009BE00E94850780E0DAC1873009F4DAC1D9
:103500008830A9F78FE99BE00E94850787EF97E055
:103510000E94850783E090E00E94A42F1F928F9362
:1035200084EF97E09F938F930E941E0882EF97E0AD
:103530000E94850782E090E00E94A42FC82F8FEDA3
:1035400097E00E9485071F92CF938AED97E09F93A3
:103550008F930E941E0888ED97E00E9485078EECED
:1035600097E00E9485078C2F81701F928F938BECC0
:1035700097E09F938F930E941E0889EC97E00E942A
:1035800085078FEB97E00E948507C1FB882780F9AC
:103590001F928F938CEB97E09F938F930E941E084E
:1035A0008AEB97E00E9485078EEA97E00E948507E4
:1035B000C2FB882780F91F928F938BEA97E09F9335
:1035C0008F930E941E0889EA97E00E94850780EA8F
:1035D00097E00E948507C3FBCC27C0F91F92CF93C9
:1035E0008DE997E09F938F930E941E088BE997E0E7
:1035F0000E9485070E94150DEC0187E897E00E9464
:103600008507DF93CF9382E897E09F938F930E9483
:103610001E0880E897E00E94850787E697E00E94F1
:1036200085078C2F81701F928F9384E697E09F937C
:103630008F930E941E088DB79EB780960FB6F894A0
:103640009EBF0FBE8DBF82E697E00E9485078BE488
:1036500097E00E948507C1FB882780F91F928F930E
:1036600088E497E09F938F930E941E0886E497E07A
:103670000E94850784E397E00E9485078D2F817063
:103680001F928F9381E397E09F938F930E941E0870
:103690008FE297E00E9485078DE197E00E94850701
:1036A000D695D1701F92DF938AE197E09F938F9315
:1036B0000E941E0888E197E00E94850786E097E057
:1036C0000E948507C2FB882780F91F928F9383E0B1
:1036D00097E09F938F930E941E0881E097E00E94DD
:1036E00085078FEE96E00E948507C3FB882780F947
:1036F0001F928F938CEE96E09F938F930E941E08EB
:103700008AEE96E00E94850780EE96E00E9485078B
:10371000C4FB882780F91F928F938DED96E09F93CD
:103720008F930E941E088BED96E00E94850789EC1E
:1037300096E00E948507C5FB882780F91F928F932A
:1037400086EC96E09F938F930E941E0884EC96E08F
:103750000E94850788EA96E00E948507C6FB8827B5
:1037600080F91F928F9385EA96E09F938F930E9432
:103770001E088DB79EB780960FB6F8949EBF0FBEF9
:103780008DBF83EA96E00E9485078BE996E00E9450
:103790008507C7FBCC27C0F91F92CF9388E996E035
:1037A0009F938F930E941E0886E996E00E948507EA
:1037B0000F900F900F900F9081E079C0803109F445
:1037C000A8C080F48E3009F092CE90913802892FF3
:1037D0008B7F92FF84608093380282FF97C08BE2D8
:1037E0009BE08BC0863109F4A4C0893109F07FCEFB
:1037F00088E89AE00E94850783E59AE00E948507A1
:1038000081E29AE00E94850780EF99E00E94850797
:1038100085EC99E02BC08A3299F1E0F4873261F1AE
:1038200028F48E3108F463CE8D5127C0893209F017
:103830005ECE8EE69BE00E9485070E9401119FEFFD
:1038400024E38CE0915020408040E1F700C000006C
:103850000E94DE09833468F48A3308F0AAC08533F5
:1038600059F0883309F043CE87E098E00E9485073D
:10387000A3CF833409F03BCE80E00E94E3139CCFBA
:103880008EE89BE00E9485070E94F51995CF8091F4
:103890003802807F809338028AEA99E00E94850787
:1038A0008AE89BE00E94850781E080932102DF91F6
:1038B000CF91089590913802892F8E7F90FF81607B
:1038C0008093380280FF03C082E69BE0CFCF85E57E
:1038D0009BE00E94850780913802817F80933802A7
:1038E0006BCF90913802892F8D7F91FF82608093FA
:1038F000380281FF08C088E49BE00E948507809120
:1039000038028160EBCF8AE39BE0B0CF8BE19BE094
:10391000ADCF90913802892F877F93FF8860809385
:10392000380283FF03C08FE09BE0E7CF82E09BE09B
:103930009DCF82EF9AE00E9485070E94D90A1F92CC
:103940008F9388ED9AE09F938F930E941E08809139
:103950001B011F928F9381EC9AE09F938F930E949B
:103960001E08809145021F928F938EEA9AE09F93E2
:103970008F930E941E082FB7F89480913C0290917B
:103980003D02A0913E02B0913F022FBFBF93AF9383
:103990009F938F9387E99AE09F938F930E941E08CD
:1039A0008DB79EB742960FB6F8949EBF0FBE8DBFDF
:1039B00003CF895362CFCF93C82F882309F46BC0FC
:1039C0008238C1F40E94D90A81FD65C089E30E9452
:1039D000350A0E94C00F2FEF81EE94E02150804005
:1039E0009040E1F700C0000089E30E94280ACF91CF
:1039F0000C94C00F8338A1F40E94D90A80FD4BC0FB
:103A000083E50E94350A0E94C00F2FEF81EE94E0FB
:103A1000215080409040E1F700C0000083E5E5CFF1
:103A20008438A1F40E94D90A82FD35C087E40E943F
:103A3000350A0E94C00F2FEF81EE94E021508040A4
:103A40009040E1F700C0000087E4CFCF8CEF8C0FEF
:103A5000813A08F043C080912102882399F0813097
:103A6000E1F010922102EAE9F1E080EA91E021918F
:103A7000C21709F45FC08E179F07C9F78C2F0E94E9
:103A8000350AB5CF80911B02823269F78C2F0E94D4
:103A9000641A882341F3CF91089580911B028232EA
:103AA000A9F3C431B9F038F4CB3049F086E796E099
:103AB0000E94850711C0C93269F0C833B9F78AEA94
:103AC00099E00E94850788E796E00E94850781E0DB
:103AD0008170DFCF1092210280E0FACF80E28C0F5C
:103AE000883068F4C77021E030E001C0220FCA9529
:103AF000EAF780911B02822B80931B0278CFEBE5C3
:103B0000EC0FE33040F4F0E0E95BFE4F808190E0A1
:103B1000CF910C94C30AC85AC73108F0BCCFEC2F20
:103B2000F0E0EE0FFF1FE65BFE4F80819181CF91A9
:103B30000C94AD0A8C2F0E94280A0E94C00F9ECFC1
:103B4000CF93C82F0E94DB1CC93349F42FEF87EEB7
:103B500093E0215080409040E1F700C000008C2F9E
:103B6000CF910C9459100F931F93CF93DF93C62FCF
:103B7000D42F022FFC0182818823A1F06093D4010D
:103B80000E94FE099093CF018093CE01C77081E01F
:103B900001C0880FCA95EAF7DF91CF911F910F916D
:103BA0000C944F101091D401161335C08091CE01A2
:103BB0009091CF010E94EF09883C910560F5C0E229
:103BC000CD0F1D17B9F080E2810F883040F41770D7
:103BD00081E001C0880F1A95EAF70E944410C830AE
:103BE00048F481E09D2F977001C0880F9A95EAF7FD
:103BF0000E944F10802F0E94A01DC83098F4D770EB
:103C000081E001C0880FDA95EAF7DF91CF911F912B
:103C10000F910C944410C77081E001C0880FCA95C1
:103C2000EAF7F3CFDF91CF911F910F9108954F9253
:103C30005F926F927F928F929F92AF92BF92CF923C
:103C4000DF92EF92FF920F931F93CF93DF9300D0F9
:103C500000D00F92CDB7DEB77C01FC018381948147
:103C6000892B31F08081918189238F3F09F010C623
:103C70000F900F900F900F900F90DF91CF911F91A9
:103C80000F91FF90EF90DF90CF90BF90AF909F90FB
:103C90008F907F906F905F904F9008950E94D50E07
:103CA000182F682F89819A810E94760A69817A810A
:103CB000812F0E94490D8C01F7019281992309F40B
:103CC000DCC5980122513F452031310508F0AEC5D1
:103CD0008FEF93E00E94A42F02515EE6852E912C77
:103CE000882371F180911802877011F2F7018281A7
:103CF000882309F4BDCF82E00F900F900F900F90B2
:103D00000F90DF91CF911F910F91FF90EF90DF9077
:103D1000CF90BF90AF909F908F907F906F905F906B
:103D20004F900C9463198114F4E09F06D9F2C401FA
:103D30000E94A42F811101C001502FEF821A920A14
:103D40000111F1CF1C821B82662463944AE0542E39
:103D500084010F5F1F4FC4010E94A42F89831A8220
:103D6000882309F4BFCF9FEF980F933008F58A831B
:103D7000698232E0830E911CC8010E94A42F8B83BC
:103D8000882309F4AFCF8E010F5F1F4FF801208108
:103D90002223F1F2213009F043C0918182819130D8
:103DA00049F40E5F1F4F0E94A01D0F5F1F4FEECF03
:103DB0004801E9CF923029F40E5F1F4F0E94DB1CAF
:103DC000F4CF933029F40E5F1F4F0E945910EDCFAE
:103DD000943019F00F5F1F4FE8CF0E5F1F4F30E098
:103DE00020E0B8016F5F7F4FF80141818053990B4C
:103DF0008A30910550F021503109B8F28FE99FE0E7
:103E00000197F1F700C00000F6CF529EF001539EDB
:103E1000F00D11249C012E0F3F1F842F8B01E1CF49
:103E2000E22FF0E0EC59FA4F7490822F8695869538
:103E3000869590E0FC01EC5AFA4FA4902770B12CC3
:103E4000022E02C0B594A7940A94E2F7E1E0AE22F4
:103E5000BB24FC01EC5BFA4FC490D12C02C0D5947A
:103E6000C7942A95E2F7F1E0CF22DD24A114B10432
:103E700019F081EE0E94DB1CC114D10419F086EE0A
:103E80000E94DB1C872D0E94A01DCD2819F086EE14
:103E90000E945910AB2809F488CF81EE96CF81E0BB
:103EA0000E947B190E9424191DCF81E00E944019B5
:103EB000F9CF82E0F5CF053F2CE5120709F461C088
:103EC00008F45BC027E245EE66EE063F8CE5180776
:103ED00009F4CFC4992309F4ECC41092D401023040
:103EE000ECE51E0708F430C10631FCE51F0738F089
:103EF00098012A5F3C452930310508F025C10E9410
:103F0000150D909327028093260200312CE51207AD
:103F100009F4E9C008F073C008308CE5180709F40B
:103F2000D4C008F045C00430ECE51E0709F4C1C058
:103F300078F502302CE5120709F4B5C0809126020D
:103F4000826003301C4509F4B1C0609126021091D3
:103F5000270284E090E00E94B82F612F81E290E078
:103F60000E94B82F0E940111BDCE27E245EE65EEFA
:103F700080C426E241EE60EE7CC427E245EE64EEAA
:103F800078C426E241EE62EE74C428E241E0EFCF4D
:103F900006308CE5180709F494C0809126028860E9
:103FA00007301C4508F482C08091260280627EC0E2
:103FB000809126028D7F0C30ECE51E0709F476C057
:103FC00070F4809126028C600A302CE5120709F407
:103FD0006DC008F47EC0809126028E7F67C00E30CF
:103FE0008CE5180709F47BC0809126028B7F0F3087
:103FF0001C4508F45BC0809126028F7E57C00B3FA2
:10400000ECE51E0709F459C030F503312CE5120721
:1040100009F471C078F401318CE5180709F467C020
:1040200002311C4509F091CF0E94011180912602B6
:104030008F773CC00531ECE51E0709F464C008F435
:1040400078C08091270281600A3F1C4509F07DCF2E
:10405000809327027ACF0F3F3CE5130709F44FC046
:1040600088F4809127028D7F0D3F9CE5190781F32D
:10407000809127028E7F0E3F1C4550F380912702CE
:104080008360E6CF0130FDE51F0709F45BC008F44B
:1040900046C060E002301D4509F057CF8EE090E049
:1040A0000E94B82F52CF8091260281608093260211
:1040B0004CCF809126028460F9CF809127028260E4
:1040C000C7CF809126028061F1CF80912602806463
:1040D000EDCF0E940111809126028068E7CF809188
:1040E0002602877FE3CF809126028F7DDFCF8091EC
:1040F00026028F7BDBCF80912602837FD7CF8091F2
:1041000027028C7FA5CF8091260282FB992790F908
:1041100021E0922790FB82F990FB83F9C7CF809131
:104120002702982F909591708E7F892B90FB81F9B3
:104130008FCF0E94011190912602892F97FB87F95A
:104140008058B4CF61E0AACF80911B020631ECE524
:104150001E0709F0BAC38A7A91E009F490E09093BF
:10416000D501811106C089E20E94350A0E94C00F64
:10417000B9CD85E3F9CF85E3A5C38091380280FFEF
:1041800010C080915F02809581701F928F938CE1A7
:1041900096E09F938F930E941E080F900F900F90B0
:1041A0000F9080915F0280FF2EC08E7F80935F0210
:1041B00060915F0270916002809161029091620251
:1041C0000E94BE108091380280FF0FC080915F0274
:1041D00081701F928F9384EE95E09F938F930E943E
:1041E0001E080F900F900F900F900E94AF10FFEFDE
:1041F00020E732E0F15020403040E1F700C00000FD
:104200000E9423146FCD0E949C196CCD44ED59E19E
:104210006DED79E10E94E50A65CD4DED59E164ED62
:1042200079E1F8CF4DE057E266E177E2F3CF46E17E
:1042300057E26DE077E2EECF45EF56E261E077E2DC
:10424000E9CF41E057E265EF76E2E4CF4DED56E28B
:1042500069EE76E2DFCF49EE56E26DED76E2DACF37
:1042600041EE50E160ED70E1D5CF40ED50E161EEFF
:1042700070E1D0CF61E081E00E94361833CD65E077
:1042800082E00E94E7192ECD68E086E0FACF6EE06A
:1042900089E0F7CF64E18FE0F4CF67E185E1F1CF0A
:1042A00061E088E1E9CF62E289E1EBCF61E083E29E
:1042B000E3CF01308CE51807A1F00E3DECE51E07B9
:1042C00011F101151C4511F50E9401112FEF34E386
:1042D0008CE0215030408040E1F700C000000E9497
:1042E000DE0990913802892F8E7F90FF8160809344
:1042F000380280FF05C085E696E00E948507F2CC73
:1043000083E596E0FACF0E94F519ECCCF701008125
:104310001181992309F43DC0C8010E94D50ED82E01
:10432000682FC8010E94760AB8018D2D0E94560D93
:104330008C01882EF701A580A2943FE0A322D280B1
:10434000D11010921A0280911802877099F0DD2026
:1043500089F0812F807F803421F080E2800F8830C7
:1043600048F082E00E946319809118028770CC2483
:10437000C3948111C12CB12EB2942FE0B222FBE084
:10438000FB1508F440C0EB2DF0E0E759FF4C0C940E
:10439000092FC8010E944E0AD82EC6CF212F2F7098
:1043A000A22E107F19F0A29490EFA922DD20C9F06F
:1043B000AA2069F080E2800F883010F081100BC0D5
:1043C00080911B02A82AA0921B020E94C00F802F7E
:1043D0000E94DB1C18C080911A02A82AA0921A021F
:1043E000F4CF802F0E945910AA2069F0A094005E9B
:1043F000083010F081103BC080911B02A822A092CF
:104400001B020E94C00FEB2DE850FF0B349710F4F5
:104410000E94D90ACC2009F42BCC8091180280FD8F
:1044200027CCF70112828595859585950E947B1989
:10443000C7010E94171E8091180285958595859564
:104440000F900F900F900F900F90DF91CF911F91D1
:104450000F91FF90EF90DF90CF90BF90AF909F9023
:104460008F907F906F905F904F900C944019809147
:104470001A02A822A0921A02C4CF312F3F70932EA5
:10448000107F103219F0929480EF9822882071F0FA
:1044900081E0881661F1DD20B9F1AA2071F1F70100
:1044A000858180FF94CF8F70858327C0DD2091F0B8
:1044B00090911C02892F8929A11003C00E944F10DE
:1044C000A2CFE1E0AE12FACF981709F49CCF809307
:1044D0001C0299CFA11006C00E94220A892D0E94B9
:1044E000441091CFF1E0AF1609F48DCFF5CFDD2068
:1044F00031F025E02A1508F486CF892DDFCF34E08E
:104500003A1508F480CFEACFAA2041F3F9E38F12DD
:1045100086C12FEF37EE83E0215030408040E1F735
:1045200000C000007CC1812F86958695837061F064
:10453000813009F068CFC8019370D11002C090E0BB
:1045400080E00E94AD0A5FCFC8019370D11002C015
:1045500090E080E00E94C30A56CF812F837009F05B
:1045600066C0D11050CF802F829586958770880FB6
:10457000880F602F6F70462E512C712C612C082EE5
:1045800004C0440C551C661C771C0A94D2F740E00A
:1045900050E0BA0104FF0FC04FE050E060E070E06F
:1045A00004C0440F551F661F771F8A95D2F74095A8
:1045B000509560957095812F869586958370823091
:1045C00019F1D8F400911D0210911E0220911F02D2
:1045D00030912002813069F04429552966297729D4
:1045E000CB01BA0160237123822393230E943A10E6
:1045F0000ACF402A512A622A732ACB01BA016429C0
:10460000752986299729F2CF4429552966297729C2
:1046100000911D0210911E0220911F023091200274
:10462000CB01BA016027712782279327DFCF8695B8
:10463000DD2011F0812F8170882309F4E4CE802FD2
:10464000829586958770880F880F602F6F70462E31
:10465000512C712C612C082E04C0440C551C661C76
:10466000771C0A94D2F740E050E0BA0104FF0FC073
:104670004FE050E060E070E004C0440F551F661F3B
:10468000771F8A95D2F74095509560957095812F48
:10469000869586958370823019F1D8F400915B027B
:1046A00010915C0220915D0230915E02813069F0D0
:1046B0004429552966297729CB01BA016023712342
:1046C000822393230E94BB189ECE402A512A622A3D
:1046D000732ACB01BA016429752986299729F2CF5B
:1046E000442955296629772900915B0210915C02C3
:1046F00020915D0230915E02CB01BA0160277127E3
:1047000082279327DFCF1F70DD2029F0812F0E94A1
:104710007B19802FD3CE802F0E944410812F0E94BE
:10472000401971CE802F92EF891609F450C0981568
:1047300078F0E0EF8E1619F1F1EF8F1609F43FC013
:10474000DD2009F467C0A11042CE812F8F713CC0DB
:1047500023EF821609F440C034EF8312F1CFDD203D
:1047600009F44DC01F71812F0E947B19E8E01E9F44
:10477000C0011124836080931802812F25C0DD20A1
:10478000C9F084E08A1508F43ECE1F7161E070E044
:1047900080E090E004C0660F771F881F991F1A956C
:1047A000D2F700915B0210915C0220915D02309182
:1047B0005E02A4CF95E09A1508F425CEE6CF812FAE
:1047C0008F71DD2009F4ABCF0E947B191CCE812FA5
:1047D0008F71DD20C9F3A3CF60E070E0CB01DD2055
:1047E00009F470CF1F7161E070E080E090E004C0D8
:1047F000660F771F881F991F1A95D2F763CF81E044
:104800000E946319F1E0FA1508F0FDCD82E00E94E4
:104810006319F9CDAA2039F0893309F47ACE802FB3
:104820000E945910F0CD812F8F7179CF0031FFE5B3
:104830001F0709F434CB01312FE5120709F439CBF6
:10484000033F2CE5120709F494CB08F034CB083D64
:104850008CE5180709F489CB093DECE51E0709F43E
:1048600094CB073DFCE51F0709F034CB26E241EE6F
:1048700061EEC7010E94B31D35CA00313FE5130741
:1048800009F413CB01318FE51807D1F682E00ECB86
:1048900085E0DE01119601900D928A95E1F7F7010E
:1048A000228189819A812111F9C90E944E0A182F0B
:1048B000FDC906311C4509F029CD8091D501811132
:1048C0005ACC89E20E94280A51CC8272F801E25C3B
:1048D000FC45E431F10508F0ECCCEB58FF4C0C94AE
:1048E000092F1F93CF93DF938091DB01807FA9F481
:1048F0008091D801882389F080910D02D091DC014C
:104900006091D6017091D701A091D901B091DA01DF
:10491000C62FC72316E0D81304C0DF91CF911F9193
:10492000089590E0109711F0CF3F19F40196877029
:10493000F2CF189F9001199F300D1124F901E35215
:10494000FE4F41814713F2CF40814613EFCF4281A2
:104950004111ECCF438154814A1B5B0B483C51050C
:1049600028F78091DB018F7080618093DB01F90172
:10497000EE51FE4F80818F708061808386ED91E0E3
:104980000E94171EDF91CF911F910C94A30AAF9242
:10499000BF92CF92DF92EF92FF920F931F93CF932C
:1049A000DF93CDB7DEB761970FB6F894DEBF0FBEC9
:1049B000CDBF8C0185E0F801DE011D9601900D92BE
:1049C0008A95E1F7F80180819181E28026EDA22E9F
:1049D00021E0B22E6091D9017091DA016115710563
:1049E00009F43EC13091D6014091D701232F2423F1
:1049F0002F3F09F435C1C380D480F090D801F6016F
:104A0000E61BF70BFF2009F4FBC02091DB01522FBE
:104A1000507FE83CF10508F0BBC0511178C0FE2C76
:104A2000491321C038131FC0E1101DC02F70206131
:104A30002093DB01C5010E94171E8091DB01F80164
:104A400085838F2D61960FB6F894DEBF0FBECDBF64
:104A5000DF91CF911F910F91FF90EF90DF90CF905A
:104A6000BF90AF900895CD2829F0282F29232F3FFC
:104A700009F014C120E0F22FF170DF2E20FF3DC0BD
:104A800020910D024091DC0156E0241315C08D8762
:104A90009E878D859E850E94170F292F22952F7046
:104AA0002230F8F0243020F59F70F9F0F80195815C
:104AB000907FD9F4D12C1FC030E0529FF001539F5A
:104AC000F00D1124E352FE4F6181961306C0608100
:104AD000861303C06281E61210C02F5F3F4F27701C
:104AE000D4CF9F7011F0882329F3805E883010F3B3
:104AF000C8010E94171EFD2CA4CFEE2009F4A1CFFF
:104B00008091DB0181608093DB01F12C9ACF491306
:104B100012C0381310C0E1100EC0F8012583C8017F
:104B20000E94171E86E0F801A6EDB1E001900D92FB
:104B30008A95E1F786CF8D879E878D859E850E9419
:104B4000210F882309F1EE20F9F08091DB018032FA
:104B500070F02091D6013091D70138872F831986C4
:104B6000DB86CA868C87CE0107960E94171E86E0D8
:104B7000F801A6EDB1E001900D928A95E1F70E944F
:104B80007124FF24F3945DCFC8010E94171EF9CF52
:104B900051110AC086ED91E00E94171E86E0F501D2
:104BA00011928A95E9F7B1CF49130FC038130DC0A0
:104BB000E1100BC0F8012583C8010E94171E86E092
:104BC000F50111928A95E9F73CCF8D879E878D85F7
:104BD0009E850E94210F8823B9F2EE20A9F28091D0
:104BE000DB01803220F22091D6013091D7013A8347
:104BF00029831B82DD82CC828E83CE010196B5CFC4
:104C0000E83CF105E0F6FE2CEE2009F4BDCF491397
:104C100016C0381314C08091DB0180FD83CF982F1C
:104C2000907F09F47FCFF8018583903F09F477CF17
:104C3000982F907F905F8F70892B858370CF8D87A1
:104C40009E878D859E850E94210F811190CF809136
:104C5000DB0181608093DB01C8010E94171EF1CE49
:104C6000EE2009F491CF8D879E878D859E850E94C9
:104C7000210FF82E882309F487CF86E0F801A6EDEE
:104C8000B1E001900D928A95E1F78091D601909163
:104C9000D7010E94170F0E947124D3CE21E02E2548
:104CA000EACE1F93CF93DF93CDB7DEB767970FB6EA
:104CB000F894DEBF0FBECDBF4B8B5C8B6D8B7E8BB4
:104CC0008F8B1A8A198A85E0FE017396DE011D9684
:104CD00001900D928A95E1F786E0FE013D96DE0196
:104CE000179601900D928A95E1F7CE0107960E94E2
:104CF000C724811112C086E0FE013796DE011196AD
:104D000001900D928A95E1F78A859B85892B29F080
:104D10008F81988589238F3FB1F516E080910D0230
:104D20009091DC0189131DC067960FB6F894DEBF21
:104D30000FBECDBFDF91CF911F91089596E0929F56
:104D4000D001939FB00D1124A352BE4FFE013196A6
:104D500001900D929A95E1F78093DC010E94A30ADD
:104D6000DCCF819FC001112483529E4F0E94C72433
:104D70008823D1F280910D0290E0019687709927E7
:104D800080930D02CBCF2091DC0130E0C901019668
:104D90008770992740910D024817190679F60E94ED
:104DA00001111092DC0110920D0286E0E6EDF1E0B7
:104DB000DF011D928A95E9F7B0CFEFE5F2E043817C
:104DC00028E0421B08F440E021E0628181810C94DC
:104DD0004917EFE5F2E0438128E0420F08F44FEF76
:104DE00021E0628181810C944917EFE5F2E0628154
:104DF00028E0621B08F460E021E0438181810C948B
:104E00004917EFE5F2E0628128E0620F08F46FEFE6
:104E100021E0438181810C944917EFE5F2E0818123
:104E200021E04381628188500C944917EFE5F2E05C
:104E3000818121E043816281885F0C9449178091D0
:104E40005F028E7F80935F028091380280FF0CC0EA
:104E50001F921F928AE293E09F938F930E941E08F5
:104E60000F900F900F900F900E94AF102FEF80E7E0
:104E700092E0215080409040E1F700C000000C9487
:104E800023141F920F920FB60F9211242F933F936A
:104E90004F935F936F937F938F939F93AF93BF9342
:104EA000CF93DF93EF93FF93D091E900DF70809170
:104EB000EC00C82FC17080FDC0E81092E90080911D
:104EC000F000877F8093F00078940E940C1110927C
:104ED000E9008091F00088608093F000CD2BCF70C6
:104EE000C093E900FF91EF91DF91CF91BF91AF9116
:104EF0009F918F917F916F915F914F913F912F91F2
:104F00000F900FBE0F901F9018951F920F920FB623
:104F10000F9211242F933F934F935F936F937F933F
:104F20008F939F93AF93BF93EF93FF938091E10093
:104F300082FF15C08091E20082FF11C08091E100E4
:104F40008B7F8093E100209141022F5F822F62E3EB
:104F50000E94C72E992309F4CBC02093410280916F
:104F6000DA0080FF28C08091D80080FF24C08091A3
:104F7000DA008E7F8093DA008091D90080FFEEC046
:104F800080E189BD82E189BD09B400FEFDCF81E0E9
:104F900080935A0285E99DE00E9485078091420234
:104FA000811109C00E9427080E941A098091E2001D
:104FB00084608093E2008091E10080FF1BC08091BB
:104FC000E20080FF17C08091E2008E7F8093E200B4
:104FD0008091E20080618093E2008091D80080623D
:104FE0008093D80019BC85E080935A028DE99DE03A
:104FF0000E9485078091E10084FF3AC08091E20021
:1050000084FF36C080E189BD82E189BD89B5982FD2
:10501000917080FFFBCF8091D8008F7D8093D80066
:105020008091E1008F7E8093E1008091E2008F7E8D
:105030008093E2008091E20081608093E2008091A1
:105040005102882309F494C084E080935A0281EAD3
:105050009DE00E9485070E9401110E94D90A1092CA
:1050600044028091430281110E94B8190E940114E8
:105070008091E10083FF2BC08091E20083FF27C075
:105080008091E100877F8093E10082E080935A0263
:10509000109251028091E1008E7F8093E100809117
:1050A000E2008E7F8093E2008091E2008061809335
:1050B000E20042E060E080E00E94E8088091F000B9
:1050C00088608093F00085EA9DE00E948507FF914B
:1050D000EF91BF91AF919F918F917F916F915F9170
:1050E0004F913F912F910F900FBE0F901F901895E9
:1050F0001092410280914002882309F430CF8091C0
:105100005A028430C1F49091E9009F702091EC0024
:10511000822F817020FD80E8892B95E09093E90033
:105120009091EB0090FF04C09091EE0097FD08C0B5
:105130008F708093E9001092400211CF1092F1001D
:105140009091E80095FDFACF9091E80090FFF0CFA4
:105150009091E8009E779093E800EACF19BC1092F6
:105160005A0289E99DE00E9485071092420223CFEE
:105170008091E30087FD93E090935A0268CFCDB70A
:10518000DEB7AB970FB6F894DEBF0FBECDBF84B7C6
:10519000877F84BF0FB6F894A895809160008861DE
:1051A00080936000109260000FBE80E890E00FB620
:1051B000F89480936100909361000FBE85B780687A
:1051C00085BF85B7806885BF0E9427080E941A099D
:1051D0008091E20084608093E20083E49CE09093FD
:1051E000970180939601789480915A028823A1F0C8
:1051F0001091E9001F709091EC00892F817090FD53
:1052000080E8182B1092E9008091E80083FD0E944D
:105210000C111F701093E90082E084BD93E095BDEE
:105220009AEF97BD80936E0028E731E061E070E06F
:10523000D90150E040E08D918F3F91F0E82FE29549
:10524000EF70F0E0F1A08F708B0101C0000F8A9524
:10525000EAF7902F90959F2191A382A1802B82A3A2
:105260004F5F5F4F4330510531F72D5F3F4F81E076
:1052700021383807E9F61092230210923902109271
:10528000240210923A021092250210923B020E94D0
:105290008F0BEFE3FCE93197F1F700C000000E94AB
:1052A0008F0B8091390280FF0BC080E00E94A80F15
:1052B0006FEF7FEF90E080E00E94D62F0E94DE0922
:1052C00090E080E00E94B22F8C3E9E4F11F00E9431
:1052D000F51982E290E00E94A42F803209F0F6C412
:1052E00083E290E00E94A42F873009F0EFC484E2AB
:1052F00090E00E94A42F873209F0E8C490E080E09B
:105300000E94B22F8C3E9E4F11F00E94F51982E050
:1053100090E00E94A42F809338020E94150D909374
:1053200027028093260283E090E00E94A42F682F3A
:1053300070E090E080E00E943A1080912802811194
:10534000E0C08091380280FF14C081EF9CE09F9301
:105350008F930E941E08809138020F900F9080FF5B
:1053600008C08BED9CE09F938F930E941E080F90C6
:105370000F9090E080E00E94B22F8C3E9E4F81F013
:105380008091380280FF08C083EB9CE09F938F934D
:105390000E941E080F900F900E94F5190E94F210B3
:1053A00088E090E00E94AC2F60935F0270936002EF
:1053B00080936102909362026E7FD1F480913802F3
:1053C00080FF08C08AE69CE09F938F930E941E088E
:1053D0000F900F900E94F21088E090E00E94AC2F96
:1053E00060935F0270936002809361029093620207
:1053F0000E94EA0A8091380280FF76C081E59CE035
:105400009F938F930E941E08809138020F900F90F7
:1054100080FF6AC080915F0281701F928F9384E346
:105420009CE09F938F930E941E08809138020F90FA
:105430000F900F900F9080FF57C080915F0286956C
:105440001F928F9389E19CE09F938F930E941E0887
:10545000809138020F900F900F900F9080FF44C002
:10546000809160021F928F938FEF9BE09F938F93A9
:105470000E941E08809138020F900F900F900F909D
:1054800080FF32C0809161021F928F9385EE9BE076
:105490009F938F930E941E08809138020F900F9067
:1054A0000F900F9080FF20C0809162021F928F9317
:1054B0008BEC9BE09F938F930E941E088091380293
:1054C0000F900F900F900F9080FF0EC0809163029D
:1054D0001F928F938FEA9BE09F938F930E941E08E9
:1054E0000F900F900F900F901092650280915F02C5
:1054F00080FF04C060E086950E94361881E08093AA
:10550000280288E09DE090932A028093290281E19D
:1055100091E090932C0280932B0284E89DE00E94FE
:10552000850745E4442E4DE0542E66246394712C87
:1055300080915A02853059F10E948F0B25E3C22ECB
:1055400022E0D22E39E3A32E32E0B32E10E000E0A9
:105550000BA7F50131905F01F60121906F01231037
:105560007AC00F5F1F4F0330110591F78FEF8EA3A5
:105570008FA318A60E94FE098160782F9AA789A799
:105580004EA15FA168A58AA50E9451268AC080E825
:105590009DE00E94850780915A02843009F434C04E
:1055A00010922D0288E190E020E40FB6F894A895BF
:1055B000809360000FBE209360000E94AF10809126
:1055C000440281110AC081E08093440280915F020D
:1055D0008170809343020E941F2783B7817F84607C
:1055E00083BF83B7816083BF7894889583B78E7FAC
:1055F00083BF0FB6F894A89580916000886180936E
:105600006000109260000FBE80915002882309F460
:105610008FCF0E948F0B80913A0290913902892B93
:1056200090913B02892B09F483CF80E189BD82E10F
:1056300089BD09B400FEFDCF8091D8008F7D809395
:10564000D8008091E00082608093E0008091E000CB
:1056500081FDFCCF6DCF8091380281FDF7C080E0E5
:10566000FF24F3942324922D9F2109F423C189A3BD
:10567000EBA5EAA33F2081E009F480E08BA30E9420
:10568000FE098160782F9DA38CA349A15AA16BA12B
:105690008DA10E945126F801EB5CFD4F8081F82618
:1056A000F08280916502882309F441C080916402F0
:1056B000E0915F02E695E81BE0933002823009F04A
:1056C000FFC0F0E0E15CF24FE4910E2F10E085E2C4
:1056D000E82E87E1F82E80913102882389F010921C
:1056E00031020E94FE09980120953095820F931F88
:1056F00090932F0280932E02109233021092320266
:1057000080912E0290912F020E94EF09801791073D
:1057100070F0E0912E02F0912F020E0F1F1F1093D8
:105720002F0200932E028EE292E0F70109958091FC
:105730006B028823B9F18091690290916A020E94FC
:10574000EF0920916702309168022817390750F558
:1057500010E000E080916B0290E0002E02C0959571
:1057600087950A94E2F780FF16C0C301002E01C09E
:10577000880F0A94EAF780959091660289238093B6
:10578000660280916502811106C080915F0260E02F
:1057900086950E9436180F5F1F4F08301105D1F60D
:1057A00010926B020E94D90A90913402891729F154
:1057B0000E94D90A182F809334028091380282FF08
:1057C0001CC080FF1AC08AE49DE00E94850780917A
:1057D000380280FF12C01F921F935F924F920E9467
:1057E0001E08809138020F900F900F900F9080FF4D
:1057F00004C083E49DE00E94850780915A028430B2
:1058000009F096CE83E08093E9008091E80082FF62
:105810008FCE8091E80090E085FF06C00E94460888
:10582000882309F4B9C091E08091E8008B778093D8
:10583000E800992309F47CCEE981E150E33108F0D6
:1058400001C1F0E0E757FF4C0C94092F8FE19DE078
:105850000E94850799E3892E92E0992EF12CE12C84
:10586000FF92EF928AE19DE09F938F930E941E0822
:1058700087E19DE00E948507F40181914F010E941C
:105880000A0A1F928F9382E19DE09F938F930E945B
:105890001E0880E19DE00E948507FFEFEF1AFF0AD6
:1058A0000FB6F894DEBF0FBECDBF93E0E916F1044A
:1058B000B9F6D5CE8F5FFF0C833009F0D4CE51CE30
:1058C000863059F4F0E0E45CF24FE4910E2F10E0E2
:1058D000B9E3EB2EB7E1FB2EFECE893061F4E695FD
:1058E000F0E0E75CF24FE4910E2F10E0A8E6EA2E1C
:1058F000A5E1FA2EF0CE8F3061F4E695F0E0EA5C97
:10590000F24FE4910E2F10E0F2E9EF2EF5E1FF2EB9
:10591000E2CE853159F4F0E0ED5CF24FE4910E2FC8
:1059200010E0E0E0EE2EE6E1FE2ED5CE08EE13E02C
:105930005EE4E52E56E1F52E883109F4CCCE8332B3
:1059400049F4E1E3FDE0059114917CECE72E76E16A
:10595000F72EC1CE04EF11E042E8E42E46E1F42E2A
:10596000843209F4B8CE00ED17E039EDE32E39E0CA
:10597000F32E853209F0AFCE8E2F63E00E94C72E42
:10598000E92FF0E0E25DF24FE4910E2F10E06FEDB1
:10599000E62E64E1F62E9FCE00E210E0CE010196E5
:1059A0007C018091E80085FD0AC08091E8008B773A
:1059B0008093E8000E944608882399F334CF8091B1
:1059C000F100F70181937F010150110951F72BCFAD
:1059D0001A8289E08B8323C08A81823009F483C1D3
:1059E0008330A1F0813071F52FB7F89460913C02BB
:1059F00070913D0280913E0290913F022FBF0E9424
:105A00000F2F6B837C838D839E8309C08091390225
:105A10008B8380913A028C8380913B028D83CE01EF
:105A200001960E94A10884CD8A81823059F46B814D
:105A30007C818D819E810E940F2F85E290E00E94E3
:105A4000B82FEDCF8FEF8983EACF4C816B818A81AC
:105A50000E94230D9827892798279E838D83DFCF67
:105A6000ED80FE80FE24EF24FE248A810B81F6E087
:105A70000F9F8001112422E1829F000D111D11242E
:105A80008C8190E0880F991F080F191F6F2DC80196
:105A900086960E94B82F6E2DC8018796D0CF0E949F
:105AA000450FBDCF8A818138C1F060F4803809F09C
:105AB000B6CF20E04B8160916102809160020E942C
:105AC0004917ADCF8238B1F0833809F0A8CF20E074
:105AD000409162026C818B81F2CF60E08B810E94E9
