:100000000C94D4050C941B060C941B060C941B0634
:100010000C941B060C941B060C941B060C941B06DC
:100020000C941B060C941B060C94582E0C94832FD6
:100030000C9443270C941B060C941B060C941B0673
:100040000C941B060C941B060C941B060C941B06AC
:100050000C941B060C946A270C941B060C941B062C
:100060000C941B060C941B060C941B060C941B068C
:100070000C941B060C941B060C941B060C941B067C
:100080000C941B060C941B060C941B060C941B066C
:100090000C941B060C941B060C941B060C941B065C
:1000A0000C941B060C941B060C941B060631FF09CE
:1000B00074A1010975150026FF00952075088102BD
:1000C0000976150026FF00952075089102C00501EC
:1000D0000980A101850319012AB700150126B7007F
:1000E000950175108100C0050C0901A10185041955
:1000F000012AA002150126A002950175108100C0F9
:100100000660FF0961A1010962150026FF00952024
:10011000750881020963150026FF00952075089176
:1001200002C005010906A101050719E029E715002C
:100130002501950875018102950175088101050762
:10014000190029FF150026FF009506750881000596
:10015000081901290595057501910295017503910D
:1001600001C009027B00040100A0FA09040000019B
:10017000030101000921110100012240000705814E
:100180000308000A0904010002030000000921110C
:100190000100012222000705820320000107050358
:1001A00003200001090402000103000000092111DD
:1001B0000100012232000705840320000A0904031C
:1001C00000020300000009211101000122220007A2
:1001D0000585032000010705050320000112011019
:1001E00001000000085247494D0100010203011CB3
:1001F000037600690061006C003A00660036003446
:10020000006300320062003300630000000A034D07
:100210000069007800690000001203670072006541
:100220000067006F00720069006F0000000403099E
:10023000045B435D005B445D005B535D005B575DA9
:10024000005B525D000A0025303862003A2000252C
:10025000303258000A722F63203031323334353651
:10026000370A001E0F0500047F3F1F6432146432FA
:1002700014783C1E1E140A05FD377A585A000004F3
:10028000E6D6B4460200210116000000742FE5A353
:10029000E0014000C65D003D8889C65436C3174F53
:1002A000E4E2A561D15BCFC0E5D762B1E4853A7BDA
:1002B000C6F9CD093FF0D0FC985C4B72A0B121018A
:1002C000EE8AC3DFFCFD0C8313AD64DF8D451CA2F9
:1002D0006D65FB3AE30CF97AFB8A4F0207733BAD7D
:1002E0008CD0C14FAC2ECDFC6E169363FA0447B888
:1002F000E9229B033AB252B2F5FFA6DF54095151ED
:1003000093978942D446E7D04B3FFEE791C285429E
:10031000A0F021275772EC14A43330CC2957024F98
:10032000EC86E4CD94D73F0F9884E4C3031C611B93
:1003300062683B7889AD010976BB34794BFA1D5A66
:1003400045DD808A823C31868B28E7377C3214BABF
:10035000E4D83ADB065F80BE8E62682B00000000A6
:100360007373E98F1CC5E72F0001E201C102000091
:10037000E91ACC68B1C467FB020000000004595AB6
:100380005B735D004B6579626F61726420737461A9
:1003900072742E0A003F00433E2000AA00A900AA62
:1003A00000A900AA00A900AA00A900A800AE0001A7
:1003B00051AC005200AB00500051004F00C25C0233
:1003C0005301000100C95C0100C45CCA5CC35C004D
:1003D0000000000351DE5C005C015C0000000000D6
:1003E0000001000100010001000100010001000105
:1003F0000001002223252628292A2C2D2F303233D4
:100400003536383A3B3D3E4042434547494A4C4EDB
:100410005051535557595A5C5E6062646668696B07
:100420006D6F71737577797B7D7F81838587898A0D
:100430008C8E90929496989A9C9E9FA1A3A5A7A813
:10044000AAACAEAFB1B3B4B6B8B9BBBCBEBFC1C243
:10045000C3C5C6C7C9CACBCCCDCED0D1D2D2D3D4D6
:10046000D5D6D7D7D8D9D9DADADBDBDBDCDCDCDCF4
:10047000DCDDDDDDDDDCDCDCDCDCDBDBDBDADAD9C2
:10048000D9D8D7D7D6D5D4D3D2D2D1D0CECDCCCB44
:10049000CAC9C7C6C5C3C2C1BFBEBCBBB9B8B6B462
:1004A000B3B1AFAEACAAA8A7A5A3A19F9E9C9A98F2
:1004B000969492908E8C8A89878583817F7D7B79C3
:1004C000777573716F6D6B6968666462605E5C5AA4
:1004D0005957555351504E4C4A4947454342403E67
:1004E0003D3B3A3836353332302F2D2C2A292826F9
:1004F000252322FFAA7F55400001010101010101CE
:1005000001010202020202020202020303030303C8
:100510000303030404040404040405050505050697
:100520000606060607070707070808080809090955
:10053000090A0A0A0B0B0B0C0C0C0D0D0D0E0E0EFE
:100540000F0F0F101011111112121313141415158F
:1005500016161717181819191A1A1B1B1C1D1D1E01
:100560001E1F202021222223242425262627282955
:10057000292A2B2C2D2D2E2F303132323334353683
:100580003738393A3B3C3D3E3F4041424344454683
:100590004748494A4C4D4E4F50515354555658595F
:1005A0005A5B5D5E5F616264656668696B6C6D6F06
:1005B0007072737577787A7B7D7E80828385878879
:1005C0008A8C8E8F91939596989A9C9EA0A2A3A5B3
:1005D000A7A9ABADAFB1B3B5B7BABCBEC0C2C4C6B4
:1005E000C9CBCDCFD1D4D6D8DBDDDFE2E4E7E9EB70
:1005F000EEF0F3F5F8FAFDFF4C25640A000A002539
:1006000075002E6E6B726F3A20000A002575002E61
:10061000737761705F6261636B736C6173685F6253
:1006200061636B73706163653A20000A0025750091
:100630002E737761705F67726176655F6573633A89
:1006400020000A002575002E6E6F5F6775693A20DD
:10065000000A002575002E737761705F72616C74FB
:100660005F726775693A20000A002575002E73775E
:1006700061705F6C616C745F6C6775693A20000A29
:10068000002575002E737761705F7263746C5F7202
:100690006775693A20000A002575002E737761702E
:1006A0005F6C63746C5F6C6775693A20000A0025A3
:1006B00075002E636170736C6F636B5F746F5F6343
:1006C0006F6E74726F6C3A20000A002575002E73ED
:1006D0007761705F636F6E74726F6C5F636170736C
:1006E0006C6F636B3A20000A0025303258006B654E
:1006F000796D61705F636F6E6669672E7261773ABC
:1007000020000A002575002E6D6F7573653A200074
:100710000A002575002E6B6579626F6172643A205C
:10072000000A002575002E6D61747269783A200008
:100730000A002575002E656E61626C653A20000A1C
:1007400000253032580064656275675F636F6E66BE
:1007500069672E7261773A20000A0025750064658A
:100760006661756C745F6C617965723A20000A0984
:100770002D204D61676963202D0A443A0944656262
:100780007567204D65737361676520546F67676C8B
:10079000650A583A094D617472697820446562753A
:1007A00067204D6F646520546F67676C65202D204E
:1007B00053686F77206B657970726573736573200A
:1007C000696E206D617472697820677269640A4B82
:1007D0003A094B6579626F6172642044656275679E
:1007E00020546F67676C65202D2053686F77206BEE
:1007F00065797072657373207265706F72740A4DDB
:100800003A094465627567204D6F75736520546FB2
:1008100067676C650A563A0956657273696F6E0AA6
:10082000533A095374617475730A433A0941637406
:10083000697661746520436F6E736F6C65204D6FD0
:1008400064650A46312D4631303A0953776974633D
:100850006820746F204C6179657220302D39202812
:10086000463130203D204C30290A302D393A095389
:10087000776974636820746F204C617965722030E9
:100880002D390A47524156453A09537769746368CE
:1008900020746F204C6179657220302028616C745F
:1008A00065726E617465290A423A094A756D702055
:1008B000746F20426F6F746C6F616465720A455388
:1008C000433A094A756D7020746F20426F6F746CE3
:1008D0006F616465722028616C7465726E61746505
:1008E000290A453A095072696E7420454550524FA5
:1008F0004D2053657474696E67730A4253504143C7
:10090000453A09436C65617220454550524F4D0A86
:10091000000A092D20436F6E736F6C65202D0A4508
:1009200053432F713A09717569740A004743433A7A
:100930002031312E322E30204156522D4C49424327
:100940003A20322E302E30204156525F41524348D9
:100950003A20617672350A004F5054494F4E533A4F
:10096000204C5546412045585452414B455920434F
:100970004F4E534F4C4520434F4D4D414E44204C1C
:10098000544F20343039360A004255494C443A20FD
:1009900020285365702031332032303231290A004B
:1009A0005649443A203078343735322867726567C3
:1009B0006F72696F29205049443A203078344434AA
:1009C00039284D69786929205645523A20307830C7
:1009D0003030310A000A092D2056657273696F6E36
:1009E000202D0A0074696D65725F7265616433322F
:1009F00028293A202530346C580A006B6579626FDB
:100A00006172645F69646C653A2025580A006B6501
:100A100079626F6172645F70726F746F636F6C3A4A
:100A20002025580A00686F73745F6B6579626F6187
:100A300072645F6C65647328293A2025580A000A9D
:100A4000092D20537461747573202D0A003F000A2C
:100A50006D6F7573653A206F66660A000A6D6F7573
:100A600073653A206F6E0A000A6B6579626F617276
:100A7000643A206F66660A000A6B6579626F61727C
:100A8000643A206F6E0A000A6D61747269783A20C8
:100A90006F66660A000A6D61747269783A206F6E3B
:100AA0000A000A64656275673A206F66660A000A82
:100AB00064656275673A206F6E0A000A0A4A756DAE
:100AC00070696E6720746F20626F6F746C6F616401
:100AD00065722E2E2E2000433E2000436C6561720D
:100AE000696E6720454550524F4D0A006565636F3A
:100AF0006E6669673A0A000000000000000000000E
:100B000000000000000000000000000000000000E5
:100B100000000000000000000000007E0F00D4FF75
:100B2000FFFFC70000007800000000000000002A5E
:100B30002B28000000000000000000000000000062
:100B4000000029000000002C1E342021222434261D
:100B500027252E362D3738271E1F20212223242516
:100B6000263333362E37381F0405060708090A0BCB
:100B70000C0D0E0F101112131415161718191A1B3D
:100B80001C1D2F3130232D350405060708090A0BDB
:100B90000C0D0E0F101112131415161718191A1B1D
:100BA0001C1D2F3130354C0011241FBECFEFDAE071
:100BB000DEBFCDBF04B603FE27C0809188029091AE
:100BC0008902A0918A02B0918B028730904BA74096
:100BD000B04BD1F4109288021092890210928A02CE
:100BE00010928B0214BE84B7877F84BF0FB6F8942F
:100BF000A8958091600088618093600010926000E9
:100C00000FBEE0E0F8E3099522E0A0EBB1E001C0FF
:100C10001D92A838B207E1F711E0A0E0B1E0EAEBDD
:100C2000F3E602C005900D92A03BB107D9F70E94F0
:100C30008E270C945C310C940000FF93EF93E091AD
:100C4000B001F091B101309709F00995EF91FF9152
:100C50000895FC018591803011F0EFDFFBCF0895FE
:100C6000FF27E0E230E247FF0CC0419597FF09C043
:100C7000EDE26095709580959095611D711D811DC7
:100C8000911D27FF02C0219530E350E2AA27660F8D
:100C9000771F881F991FAA1FA41710F0A41B639524
:100CA0005A95A9F7AA3008F0A95FA05DAF93F39514
:100CB000611571058105910541F7ED3211F4EF934E
:100CC000F395F21718F43F93F395FBCF8F91B5DFAF
:100CD000FA95E1F70895E991F9918591803021F035
:100CE000853219F0AADFF9CF089520E0E8945591F4
:100CF0005532C1F3503311F4689455915A3348F486
:100D0000505390F3220F022E220F220F200D250F99
:100D1000F4CF0EF4219589919991533619F35337F5
:100D200029F1533559F1BC0188279927E8945C369D
:100D300021F48991999168945591543639F446EF8C
:100D40007EF077FF0DC08FEF9FEF0AC055374AE066
:100D500039F0583540E121F0523642E009F008956B
:100D6000FF93EF937DDFEF91FF91B7CFFF93EF9369
:100D7000FC0181918030B9F360DFFBCFFF93EF93EB
:100D800068DFF1CFDF93CF93CDB7DEB72596A3DF32
:100D9000CF91DF9108959C01FB019A9581159F41A8
:100DA00018F5D901AA27B270832F8170B90166277F
:100DB0007470A9014427587034FF0CC08295807F5D
:100DC000AB2B09F08062672B09F08064452B09F09A
:100DD00080680994AB2B09F08260672B09F084606E
:100DE000452BB9F38860F5CF0895829594E0899FEB
:100DF000900111242C7C869586958373282B30E0F6
:100E0000C901880F991F8A7A359527952575822BF8
:100E100008959091860292FF06C0282F28712830ED
:100E2000F9F4877F846093FF06C0282F287128314A
:100E3000F1F4877E84612091870220FF06C0382F5D
:100E400038713830D9F4877F816021FF06C0282FA0
:100E500028712831D1F4877E816194FD877E0895C1
:100E6000282F24712430F9F68B7F8860DCCF282F5F
:100E70002471243101F78B7E8861DDCF382F3171E9
:100E8000313019F78E7F8860E0CF282F2171213112
:100E900021F78E7E8861E1CF6F927F928F929F9231
:100EA000AF92BF92CF92DF92EF92FF920F931F9378
:100EB000CF93DF93B82EA62E8901E42FF0E0E850FF
:100EC000FB4F611119C0E4918E2F2E2FD80111967E
:100ED0002C931197EC9312968C93DF91CF911F91E5
:100EE0000F91FF90EF90DF90CF90BF90AF909F90C9
:100EF0008F907F906F900895E62EF12C249186E0DC
:100F0000B89E60011124CFEFD0E0C601BE010E945F
:100F1000D82F8B2D90E0880F991F35E5369FA001C3
:100F2000379F500D1124841B950B982F990F980F04
:100F3000AE014E195F09249FD001259FB00D1124E9
:100F4000EB2FA99E50011124AB2CBB24AE014A19F2
:100F50005B09249F5001259FB00C11248B2D3E016D
:100F6000691A71086E9C40016F9C900C7E9C900CDD
:100F70001124892C9924C819D9092C9FA0012D9FCF
:100F8000500D112463307105D1F09CEFC91693E028
:100F9000D90670F461307105B1F062307105B9F0B5
:100FA000FFEFCF16D10408F091CF8B2FE52F8ECF16
:100FB0006430710579F066307105B9F387CFEB2D98
:100FC000822F2B2F83CFE22F2B2D8B2F7FCF852F9F
:100FD000E22FF7CF822F252F79CF80917302982FA0
:100FE0009E7F29F481708260809373020895863514
:100FF000E8F381708465F8CF0895FA0181110994AE
:10100000FB01FDCFE0914202F0914302309721F0C5
:101010000190F081E02D099480E008952091400234
:10102000309141022817390771F090934102809363
:101030004002E0914202F0914302309721F0068095
:10104000F781E02D0994089520913E0230913F02EE
:101050002817390771F090933F0280933E02E09188
:101060004202F0914302309721F00084F185E02D97
:10107000099408958091070290910602981301C087
:1010800008958F5F8770FACF9E3F61F1E92FEE0FD1
:10109000E90FE80F8E2F877041E001C0440F8A9559
:1010A000EAF7E695E695E69585E0E89FF0011124DC
:1010B000E851FE4F30E020E070E05191DF011197E0
:1010C000CB01022E02C0969587950A94E2F78170B3
:1010D00081958527842385278C932F5F3F4F25306B
:1010E000310559F708959E3F41F1E92FEE0FE90FC1
:1010F000E80F9E2F9770E695E695E69585E0E89FC8
:10110000F0011124E851FE4F50E040E080E02191D1
:1011100030E0092E02C0369527950A94E2F7217037
:101120003327042E01C0220F0A94EAF7822B4F5F67
:101130005F4F4530510559F7089580E00895E4EB7D
:10114000F1E09191891303C0DF0111971C9291E0A6
:10115000EA3BF907B1F70895982F90958091FE0129
:1011600089238093FE0108958091F501882331F051
:101170001092F501109205021092040208959C014C
:10118000FC0132968FEF90E04191461751F08F3F6E
:1011900019F4411101C0892F9F5F9630A9F78F3F45
:1011A00009F40895280F311D87FD3A95F9016283EE
:1011B00008952FB7F8948091E3019091E401A091F4
:1011C000E501B091E6012FBF08958091FE01909155
:1011D0000002892B9091F201892B8093B2018091BA
:1011E000F501882319F10E94D90820910402309159
:1011F0000502821B930B8838934110F00E94B408BB
:101200008091B2019091F501892B8093B20120E089
:1012100084EB91E0FC013081019631112F5F31E0C8
:101220008A3B9307B9F721110E94B408E09142026A
:10123000F0914302309731F00280F381E02D82EB90
:1012400091E009940895882339F09091FE01892B4B
:101250008093FE010C94E5080895882339F090915D
:101260000002892B809300020C94E50808958823DE
:1012700021F00E94AC080C94E5080895882341F001
:101280008095909100028923809300020C94E508D8
:101290000895882329F19CEF980F913A20F40E9439
:1012A0009F080C94E50890E2980F983050F48770EE
:1012B00091E001C0990F8A95EAF7892F0E94AC0846
:1012C000F0CF9BE5980F933020F490E080E00C94F1
:1012D0000E08885A873120F490E080E00C942408AE
:1012E000089590E080E00E940E0890E080E00E9467
:1012F0002408109200021092F2010C94E508609309
:10130000F6017093F7018093F8019093F9010C9422
:1013100071096093FA017093FB018093FC01909333
:10132000FD010C9471090F931F93CF93DF9300D0AD
:1013300000D0CDB7DEB741E050E060E070E004C01F
:10134000440F551F661F771F8A95D2F78091FA01C7
:101350009091FB01A091FC01B091FD018A019B01DC
:10136000082B192B2A2B3B2B09831A832B833C83B5
:10137000C901B8010F900F900F900F90DF91CF919E
:101380001F910F910C9489090F931F93CF93DF93B3
:1013900000D000D0CDB7DEB741E050E060E070E0B3
:1013A00004C0440F551F661F771F8A95D2F74095DA
:1013B0005095609570958091FA019091FB01A091F4
:1013C000FC01B091FD018A019B01082319232A2306
:1013D0003B2309831A832B833C83C901B8010F90F7
:1013E0000F900F900F90DF91CF911F910F910C9460
:1013F0008909909101028095892380930102282F09
:10140000277039F4282F082E000C330B921713067F
:1014100021F49091870292FF0BC085958595859563
:101420000E94C4091092010210920302109202025B
:1014300008959091870292FD10C098E0899F9001D5
:101440001124622B609301020E9493090E94D90823
:10145000909303028093020208950C949309CF9312
:10146000DF9300D000D0CDB7DEB78FB7F8942091CE
:10147000E3013091E4014091E5015091E6012983B7
:101480003A834B835C838FBF69817A818B819C8196
:101490000F900F900F900F90DF91CF9108959C01C6
:1014A0004FB7F8948091E3019091E401A091E50198
:1014B000B091E6014FBF821B930B0895EF92FF920C
:1014C0000F931F93CF93DF93E3E8F2E069E771E0B6
:1014D000C0E001E010E07B0150E040E030E0D701E7
:1014E0002D917D012F3FB9F0822F82958F70805E04
:1014F00090E0DC018C9190E02F7002C0959587956B
:101500002A95E2F780FD3CC0C801042E01C0880F77
:101510000A94EAF7382B4F5F5F4F43305105F9F6D5
:101520008191831779F1DF0111973C9381E0C82BFA
:101530006D5F7F4FB2E0E638FB0769F6CC2321F1FF
:1015400081E080937F020E94D90890937E0280936D
:101550007D0280917D0290917E020E944F0A069743
:10156000B8F08091830290918402A09185028093CB
:10157000800290938102A093820210927F0208C0A1
:1015800080E0C8CF80E0D3CF80917F028111E1CF8E
:101590008C2FDF91CF911F910F91FF90EF900895C5
:1015A00087E797E7909301088093000888E19AE025
:1015B0000FB6F894A895809360000FBE90936000DA
:1015C000FFCF8091E20108950895FC01CB012091A5
:1015D000C6013091C7012617370790F0009729F40C
:1015E0002091E8002E772093E80040E0009751F426
:1015F000411108C08091E80082FF31C080E0089569
:10160000C901F3CF2091D9012223A9F12530A9F1F5
:101610002091E80023FD2DC02091E80022FDEACFB3
:101620002091E80020FFE2CF3091F3002091F200FA
:10163000009719F02830310558F041E02830310585
:1016400009F040E02091E8002E772093E800CECF0B
:1016500041914093F10001972F5F3F4FE9CF809177
:10166000D901882341F0853041F08091E80083FF63
:10167000C1CF81E0089582E0089583E008958091CC
:10168000C00187FF13C08091E80082FF06C08091EF
:10169000E8008B778093E80004C08091D901811124
:1016A000F2CF08958091D9018823D9F38091E80081
:1016B00080FFF8CF8091E8008E77ECCF2091E40096
:1016C0003091E50095E6A9012091EC00822F817010
:1016D00020FF06C08091E80080FF06C080E00895EA
:1016E0002091E80022FD1AC08091D901882389F059
:1016F000853089F08091EB0085FD0FC02091E400DA
:101700003091E50042175307F9F29150E1F684E079
:10171000089582E0089583E0089581E00895E8ED5A
:10172000F0E080818E7F80831092E2001092DA00D8
:101730001092E100A0EEB0E08C9181608C938081EA
:101740008F77808319BCA7EDB0E08C918E7F8C934E
:1017500080818F7E80831092BF010895EF92FF9267
:101760000F931F93CF937C018B010E945E0BC82FB8
:10177000811117C08091E80085FD0BC08091E800C1
:101780008E778093E8000E945E0B882399F3C82F20
:1017900008C0F70181917F018093F1000150110988
:1017A00049F78C2FCF911F910F91FF90EF900895E3
:1017B000CF932091D9012430F1F42091E900C09118
:1017C000EC00C795CC27C7952F70C22B22E0209341
:1017D000E9002091E80020FF0BC050E040E060E20B
:1017E00070E00E94AE0B8091E8008E778093E80055
:1017F000CF70C093E900CF910895CF93DF9300D0CD
:1018000000D0CDB7DEB78091FA019091FB01A09195
:10181000FC01B091FD01AC01BD0146705527662762
:1018200077279C01463051056105710591F4AD01A2
:10183000286029833A834B835C8369817A818B8119
:101840009C810F900F900F900F90DF91CF910C948F
:101850008909AD01277FEDCF982F9093E900242FC0
:10186000762F50E0891731F07091EC002091ED0057
:101870005091F00021FD06C09F5F973071F7809373
:10188000E90008953091EB003E7F3093EB003091FA
:10189000ED003D7F3093ED003091EB0031603093EF
:1018A000EB007093EC002093ED005093F00020913A
:1018B000EE0027FDE1CF0895CF92DF92EF92FF92E5
:1018C0000F931F93CF93DF93C8EDD0E088818F7E75
:1018D0008883E7EDF0E080818160808384E082BFCF
:1018E00081E08093BF0188818E7F888302EE10E0C3
:1018F000F80110821092DA0081EEC82ED12CF60188
:10190000108288818F778883888180688883888126
:101910008F7D888319BC1092D9011092BE0110925C
:10192000D6011092BD0190EEE92EF12CF7018081D5
:101930008B7F808388818160888342E060E080E0E3
:101940000E942C0CF60180818E7F8083F8018081BB
:1019500081608083808188608083F70180818E7FB1
:101960008083888180618883DF91CF911F910F915F
:10197000FF90EF90DF90CF9008958091730280FDEB
:101980000AC0EFE5F2E0118210821282339652E033
:10199000EB36F507C1F7259A35B13F7D25B12062B9
:1019A0004FB7F8948FE592E0FC010196508168E012
:1019B00025B9000000C057FF35B9550F000000C021
:1019C00000C000C035B900C06A9591F752E08B366F
:1019D000950751F74FBF8FE594E00197F1F700C0ED
:1019E000000008959091730290FF0CC0EFE5F2E0C3
:1019F000818360834283339692E0EB36F907C1F727
:101A00000C94BD0C0895CF93DF9300D00F92CDB707
:101A1000DEB79091730290FF0FC09E012F5F3F4F82
:101A20000E944C074B8169818A810F900F900F9023
:101A3000DF91CF910C94F20C0F900F900F90DF91EB
:101A4000CF910895CF93DF93EC01EC81F0E0ED505E
:101A5000FC4F4491E3E7F2E0628181810E94030D33
:101A60008C818F5F8C83DF91CF910895CF93DF932B
:101A7000EC01E3E7F2E0438162818C810E94030D77
:101A80008C818F5F8C83DF91CF9108950F931F938B
:101A9000CF93DF9300D00F92CDB7DEB78C0180914A
:101AA0005C0281110AC09E012F5F3F4F4FEF6FEF25
:101AB0000E944C078A8180935C02F8016481613046
:101AC00049F06230F1F080915C0240E0662331F031
:101AD00040E019C060915C0240E080E00E94F20C9E
:101AE000F801848190E0019663E070E00E94EC2FA1
:101AF00084830F900F900F90DF91CF911F910F91E2
:101B0000089540915C0280E060E0E8CFEF92FF92A0
:101B10001F93CF93DF93EC018FE5E82E82E0F82E40
:101B200010E08C8197014091760260917502810FDF
:101B30000E944C07115C83E0E80EF11C1C3F89F702
:101B40000E94BD0C9A818C8190FF08C08F5F8C83AE
:101B5000DF91CF911F91FF90EF9008958150F7CFC3
:101B6000CF92DF92EF92FF920F931F93CF93DF9369
:101B7000FC018281DD24DA9480FD02C0DD24D3944F
:101B8000CFE5D2E010E000E0198218821A8294E0DA
:101B9000E92EF12CC12C80915E028C0D8530CCF1A8
:101BA0008370082E000C990B8017910791F4809197
:101BB00076028E9DA0018F9D500D1124559547955D
:101BC000559547959E0160917502809174020E941F
:101BD0004C07CD0CF1E0EF1AF108E9F60F5F1F4F4B
:101BE00023960430110581F60E94BD0C80915E029F
:101BF00091E0D91212C0882399F0815080935E023F
:101C0000DF91CF911F910F91FF90EF90DF90CF90D8
:101C1000089587FFC6CF8C5FC4CF8F5F8370EECFF0
:101C200083E0ECCF0F931F93CF93DF93CFE5D2E008
:101C3000FE01118210821282339682E0EB36F807A1
:101C4000C1F710E000E080915D02082E000C990BB6
:101C5000081719078CF180911001082E000C990BC0
:101C6000801791074CF19E014091760260917502B8
:101C7000809174020E944C070F5F1F4F239604301F
:101C8000110509F70E94BD0C80910F0190915D0232
:101C9000980F90935D0220911001280F209310015E
:101CA000121614F493301CF0819580930F01DF918C
:101CB000CF911F910F910895198218821A82DCCF5B
:101CC000CF92DF92EF92FF920F931F93CF93DF9308
:101CD000CDB7DEB72E970FB6F894DEBF0FBECDBFDF
:101CE0008D879E87AD85BE8514961C91212F30E08F
:101CF000D9010E944D319B01AC010E9418316983CA
:101D00007A838B839C83E0E2F0E0E11BF109A5E597
:101D1000B0E09B01AC010E94183169877A878B87FC
:101D20009C879F01DF010E940D309B01AC010E9446
:101D300023316D837E838F8398879B01AC018981DA
:101D40009A81AB81BC81280F391F4A1F5B1F6985AF
:101D50007A858B859C850E942B31F22E422F50E094
:101D600099E29F1508F443C0A3E02A9F9001112433
:101D700035952795122F10959FE5C92E92E0D92E03
:101D800000E085E5E82EEF18802F8695F1F58E2D81
:101D90009601412F609175020E944C070F5FB3E0DE
:101DA000CB0ED11C043081F70E94BD0CED85FE8561
:101DB000948181E0992319F0903219F48FEF809388
:101DC0000E0180910E01890FAD85BE8514968C930E
:101DD0002E960FB6F894DEBF0FBECDBFDF91CF9128
:101DE0001F910F91FF90EF90DF90CF90089585E5C0
:101DF00090E0841B950B9C01220F331F280F391F85
:101E000037FFB6CF2F5F3F4FB3CF8F2DC1CFEF92AC
:101E1000FF920F931F93CF93DF93EC010FE512E036
:101E2000F12CE12C9C81609175028091740222E07A
:101E3000E216F104FCF49923F9F09801409176023E
:101E40000E944C078FEFE81AF80A0D5F1F4F24E03D
:101E5000E216F10439F70E94BD0C8C8190E00196E6
:101E6000817099278C83DF91CF911F910F91FF9003
:101E7000EF900895992309F3980140E0E1CFCF93C3
:101E8000DF93D82FC92F81E08093E9008FEF9091E5
:101E9000E800815095FD06C095ED9A95F1F7000098
:101EA0008111F5CF8091E80085FF16C050E040E039
:101EB00068E070E08D2F9C2F0E94AE0B8091E800AF
:101EC0008E778093E80088E0ED2FFC2FAAEDB1E03B
:101ED00001900D928A95E1F7DF91CF910895CF930C
:101EE000DF9300D00F92CDB7DEB79091D901943037
:101EF00011F589836A837B839093E9008FEF90913A
:101F0000E800815095FD06C095ED9A95F1F7000027
:101F10008111F5CF8091E80085FF0DC050E040E0D1
:101F200063E070E0CE0101960E94AE0B8091E80064
:101F30008E778093E8000F900F900F90DF91CF91F4
:101F40000895BC0183E00C946F0FBC0184E00C94F5
:101F50006F0F9FB7F8941092D8019FBF9091D9014D
:101F6000943009F047C02091E9009091EC009795DA
:101F7000992797952F70922B25E02093E9002091C7
:101F8000EB0020FF34C02091EE0027FF30C02091ED
:101F9000D701222321F02091E80025FF28C01092CC
:101FA000D70126E03091E80035FF14C08093F1009E
:101FB0008091E80085FD27C08091E80080FFFCCF7C
:101FC0008091E8008E778093E8009F709093E900FD
:101FD00080E008953091D901343049F43091EB001C
:101FE00035FD05C0215041F481E08093D7019F70F9
:101FF0009093E9008FEF0895EFE9FFE03197F1F753
:1020000000C00000CFCF8FB7F89421E02093D80113
:102010008FBFDBCF0F931F93CF93DF93843030F5C7
:10202000633020F5433010F5C42FD0E0CC0FDD1F16
:1020300026E0629FC00DD11D112432E1839FC00DA7
:10204000D11D1124CE0187960E94B130082F10E0D7
:10205000102F0027CE0188960E94B1309801282BBE
:10206000C901DF91CF911F910F91089590E080E019
:10207000F8CF462F672F2091440230914502232B41
:1020800089F47E3F39F44E3F69F480914602909185
:1020900047020895843030F4733020F4433010F454
:1020A0000C940A1090E080E00895CF93DF930E9493
:1020B0003910EC01803E910509F45EC048F581338A
:1020C000910509F4A1C088F48932910509F495C0FD
:1020D0008A9709F4A0C0C130D10529F1CE01049737
:1020E000813A910508F054C01EC089339105E9F189
:1020F00082389105D1F1C59709F478C0C83AD10565
:1021000008F090C0C53AD10530F3A497D0640BC055
:10211000843E910509F44FC050F4823E9105D9F1F7
:10212000833E9105E9F1CE01DF91CF910895863E7E
:10213000910509F44BC0873E910509F44CC0811507
:1021400023E5920708F08BC0811532E5930708F06C
:10215000FDC0C11580E5D80708F077C0C11520E49F
:10216000D20760F2DF70D06ADECF80918602837082
:10217000D1F2C0EED0E0D7CF8091860280FD11C1B0
:102180009091870290FFCFCFC3EED0E084FFCBCFFA
:10219000D0E0C0E0C8CF8091860282FDF5CFC3CFEA
:1021A0008091860282FD00C19091870290FDE1CF6F
:1021B00084FFB9CFEDCF8091870281FFB4CF8091AA
:1021C0008602C7EED0E084FDE3CFADCF80918602DA
:1021D00083FDF7CFA8CF8091860283FDE8C0909160
:1021E000870291FFE5CFC4EED0E09DCF80918602BB
:1021F00085FF99CFC9E2D0E096CF8091860285FF16
:1022000092CFC5E3D0E08FCF8091860286FF8BCF3F
:10221000CAE2D0E088CF8091860286FF84CFC1E3F6
:10222000D0E081CFCF3BD10508F468C0C83ED105CE
:1022300028F4C03ED10508F4ABCF75CFCE019A95F6
:1022400081159F4108F0A4CF6ECFC11581E5D80755
:1022500008F45FC0DC2FCC27C16FD06A64CF811532
:1022600029E59207A0F5811538E5930708F086C0A7
:10227000C11585E5D807C8F4C11524E5D20708F0D3
:1022800078C09E012370332781E090E002C0880F60
:10229000991F2A95E2F7C695C69530E2C39FE001E3
:1022A0001124C82BD92BDA683ECFCE0195558F3F2C
:1022B000910511F008F06CCF8C2F0E940907C82FF0
:1022C000D0E0DC2FCC27CC27DF71D0622CCFC1151A
:1022D0008AE5D80708F457C0CE0190568115904280
:1022E00008F056CF8D2F8F710E94090790E0982F2C
:1022F000882788279F718C2BEC01E7CFC85AD0E044
:10230000CC0FDD1FCE57DE4F0990D881C02DD4648D
:102310000ACF9E0174E0369527957A95E1F72370F0
:102320008C2F86958695837030E2839FC00111249F
:10233000922BC37021E030E002C0220F331FCA95F8
:10234000E2F7822B932BEC01DC68EDCE9C0123702D
:10235000332781E090E002C0880F991F2A95E2F7A9
:10236000C695C69520E2C29FE0011124C82BD92B47
:10237000EBCFDC2FCC27C46FD06AD5CED82FCC279B
:10238000C06FD06AD0CE8C2F8F700E94090734E0C6
:10239000D695C7953A95E1F7CF709C2FEC01D0699F
:1023A000C2CEC9E3D0E0BFCEC2EED0E0BCCEC6EE16
:1023B000D0E0B9CEBF92CF92DF92EF92FF920F930F
:1023C0001F93CF93DF938C01C090FA01D090FB0153
:1023D000E090FC01F090FD018091F6019091F701F1
:1023E000A091F801B091F901C82AD92AEA2AFB2A5A
:1023F000CFE1D0E0BC2ED701C6010C2E04C0B695AB
:10240000A795979587950A94D2F780FD0EC02197DE
:1024100088F7B12C8B2DDF91CF911F910F91FF90F9
:10242000EF90DF90CF90BF900895B8018C2F0E945D
:102430005510019761F3EECF0F931F93CF93FC01DB
:10244000828100811181882389F0662379F0C80197
:102450000E94DA11C82F682FC8010E944408B801F1
:102460008C2FCF911F910F910C943910C8010E94AD
:102470007308C82FF4CFCF93DF93D82FC92F0E94B2
:10248000DA116D2F7C2FDF91CF910C9455100E94A3
:102490003B12282F892F8F70392F32953F70903C37
:1024A00080F43A30B0F4343020F4323090F480E0EC
:1024B00008953630E1F781E0283E88F0213FB9F7F2
:1024C0000EC03C3011F03F3091F786958695869589
:1024D000089581E0203F39F018F4283E40F7089530
:1024E000243F29F7FCCF08950F931F93CF93DF93D9
:1024F000843000F561111EC024E0829FE0011124A8
:1025000050E0440F551FC40FD51FC159DF4FCE01F6
:102510000E94B130082F10E0102F0027CE01019645
:102520000E94B1309801282BC901DF91CF911F91F2
:102530000F91089590E080E0F8CFCF9384E090E091
:102540000E94B130C82F82E290E00E94B130982FF3
:102550008C2FCF9108950F931F93CF93DF938B010F
:10256000D82FC92F0E94ED07A8016D2F7C2F88E07E
:1025700090E0DF91CF911F910F910C94D730E3E75A
:10258000F2E083E0808311828FEF82838383148261
:1025900063E070E08FEF9FEF0C94AB12CF93DF936B
:1025A00000D000D0CDB7DEB780917702833018F429
:1025B0008F5F809377028091730290917402A09153
:1025C0007502B091760289839A83AB83BC83BC0188
:1025D000CD010F900F900F900F90DF91CF910C9441
:1025E000AB12CF93DF9300D000D0CDB7DEB7809190
:1025F0007702882319F081508093770280917302CB
:1026000090917402A0917502B091760289839A83A9
:10261000AB83BC83BC01CD010F900F900F900F9046
:10262000DF91CF910C94AB127F928F929F92AF92D9
:10263000BF92CF92DF92EF92FF920F931F93CF93AF
:10264000DF9300D000D000D00F92CDB7DEB7182FA7
:10265000F62E042FE22E9091730290FF80C0E92F96
:10266000E695AE2FB0E0A25BBE4F8C9180936B02DB
:102670009E7F9230B9F59E012F5F3F4F812F0E94C0
:102680004C074B8169818A810E94F20C109374027D
:10269000F092750200937602EE2009F460C08091FA
:1026A000730290917402A0917502B09176028C83AE
:1026B0009D83AE83BF83BC01CD0127960FB6F894EE
:1026C000DEBF0FBECDBFDF91CF911F910F91FF9065
:1026D000EF90DF90CF90BF90AF909F908F907F90C2
:1026E0000C94AB12823019F400917602CFCF863071
:1026F00019F410917402CACF8930D9F3893131F6B7
:10270000E9512E2F2170722EE695F0E0ED50FB4F2F
:102710008590949099243FE5C32E32E0D32EB12CBE
:10272000A12CC5019695879596958795711013C034
:10273000810F9601402F6F2D0E944C07A80CB91CE9
:10274000B3E0CB0ED11C2BE6C21622E0D20649F72D
:102750000E94BD0C9BCFA12FA81B8A2FEACF2796E2
:102760000FB6F894DEBF0FBECDBFDF91CF911F91A2
:102770000F91FF90EF90DF90CF90BF90AF909F9020
:102780008F907F900895E3E7F2E0818121E043811B
:102790006281885F0C941413E3E7F2E0818121E009
:1027A0004381628188500C941413E3E7F2E0628164
:1027B00028E0620F08F46FEF21E0438181810C94DF
:1027C0001413E3E7F2E0628128E0621B08F460E0A2
:1027D00021E0438181810C941413E3E7F2E043810B
:1027E00028E0420F08F44FEF21E0628181810C94D0
:1027F0001413E3E7F2E0438128E0421B08F440E0D1
:1028000021E0628181810C941413609173026695BA
:1028100070E04BE050E081E191E00E949D30892B17
:1028200019F481E080936C020E94D90890936E02A3
:1028300080936D020895CF93DF9300D000D0CDB781
:10284000DEB79091730290FF45C08823E1F18B328F
:10285000E0F58F77880F909173029170892B8093A8
:102860007302662381F08091730290917402A091AB
:102870007502B091760289839A83AB83BC83BC01D5
:10288000CD010E94AB1260917302669570E04BE03F
:1028900050E081E191E00E949D30892BC1F01092BF
:1028A0006C0281E08093700220E04091760260919A
:1028B0007502809174020F900F900F900F90DF912E
:1028C000CF910C94141381E0C5CF8AE2C3CF0E944C
:1028D0000514E7CF0F900F900F900F90DF91CF91DD
:1028E00008958091730286958F5F8B3208F081E0A6
:1028F00061E00C941B149091730296958FEF890FF1
:10290000913009F48AE261E00C941B1461E00C94AC
:102910001B149091730290FF07C09695981720F0B2
:10292000961710F40C9471140C9486144F925F92C5
:102930006F927F928F929F92AF92BF92CF92DF92CF
:10294000EF92FF920F931F93CF93DF93FC0162806E
:10295000448081E08483E3EFF3E07490E2E7F4E005
:10296000E491C8E4D2E09FE5E92E92E0F92E2CE54F
:10297000C22E22E0D22E32E0A32EBB24B3948824B0
:102980008A94912C55245A94E7190E2F10E082E076
:10299000861530F080917402888380917502898356
:1029A000411021C01B821A8297014A816981888166
:1029B0000E944C07259683E0E80EF11CCC16DD063C
:1029C00031F7DF91CF911F910F91FF90EF90DF9042
:1029D000CF90BF90AF909F908F907F906F905F90BF
:1029E0004F900C94BD0C8B818823E9F081508B8330
:1029F000859DC00111246C8170E00E94D82FFB01DD
:102A0000FF27ED50FC4F8491E82FE719E59DC001A9
:102A10001124B8010E94D82F80917602689FB001DE
:102A200011247A83C1CF0E948430AC019091760248
:102A3000969591589A9D90019B9D300D1124232FBE
:102A40003327421753070CF0AFCF82E0861588F486
:102A50000E948430B4010E94EC2F88830E9484304D
:102A6000209175022695622F70E00E94EC2F280FAE
:102A700029831A8280917602893C20F088EC8C832D
:102A80008B8392CF8431D8F784E1F9CF0F931F93D2
:102A9000CF93DF938901843048F5633038F54330B4
:102AA00028F521153C4531F42091790230917A02C4
:102AB000232BE1F0C42FD0E0CC0FDD1F96E0699FFF
:102AC000C00DD11D112492E1899FC00DD11D11248B
:102AD000612FCE0187960E94C530602FCE01889667
:102AE000DF91CF911F910F910C94C530DF91CF9161
:102AF0001F910F9108950F931F93CF93DF93890137
:102B0000843028F5611123C0423008F521153C4579
:102B100031F42091790230917A02232BC1F094E0B4
:102B2000899FE001112450E0440F551FC40FD51FA9
:102B3000C159DF4F612FCE010E94C530602FCE01F9
:102B40000196DF91CF911F910F910C94C530DF91C9
:102B5000CF911F910F9108957F928F929F92AF9284
:102B6000BF92CF92DF92EF92FF920F931F93CF937A
:102B7000DF93C0907902D0907A0281E090E0909348
:102B80007A02809379020BE913E0F12CE12CC0E08A
:102B90004701D0E015C0F50125913491472D6D2FE7
:102BA0008C2F0E94461522E0A20EB11C739433E0D4
:102BB0007312F1CF83E0880E911CDF5FD33049F0B0
:102BC000C401880F991F9C0125553C4F5901712C58
:102BD000E2CFF8012591349140E060E08C2F0E9413
:102BE0007B15F80132962591349141E060E08C2FFD
:102BF0000E947B150C5F1F4FCF5F39E0E30EF11C85
:102C0000C43009F0C5CFD0927A02C0927902DF9128
:102C1000CF911F910F91FF90EF90DF90CF90BF90D9
:102C2000AF909F908F907F900895CF93DF93CFE7E1
:102C3000D0E060E0CE010E94C5302196C11584E04D
:102C4000D807B9F7DF91CF910895CF93C09187024C
:102C5000C2FB992790F9981781F080FBC2F9C093C5
:102C600087026091860284E090E00E94C5306C2F5C
:102C700082E290E0CF910C94C530CF9108951092EC
:102C8000FE01E4EBF1E086E0DF011D928A95E9F7B1
:102C90000C947109CF93DF9300D000D0CDB7DEB78D
:102CA00089831F928F9388EF95E09F938F930E9463
:102CB000C20681E090E0A0E0B0E09C01AD01098097
:102CC00004C0220F331F441F551F0A94D2F72983D3
:102CD0003A834B835C83CA01B9010E947F090F903C
:102CE0000F900F900F900F900F900F900F90DF911B
:102CF000CF910C943F161F93CF93DF93CDB7DEB7E0
:102D0000AA970FB6F894DEBF0FBECDBF80EC91E05E
:102D1000FC0101962091F100208321E0883C92077C
:102D2000B9F78091C101893009F456C0C8F48230E6
:102D300009F4B2C0833009F481C0813071F180910F
:102D4000E80083FF94C28091C0019091C1019A3044
:102D500008F08DC2E92FF0E0E25AFE4C0C940030EE
:102D60008A3009F488C08B3051F78091C0018132DC
:102D700031F78091C4019091C501892B01F78091B1
:102D8000E800877F8093E8000E943F0B8091C2019A
:102D900080931C010E943F16D2CF8091C001813ADE
:102DA00071F68091E800877F8093E8008091C401EC
:102DB0009091C501892B61F468E08AED91E070E0A3
:102DC0000E94E50A8091E8008B778093E800B7CFF6
:102DD00060E090E080E0F3CF8091C001813209F0A3
:102DE000AECF8091C4019091C5018D7F892B09F0F0
:102DF000A6CF8091E800877F8093E8008091E8006B
:102E000082FF17C09091F3008091F200029729F49D
:102E10008091F1008B7F813021F48091F1008093CB
:102E2000E2018091E8008B778093E8000E943F0BDD
:102E300086CF8091D9018111E1CF81CF8091C001EE
:102E4000813A09F07CCF8091C4019091C501892B12
:102E500009F075CF8091E800877F8093E80080912A
:102E6000E80080FFFCCF80911C018093F1008091ED
:102E7000E8008E77D9CF8091C001813209F05FCF11
:102E80008091E800877F8093E8000E943F0B80914B
:102E9000C3018093780253CF8091C001813A09F039
:102EA0004ECF8091E800877F8093E8008091E80012
:102EB00080FFFCCF80917802D8CF803899F082389B
:102EC00009F0D5C18091C4018F70873008F0CFC15F
:102ED0008093E9008091EB0085FB882780F91092B0
:102EE000E90006C08091BD019091D60191118260E8
:102EF0009091E800977F9093E8008093F100109202
:102F0000F1008091E8008E77AEC1882309F49CC15E
:102F1000823009F0ACC18091C20181119FC18091C2
:102F2000C4018F702FEF280F263008F0A0C18093C6
:102F3000E9002091EB0020FF91C1933031F48091A2
:102F4000EB0080628093EB0089C19091EB0090616F
:102F50009093EB0021E030E001C0220F8A95EAF760
:102F60002093EA001092EA008091EB008860EACF9B
:102F700081117DC11091C2011F778091E30080789B
:102F8000812B8093E3008091E800877F8093E800A5
:102F90000E943F0B8091E80080FFFCCF8091E3000E
:102FA00080688093E30082E0111183E08093D9016F
:102FB0005EC18058823008F05AC14091C2015091E0
:102FC000C3014C3D83E0580799F583E08A838AE288
:102FD00089834FB7F894DE01139620E03EE051E27A
:102FE000E32FF0E050935700849120FF03C08295B7
:102FF0008F703F5F8F708A30C8F0895C90E08D934E
:103000009D932F5F243161F74FBF8091E800877F48
:103010008093E8006AE270E0CE0101960E94E50A22
:103020008091E8008B778093E80021C1805DE6CF36
:103030008091C4019091C501252F3327233031059C
:1030400009F44AC078F52130310509F486C08BE7D0
:1030500090E0E2E6F1E02230310509F008C120916C
:10306000E800277F2093E8002091C6013091C70136
:103070008217930708F49C0140E02115310509F0FF
:1030800071C041116FC08091E80082FDC9CF80916D
:10309000D901882329F2853019F28091E80083FF55
:1030A000F2CFBECF2132310509F448C022323105BA
:1030B00009F0DDC08430910508F0D9C0FC01EE0FA5
:1030C000FF1FE25DFE4F0190F081E02D865D9E4F77
:1030D000DC018C9190E026C0CA019927423031F181
:1030E0008330910568F40097B1F0019709F0BFC0F3
:1030F000E9E1F2E0E4918E2F90E0E9E1F2E012C024
:10310000039709F0B4C0EFEEF1E0E4918E2F90E068
:10311000EFEEF1E007C0EDE2F2E0E4918E2F90E0F7
:10312000EDE2F2E0009709F4A2C099CFEDE0F2E001
:10313000E4918E2F90E0EDE0F2E0F4CF8430910541
:1031400008F095C0880F991FFC01EA5CFE4F0190C2
:10315000F081E02D89E090E082CF82E190E0EDED1A
:10316000F1E07DCF8091D901882309F459CF8530D2
:1031700009F456CF8091E80083FD52CF8091E8009A
:1031800082FD81CF8091E80080FF77CF9091F3009E
:103190008091F2002115310519F08830910550F029
:1031A00041E0089709F040E08091E8008E77809335
:1031B000E80063CF44914093F100319621503109EA
:1031C0000196E8CF803809F052C08091E800877FEF
:1031D0008093E8008091BE018093F10092CE81112E
:1031E00046C01091C201123008F041C08091E80041
:1031F000877F8093E8001093BE010E943F0B11234C
:1032000011F084E005C08091E30087FDFACF81E0F2
:103210008093D90142E061EC81E00E942C0C42E2F3
:1032200061EC84E00E942C0C42E261EC82E00E949E
:103230002C0C42E260EC83E00E942C0C42E261EC38
:1032400085E00E942C0C13C08091C201813079F47A
:1032500081E0933009F080E08093D6011092E9007C
:103260008091E800877F8093E8000E943F0B809167
:10327000E80083FF0AC08091E800877F8093E80020
:103280008091EB0080628093EB00AA960FB6F894D1
:10329000DEBF0FBECDBFDF91CF911F9108956AEEC3
:1032A0007EEF90E080E00E94E33060E082E090E01A
:1032B0000E94C53060E083E090E00E94C53010922B
:1032C000F6011092F7011092F8011092F90160E0F6
:1032D00084E090E00E94C53060E082E290E00E94CD
:1032E000C53060E085E090E00E94C53060E086E097
:1032F00090E00E94C5306FEF87E090E00E94C530FB
:1033000040E050E0BA0188E090E00E94D73060E0F1
:103310008DE090E00E94C53040E050E0BA0188E1C5
:1033200090E00E94D73060E087E190E00E94C530D5
:1033300040E050E0BA018CE190E00E94D73070E0AC
:1033400060E080E290E00E94E33040E050E0BA01AB
:1033500088E190E00E94D730E3E7F2E0808181606D
:10336000808386950E94861421E04FEF6FEF80E006
:103370000E9414138EE00E94861440E050E0BA01CF
:103380008FE090E00E94D73040E050E0BA0183E146
:1033900090E00C94D730CF93DF938B3258F4853084
:1033A00098F0EBEFE80FE63278F4F0E0E859FE4CE5
:1033B0000C940030833470F48A3308F039C28533BA
:1033C00059F0883309F46FC18DE49AE00E94290610
:1033D00080E07EC18334C1F780E00E944A165AC162
:1033E0008CEE9AE00E9429068EE597E00E9429065D
:1033F00083E090E00E94B1301F928F938BE597E0BD
:103400009F938F930E94C20689E597E00E94290648
:1034100082E090E00E94B130C82F86E497E00E94DD
:1034200029061F92CF9381E497E09F938F930E9488
:10343000C2068FE397E00E94290685E397E00E9489
:1034400029068C2F81701F928F9382E397E09F93C0
:103450008F930E94C20680E397E00E94290686E2CD
:1034600097E00E942906C1FB882780F91F928F935D
:1034700083E297E09F938F930E94C20681E297E0D8
:103480000E94290685E197E00E942906C2FB882751
:1034900080F91F928F9382E197E09F938F930E9410
:1034A000C20680E197E00E94290687E097E00E942B
:1034B0002906C3FBCC27C0F91F92CF9384E097E085
:1034C0009F938F930E94C20682E097E00E94290694
:1034D0000E949D12EC018EEE96E00E942906DF9379
:1034E000CF9389EE96E09F938F930E94C20687EE5A
:1034F00096E00E9429068EEC96E00E9429068C2F09
:1035000081701F928F938BEC96E09F938F930E9414
:10351000C2068DB79EB780960FB6F8949EBF0FBEB9
:103520008DBF89EC96E00E94290682EB96E00E940E
:103530002906C1FB882780F91F928F938FEA96E0B6
:103540009F938F930E94C2068DEA96E00E942906FF
:103550008BE996E00E9429068D2F81701F928F9330
:1035600088E996E09F938F930E94C20686E996E0D1
:103570000E94290684E896E00E942906D695D1701B
:103580001F92DF9381E896E09F938F930E94C2067B
:103590008FE796E00E9429068DE696E00E942906B4
:1035A000C2FB882780F91F928F938AE696E09F934B
:1035B0008F930E94C20688E696E00E94290686E55F
:1035C00096E00E942906C3FB882780F91F928F93FB
:1035D00083E596E09F938F930E94C20681E596E073
:1035E0000E94290687E496E00E942906C4FB8827EA
:1035F00080F91F928F9384E496E09F938F930E94AB
:10360000C20682E496E00E94290680E396E00E94CA
:103610002906C5FB882780F91F928F938DE296E0DB
:103620009F938F930E94C2068BE296E00E94290628
:103630008FE096E00E942906C6FB882780F91F923A
:103640008F938CE096E09F938F930E94C2068DB774
:103650009EB780960FB6F8949EBF0FBE8DBF8AE0CE
:1036600096E00E94290682E096E00E942906C7FBA8
:10367000CC27C0F91F92CF938FEF95E09F938F9344
:103680000E94C2068DEF95E00E9429060F900F90D0
:103690000F900F9081E01CC08BED9AE00E942906EC
:1036A0000E944F19F7CF8EE697E00E942906F2CFCD
:1036B00080917C02807F80937C0281E199E00E946E
:1036C000290687ED9AE00E94290681E080937B021B
:1036D000DF91CF9108958BEB9AE00E9429068091AB
:1036E000790290917A02892BA9F20E943F169FEFEE
:1036F00024E38CE0915020408040E1F700C00000BE
:103700000E94D00A90917C02892F8E7F90FF816069
:1037100080937C0280FF03C08FEA9AE0C6CF82EAE2
:103720009AE00E94290680917C02817F80937C022E
:10373000B1CF90917C02892F8D7F91FF8260809321
:103740007C0281FF08C085E99AE00E9429068091E9
:103750007C028160EBCF87E89AE0A7CF90917C0252
:10376000892F8B7F92FF846080937C0282FF03C04D
:1037700088E79AE0EACF88E69AE097CF90917C02BA
:10378000892F877F93FF886080937C0283FF03C02B
:103790008CE59AE0DACF8FE49AE087CF85ED99E067
:1037A0000E94290680EA99E00E94290689E899E0AA
:1037B0000E94290688E599E00E9429068CE299E09A
:1037C00074CF8FE39AE00E9429060E9402081F929C
:1037D0008F9385E29AE09F938F930E94C206809117
:1037E0001C011F928F938EE09AE09F938F930E940B
:1037F000C206809178021F928F938BEF99E09F937E
:103800008F930E94C2060E942F0A9F938F937F93EB
:103810006F9384EE99E09F938F930E94C2068DB7B9
:103820009EB742960FB6F8949EBF0FBE8DBF32CFA3
:103830008953D3CD8D51D1CDCF93C82F882341F15A
:103840008CEF8C0F813A08F046C080917B02882370
:10385000B1F08130F9F010927B02E4EBF1E081915C
:10386000C81709F463C021E0EA3BF207C1F76C2FE7
:1038700082EB91E00E94BF08CF910C94E508809103
:10388000FE01823251F78C2F0E94CB19882329F335
:10389000CF9108958091FE018232A9F3C932B9F027
:1038A00048F4CB3049F0C43191F085E993E00E94AF
:1038B00029060FC0C833C9F781E199E00E942906A3
:1038C00087E993E00E94290681E08170DFCF1092A2
:1038D0007B0280E0FACF80E28C0F883068F4C770FA
:1038E00021E030E001C0220FCA95EAF78091FE0185
:1038F000822B8093FE01C0CF8BE58C0F833038F490
:103900002C2F2452330BC901CF910C940E08C85AA6
:10391000C73108F0BDCFEC2FF0E0EE0FFF1FEE57E0
:10392000FE4F80819181CF910C9424088C2F0E94AE
:103930009F080E94E5089BCF0F931F93CF93C82F3A
:103940000AE010E0893311F400E510E08C2F0E94AA
:103950001C1C8FE99FE00197F1F700C000000150A7
:103960001109B9F78C2FCF911F910F910C94490930
:10397000AF92BF92CF92DF92EF92FF920F931F937D
:10398000CF93DF93EC018AE0A82E8881882309F485
:103990008EC08130D9F599818A81913021F42296A7
:1039A0000E949C1C05C0923029F422960E941C1C87
:1039B0002196EBCF933021F422960E944909F8CF4B
:1039C000943011F02196F4CF229620E030E0AE0141
:1039D0004F5F5F4F8053990B8A30910560F021153E
:1039E000310531F38FE99FE00197F1F700C0000046
:1039F00021503109F4CFA29EB001A39E700D112475
:103A00009C01260F371F8981EA01E1CFE82FF0E002
:103A1000E95DF44FB490282F26952695269530E041
:103A2000F901E95EF44FE4908770F12C082E02C092
:103A3000F594E7940A94E2F791E0E922FF24F90172
:103A4000E95FF44FC490D12C082E02C0D594C794DE
:103A50000A94E2F791E0C922DD24F901E950F54F1B
:103A6000049110E002C0159507958A95E2F7017060
:103A70001127E114F10419F081EE0E941C1CC114FD
:103A8000D10419F086EE0E941C1C8B2D0E949C1CF8
:103A9000CD2819F086EE0E944909EF2819F081EE31
:103AA0000E944909012B09F483CF8CE279CFDF9181
:103AB000CF911F910F91FF90EF90DF90CF90BF902B
:103AC000AF900895FF920F931F93CF93DF93C62F6C
:103AD000D42F122F8823A9F06093F3010E94D908F4
:103AE0009093BB018093BA01C77081E001C0880F39
:103AF000CA95EAF7DF91CF911F910F91FF900C9437
:103B000023098091F301681334C08091BA01909128
:103B1000BB010E944F0A883C910558F500E20D0F49
:103B2000CD17A9F0C770FF24F3948F2D01C0880F23
:103B3000CA95EAF70E943709083048F48D2F87703C
:103B400001C0FF0C8A95EAF78F2D0E942309812F6F
:103B50000E949C1C0830A0F4D77081E001C0880F3F
:103B6000DA95EAF7DF91CF911F910F91FF900C94B6
:103B70003709C77081E001C0880FCA95EAF7F2CF14
:103B8000DF91CF911F910F91FF9008958F929F9297
:103B9000AF92BF92CF92DF92EF92FF920F931F935B
:103BA000CF93DF93CDB7DEB728970FB6F894DEBF7B
:103BB0000FBECDBF7C01DC019C9111968C911197B9
:103BC00013962D913C91232B21F089238F3F09F0EF
:103BD000F5C528960FB6F894DEBF0FBECDBFDF91B6
:103BE000CF911F910F91FF90EF90DF90CF90BF90FA
:103BF000AF909F908F900895980122513F452031BA
:103C0000310508F087C58FEF93E00E94B1302EEEAA
:103C1000D22ED00E0FE710E0882351F180910102DF
:103C20008770B9F2D70112968C91882391F282E0C5
:103C300028960FB6F894DEBF0FBECDBFDF91CF91AF
:103C40001F910F91FF90EF90DF90CF90BF90AF90BA
:103C50009F908F900C94F9090115B4E01B07F1F2C5
:103C6000C8010E94B130811101C0DA940F5F1F4F6B
:103C7000D110F2CF80911D0190911E01A0911F01E2
:103C8000B091200189839A83AB83BC8399249A9451
:103C90006801EFEFCE1ADE0AC8010E94B1308983B5
:103CA0001A82882309F4BACF813009F048C058013C
:103CB000F2E0AF0EB11CC6010E94B130C82E8A835B
:103CC000882309F4ABCFC5010E94B130D82E8FEF05
:103CD0008C0D833068F4580123E0A20EB11CDB8206
:103CE000DD2021F0CE0101960E94B81C8501D0CFC5
:103CF00034E0C312FBCF580144E0A40EB11CC8014C
:103D000003960E94B130DD2009F488CF882309F49E
:103D100085CF8150990B989E9001999E300D11246A
:103D2000AD2DA150BB0BCD01820F931F0197F0F277
:103D3000EFE9FFE03197F1F700C00000F7CFCE01C7
:103D400001960E94B81C5601D1CF81E00E949309D0
:103D50000E94FD0B63CF81E00E94C409F9CF82E08D
:103D6000F5CF053FACE51A07D1F027E245EE66EE48
:103D7000063FBCE51B0741F027E245EE64EE043F39
:103D8000ECE51E0709F0EBC40E94621D47CF27E255
:103D900045EE65EEF9CF26E241EE60EEF5CF26E284
:103DA00041EE62EEF1CF98012A5F3C4529303105A2
:103DB00008F4E4C406315CE5150709F0C8C0909129
:103DC000FE01882309F4B9C0892F8A7A91E009F4A9
:103DD00090E09093F40169E2811165E382EB91E058
:103DE0000E94BF080E94E50819CFF801E350FC4586
:103DF000809186028160E331F105B8F4E257FE4C10
:103E00000C940030C8018A5F9C45099708F0C6C42D
:103E1000F801EB5FFC45E830F10590F4EF55FE4CFE
:103E20000C94003080918602826080938602B6C432
:103E3000809186028460F9CF809186028860F5CFF8
:103E400080918702816080938702A8C48091870255
:103E50008260F9CF809186028061E7CF80918602EF
:103E60008062E3CF809186028064DFCF0E943F169C
:103E7000809186028068D9CF809186028C60D5CFF0
:103E8000809187028360DFCF809186028E7FCDCFC5
:103E9000809186028D7FC9CF809186028B7FC5CFAE
:103EA00080918602877FC1CF809187028E7FCBCFA2
:103EB000809187028D7FC7CF809186028F7EB5CF9C
:103EC000809186028F7DB1CF809186028F7BADCFAE
:103ED0000E943F16809186028F77A7CF809186023D
:103EE000837FA3CF809187028C7FADCF80918602A4
:103EF00082FB992790F921E0922790FB82F990FBB1
:103F000083F993CF80918702982F909591708E7F3F
:103F1000892B90FB81F997CF0E943F1690918602E2
:103F2000892F97FB87F9805880CF61E08EE090E081
:103F30000E94C53033C460E0F9CF8091F401811153
:103F400004C089E20E949F084DCF85E3FBCF882300
:103F500061F18091FE018272063D9CE5190778F4BB
:103F6000023CACE51A07C0F0F801E35CFC45E33124
:103F7000F10508F07DC0E755FE4C0C9400306AE274
:103F800085E20D35100709F4D7C00A354DE5140751
:103F900009F40AC108F0E6C001158CE5180709F418
:103FA000F3C00E3D1C4509F4FCC0F7018281C080BE
:103FB000D180882309F4FCC0C6010E94DA11182FB1
:103FC000682FC6010E944408B601812F0E94551037
:103FD0008C01D7011296AC9012971596BC90B294B2
:103FE0009FE0B922809101028770A1F0CA2CAA201B
:103FF00091F0812F807F803421F080E2800F883023
:1040000048F082E00E94F909809101028770CC2477
:10401000C3948111C12CD12ED2948FE0D822B8E064
:10402000DB1609F4D1C1BD1508F400C1E3E0ED15BC
:1040300008F4C3C0812F807F1F70F1E0FD1508F0E8
:1040400007C1803211F01295107F002309F438C1A6
:10405000013009F47DC1AA2009F486C1BB2009F40E
:1040600059C1F701958190FF08C19F70958352C196
:104070008091730280FF21C08E7F80937302009134
:1040800073021091740220917502309176020D83B3
:104090001E832F833887C901B8010E94AB1210928A
:1040A0006C021FEF20E732E0115020403040E1F772
:1040B00000C000000E94BD0CB1CD816080937302EE
:1040C00086950E948614AACD4BE754E161E774E11E
:1040D0000E94FD07A3CD41E754E16BE774E1F8CFFF
:1040E0004CEC53E163EC73E1F3CF43EC53E16CEC44
:1040F00073E1EECF41EE53E165ED73E1E9CF45EDBC
:1041000053E161EE73E1E4CF49EF53E16DEE73E10A
:10411000DFCF4DEE53E169EF73E1DACF41EF52E1CA
:104120006EEC72E1D5CF4EEC52E161EF72E1D0CF8F
:1041300081E0C7CF65E082E00E9489146FCD68E01E
:1041400086E0FACF6EE089E0F7CF64E18FE0F4CF4C
:1041500067E185E1F1CF88E1B4CF62E289E1ECCF9C
:1041600083E2AFCF0B35ADE51A0701F10C351D45E4
:1041700009F01BCF8091870282FB882780F991E0AC
:1041800089270E94251611CF0E943F16EFEFF4E316
:104190000CE0E150F0400040E1F700C000000E9458
:1041A000D00A0E944F193ACD81E0EBCF80E0E9CFF1
:1041B000C6010E947308182F07CF24E0D21609F415
:1041C000E9C0ED2DE850FF0B349710F40E9402086F
:1041D000CC20B1F08091010280FD12C0D70112966F
:1041E0001C928595859585950E949309C7010E942B
:1041F000C61D809101028595859585950E94C4090B
:1042000060E0C70128960FB6F894DEBF0FBECDBFA1
:10421000DF91CF911F910F91FF90EF90DF90CF90A2
:10422000BF90AF909F908F900C941C1239E0D316E2
:1042300009F4C8C186E08D0D8F70823010F6023F00
:1042400009F0CFC1812F8F71AA2009F412C2C6C113
:10425000882311F01295107FAA20C9F0112369F06C
:1042600080E2800F883010F001110BC08091FE01B8
:10427000812B8093FE010E94E508802F0E941C1C68
:10428000A0CF80910002812B80930002F4CF802F79
:104290000E944909112309F494CF80E2800F8830ED
:1042A00010F0011106C0812F0E94AC080E94E508A1
:1042B00088CF109580910002812380930002F6CF71
:1042C000AA2051F1B11006C08091F501812B0E9406
:1042D000230977CF41E0B41213C08091870282FD99
:1042E00070CF8091F501182B181709F46ACF0E943E
:1042F000D90890930502809304021093F50161CFD1
:1043000055E0B512E1CF0E94B4088091FF01181367
:104310001093FF01812FDBCFB11006C00E94B408BB
:10432000812F0E9437094DCF81E0B8120CC09091C7
:10433000FE01912309F445CF8091FF01882371F399
:104340001092FF01EBCF95E0B91609F43ACFE6CF12
:10435000AA2029F0A5E0AB1508F433CFDBCFB4E0F9
:10436000BB1508F42ECFDCCFBB20D1F2093369F4A2
:10437000FFEF17EE23E0F15010402040E1F700C0BE
:104380000000802F0E9449091CCF8FE39CE9019710
:10439000F1F7F5CF812F86958695837061F0813096
:1043A00009F00FCFC8019370A11002C090E080E027
:1043B0000E94240806CFC8019370A11002C090E0AB
:1043C00080E00E940E08FDCE812F837009F07AC034
:1043D000A110F7CE202F229526952770220F220FAD
:1043E000802F8F7090E0B0E0A0E04C015D01022EC4
:1043F00004C0880C991CAA1CBB1C0A94D2F780E04C
:1044000090E0DC0104FF0FC08FE090E0A0E0B0E09E
:1044100004C0880F991FAA1FBB1F2A95D2F7809549
:104420009095A095B095169516951370123051F190
:104430001330D9F14091F6015091F7016091F801E4
:104440007091F901113099F088299929AA29BB297D
:104450008C019D0104231523262337230D831E83FE
:104460002F833887C901B8010E947F09AACE482945
:1044700059296A297B298A019B01082B192B2A2B90
:104480003B2BECCF88299929AA29BB294091F60119
:104490005091F7016091F8017091F9018C019D0133
:1044A0000427152726273727D9CFA5019401282BC4
:1044B000392B4A2B5B2B2D833E834F835887CA01B0
:1044C000B901D2CFAA2009F44FC010FF7ACE202F15
:1044D000229526952770220F220F802F8F7090E053
:1044E000B0E0A0E04C015D01022E04C0880C991CD4
:1044F000AA1CBB1C0A94D2F780E090E0DC0104FF08
:104500000FC08FE090E0A0E0B0E004C0880F991FDA
:10451000AA1FBB1F2A95D2F780959095A095B095BC
:10452000169516951370123069F11330F1F1409120
:10453000FA015091FB016091FC017091FD01113075
:10454000B1F088299929AA29BB298C019D0104234E
:104550001523262337230D831E832F833887C90114
:10456000B8010E9489092DCE11FF2BCEB0CF48296A
:1045700059296A297B298A019B01082B192B2A2B8F
:104580003B2BE9CF88299929AA29BB294091FA0117
:104590005091FB016091FC017091FD018C019D0126
:1045A0000427152726273727D6CFA5019401282BC6
:1045B000392B4A2B5B2B2D833E834F835887CA01AF
:1045C000B901CFCF1F70AA2029F0812F0E94930933
:1045D000802F7DCE802F0E943709812F0E94C40931
:1045E000F0CD033F60F4003F39F1013FE9F1AA202B
:1045F00009F47CC0B11041CE812F8F713AC0033FC6
:10460000D9F1043FA1F78091FF01AA2009F455C018
:104610000E94AC08809101028770843009F041C08B
:10462000109201021092030210920202812F8F71E8
:104630000E94C409C12CC5CDAA2089F034E03B15E5
:1046400008F4BFCD1F7181E090E0A0E0B0E004C0AD
:10465000880F991FAA1FBB1F1A95D2F797CF25E085
:104660002B1508F4AECDEECF812F8F71AA2009F45F
:10467000B5CF0E949309A5CD60E070E0CB01AA20E0
:1046800009F46FCF1F7181E090E0A0E0B0E09C01E1
:10469000AD0104C0220F331F441F551F1A95D2F7D6
:1046A0008ACF34E03B1530F21F71812F0E949309AD
:1046B00063E0812F0E94190ABDCF9091FE01982BD3
:1046C0009093FE0144E04B1568F4109201021092A1
:1046D00003021092020281111092FF0164E0812F07
:1046E0008F71E8CF81E00E94F909A4CFBB2079F057
:1046F000093341F45FEF87EE93E0515080409040E2
:10470000E1F73DCEAFE3BCE91197F1F738CE812F49
:104710008F7164CF0031BFE51B0709F416CB01315F
:10472000EFE51E0709F41BCB033F2CE5120709F444
:1047300032CB08F016CB083D4CE5140709F427CB23
:1047400028E241E0093D5CE5150709F422CB26E2A9
:1047500041EE61EE073D9CE5190709F415CB88236E
:1047600009F428CB1092F3010631FCE51F0708F08D
:104770001ACB02302CE5120708F4EBCB0E949D12F5
:10478000909387028093860206313CE5130708F078
:1047900039CB02304CE5140708F027CB6091860234
:1047A0001091870284E090E00E94C530612F82E280
:1047B00090E00E94C5300E943F1630CA61E0C701F8
:1047C0000E941C128C01D70112968C91811114CA7F
:1047D0000031FFE51F0709F4BECA01312FE51207BA
:1047E00009F0A2CF82E0B8CA1F93CF93DF938091E4
:1047F0003D02807FA9F480913A02882389F080915C
:104800000702C09106027091380260913902A091AE
:104810003B02B0913C02D62FD72316E0C81304C048
:10482000DF91CF911F91089590E0109711F0DF3F35
:1048300019F401968770F2CF189F9001199F300DDF
:104840001124F901E85FFD4F41816413F2CF4081EB
:104850004713EFCF42814111ECCF438154814A1B72
:104860005B0B483C510528F780913D028F708061B9
:1048700080933D02F901E35FFD4F80818F7080617D
:10488000808388E392E00E94C61DDF91CF911F9143
:104890000C943A088F929F92AF92BF92DF92EF9260
:1048A000FF920F931F93CF93DF93CDB7DEB72B9774
:1048B0000FB6F894DEBF0FBECDBF8C0185E0F801C6
:1048C000DE01179601900D928A95E1F7F801E280DA
:1048D00030812181A380B48088E3882E82E0982EE5
:1048E000809138029091390240913B0250913C02F4
:1048F0004115510529F0682F69236F3F09F01AC14E
:10490000EE2009F425C18F8198850E944712F82E68
:10491000882309F41DC186E0F801A8E3B2E0019004
:104920000D928A95E1F70E94F4231EC0D0903D02BB
:104930006D2D607F483C510508F0A3C06111BFC0D8
:10494000FE2C291324C0831322C0E11020C08D2D1A
:104950008F70806180933D0288E392E00E94C61DC3
:1049600080913D02F80185838F2D2B960FB6F89428
:10497000DEBF0FBECDBFDF91CF911F910F91FF9092
:10498000EF90DF90BF90AF909F908F900895AB28ED
:1049900029F0822F83238F3F09F08EC080E0F82F0B
:1049A000F170DF2EE09107024091060256E080FD93
:1049B0001CC0EE20C9F280913D02816080933D02CF
:1049C000F12CD2CF8E2F90E05E9FF0011124E85F92
:1049D000FD4F6181261306C06081361303C06281DA
:1049E0006E11E7CF0196E82FE770E413EBCF8F81CC
:1049F00098850E943B12292F22952F70903260F0EB
:104A0000225F2F70223078F49F7051F0F801958169
:104A1000907F31F4D12C0AC09F7011F08823D1F31C
:104A2000805E8830B8F3C8010E94C61DFD2C9CCF63
:104A30008F8198850E944712882309F489C0EE204F
:104A400009F486C080913D02803270F08091380276
:104A5000909139029A8389831B82BD82AC82DE8267
:104A6000CE0101960E94C61D86E0F801A8E3B2E0DF
:104A700001900D928A95E1F70E94F423FF24F394AC
:104A800073CF611130C088E392E00E94C61D86E0BA
:104A9000F40111928A95E9F793CF8F8198850E944E
:104AA00047128111E1CF80913D02816080933D02E8
:104AB000C8010E94C61D58CF81E08E2570CF2913F2
:104AC000B7CF8313B5CFE110B3CFF801D582C801BA
:104AD0000E94C61D86E0F801A8E3B2E001900D92A5
:104AE0008A95E1F741CF2913A3CF8313A1CFE1101A
:104AF0009FCFF801D582C8010E94C61D86E0F4014F
:104B000011928A95E9F730CF2913C7CF8313C5CF08
:104B100080913D0280FDDECF982F907FD9F2F80181
:104B20008583903FA1F2982F907F905F8F70892BA3
:104B30008583CDCFF0903A02B501641B750BAB01B4
:104B4000F110F4CE483C5105C8F6FE2CE110DCCF44
:104B5000C8010E94C61D92CF1F93CF93DF93CDB79C
:104B6000DEB767970FB6F894DEBF0FBECDBF4B8B95
:104B70005C8B162F6D8B7E8B8F8B611110920002D8
:104B80001A8A85E0FE017396DE011D9601900D9252
:104B90008A95E1F70E94D908209102023091030220
:104BA000821B930B8838934120F08091010282FF91
:104BB00080C00E94D9082091040230910502821B16
:104BC000930B8838934110F00E94B4081F8786E049
:104BD000FE013D96DE01179601900D928A95E1F750
:104BE000CE0107960E944A24882389F016E080911E
:104BF000070290910602891349C067960FB6F89490
:104C0000DEBF0FBECDBFDF91CF911F91089586E02B
:104C1000FE013796DE01119601900D928A95E1F71B
:104C20009F81888520910602409107026A857B85D5
:104C3000672BE1F289238F3FC9F230E0C901019669
:104C4000877099274817190671F40E943F16109231
:104C500006021092070286E0E8E3F2E0DF011D920F
:104C60008A95E9F7C3CF96E0929FD001939FB00D4C
:104C70001124A85FBD4FFE01319601900D929A95C7
:104C8000E1F7809306020E943A08B0CF819FC001ED
:104C90001124885F9D4F0E944A24882309F4ADCFD8
:104CA0008091070290E00196877099278093070210
:104CB0009ECF82E00E94F9097CCF0F931F93CF9380
:104CC000DF9300D000D00F92CDB7DEB78C01909368
:104CD000470280934602011580E21807D8F4C80104
:104CE000805E9109089728F06DE279E001151105C1
:104CF00011F463E279E0C8010E94CB06802F0F9087
:104D00000F900F900F900F90DF91CF911F910F9107
:104D10000C941C1C8EEF89838A8381E08B830E9414
:104D2000D9088160782F49815A816B81892F0F9032
:104D30000F900F900F900F90DF91CF911F910F91D7
:104D40000C94AC250F931F93CF93DF9300D000D02A
:104D50000F92CDB7DEB78C01909347028093460245
:104D6000011580E21807D8F4802F0E944909C80174
:104D7000805E9109089728F06EE379E0011511052E
:104D800011F467E379E0C8010F900F900F900F9036
:104D90000F90DF91CF911F910F910C94CB068EEF66
:104DA00089838A831B820E94D9088160782F498178
:104DB0005A816B81892F0F900F900F900F900F9059
:104DC000DF91CF911F910F910C94AC258F929F9200
:104DD000AF92BF92FF920F931F93CF93DF93F82E62
:104DE0008090FA019090FB01A090FC01B090FD0131
:104DF0008091F6019091F701A091F801B091F9012D
:104E0000882A992AAA2ABB2ACFE1D0E0D501C40179
:104E10000C2E04C0B695A795979587950A94D2F75E
:104E200080FF1DC04F2D60E08C2F0E9474128C01FA
:104E300081309105A1F00E945D268FE39CE90197E6
:104E4000F1F700C00000C801DF91CF911F910F91D1
:104E5000FF90BF90AF909F908F900C94A2262197C7
:104E6000A8F64F2D60E080E00E947412D82FC92F61
:104E70000E945D268FE39CE90197F1F700C00000D6
:104E80008D2F9C2FE1CF1F921FB61F9211248F935D
:104E90009F93AF93BF938091E701811113C08091DD
:104EA000E3019091E401A091E501B091E601419602
:104EB000A11DB11D8093E3019093E401A093E5014E
:104EC000B093E601BF91AF919F918F911F901FBE4C
:104ED0001F90189578941F921FB61F9211248F93DC
:104EE0009F93AF93BF938091E3019091E401A091D0
:104EF000E501B091E6010196A11DB11D8093E3018A
:104F00009093E401A093E501B093E601BF91AF91C6
:104F10009F918F911F901FBE1F901895CDB7DEB740
:104F2000AC970FB6F894DEBF0FBECDBF84B7877FB6
:104F300084BF0FB6F894A895809160008861809333
:104F40006000109260000FBE80E890E00FB6F89409
:104F500080936100909361000FBE85B7806885BF24
:104F600085B7806885BF89EA9FE09093B1018093FF
:104F7000B0010E948F0B0E945C0C8091E200846063
:104F80008093E20078948091D901882399F08091F0
:104F9000E9001091EC001795112717958F70182BC9
:104FA0001092E9008091E80083FD0E947B161F703B
:104FB0001093E90082E084BD93E095BD9AEF97BD20
:104FC00080936E0029E731E062E871E001E010E0D3
:104FD000D90150E040E08D918F3F91F0E82FE295AC
:104FE000EF70F0E091A18F70780101C0EE0C8A950E
:104FF000EAF78E2D8095892381A382A18E2982A331
:105000004F5F5F4F4330510531F72D5F3F4F6217C0
:105010007307F1F6109283021092800210928402BC
:1050200010928102109285021092820290E080E03C
:105030000E94BF308A3E9E4F11F00E944F1982E0BD
:1050400090E00E94B13080937C020E949D12909368
:105050008702809386020E945E0A8FE39CE9019793
:10506000F1F700C000000E945E0A8091800280FF7C
:1050700017C06FEF83E290E00E94C5306FEF84E2CB
:1050800090E00E94C5306FEF85E290E00E94C5304D
:105090006FEF7FEF90E080E00E94E3300E94D00A43
:1050A00083E090E00E94B130282F30E050E040E0F3
:1050B00029A73AA74BA75CA7CA01B9010E947F099B
:1050C00083E290E00E94B130863209F0CFC584E2DD
:1050D00090E00E94B1308A3609F0C8C585E290E0C0
:1050E0000E94B130883709F0C1C58091C801811193
:1050F00036C090E080E00E94BF308A3E9E4F21F093
:105100000E944F190E94BF1288E090E00E94B930BF
:105110006093730270937402809375029093760289
:105120006E7F71F40E94BF1288E090E00E94B93057
:105130006093730270937402809375029093760269
:105140000E94ED0710926C028091730280FF04C0F0
:1051500060E086950E941B1481E08093C8015798F7
:105160005F9A6E98769A89B19CB196FB992790F9CF
:10517000990F881F8827881F892B8093CD0184E091
:1051800091E0909343028093420284E893E00E946E
:10519000290656C28091D901843009F441C0109289
:1051A0006C028091CA01811117C041E04093CA018D
:1051B00080917302982F91709093C9018E7F809394
:1051C00073025FEF80E792E0515080409040E1F73A
:1051D00000C000000E94BD0C1092E701A8E1B0E001
:1051E000E0E40FB6F894A895A09360000FBEE0939A
:1051F000600083B7817F846083BF83B7816083BF92
:105200007894889583B78E7F83BF0FB6F894A8955E
:1052100080916000886180936000109260000FBEF2
:105220008091D601882309F415C20E945E0A8091FC
:10523000800290918102892B90918202892B09F43E
:1052400009C219BD09BD09B400FEFDCF8091D80087
:105250008F7D8093D8008091E00082608093E00091
:105260008091E00081FDFCCF0E943F16F3C1809148
:105270007C0281FD0DC0832D8225F82FF170FF2E59
:1052800080FD24C181FF34C062E0F62E81E035C08C
:1052900084E592E00E942906E0E88E2EE2E09E2E50
:1052A000F12CE12CFF92EF92DF92CF920E94C20686
:1052B0008CE492E00E942906D4018D914D010E9458
:1052C000F5061F928F93BF92AF920E94C20685E4AB
:1052D00092E00E942906BFEFEB1AFB0A0FB6F89482
:1052E000DEBF0FBECDBFF3E0EF16F104D9F6C3CF9A
:1052F00082FFEAC174E0F72E82E0898329A52A8320
:105300002F2081E009F480E08B830E94D90881601E
:10531000782F9D838C8349815A816B81892F0E94CC
:10532000AC25F801E153FE4F80818F258083809169
:105330006C028823D1F180916B02E0917302E695B3
:10534000E81BE0936F02823009F0C2C0F0E0EC5835
:10535000FD4FE4910E2F10E052E2E52E5DE0F52EB8
:1053600080917002882361F0109270020E94D90827
:1053700090936E0280936D021092720210927102ED
:105380000E94D90820916D0230916E02821B930B0E
:105390008F3F9F4750F4200F311F30936E022093B0
:1053A0006D028DE692E0F7010995E091CD01EE0FD7
:1053B000EE0FE093CD0129B18CB190E035E09695E8
:1053C00087953A95E1F78270992730E0220F232FD5
:1053D000221F330B822BE82BE093CD01EF70F0E01E
:1053E000E25CFE4F80819091CC01890F8093CC01CB
:1053F00020E084304CF08091CB018F5F8093CB0113
:1054000081E00E94E62621E08091CC018D3F4CF4A2
:105410008091CB0181508093CB0180E00E94E626F1
:1054200021E08091CC01082E000C990B64E070E023
:105430000E94EC2F8093CC0121110E942F0A0E9420
:1054400002089091CE01891721F00E9402088093F2
:10545000CE018091D901843009F0F2C083E08093BD
:10546000E9008091E80082FFEBC08091E80090E0C5
:1054700085FF06C00E945E0B882309F499C091E065
:105480008091E8008B778093E800992309F4D8C0D5
:105490000091440210914502E9810115110509F4BA
:1054A000A4C0EE3F09F0C8C08A81833020F0855047
:1054B000833008F0C1C0EA81EE3008F0BDC0F0E0F2
:1054C000E454FE4CCE0101960C94003080E015CFE0
:1054D00008E210E0F0E6EF2EFEE0FF2E883109F43E
:1054E0003FCFE0F48F3009F440C058F4863031F1FA
:1054F000893079F100ED17E04CEFE42E47E0F42E0F
:105500002FCF8531B9F7F0E0E859FD4FE4910E2F28
:1055100010E082E1E82E8EE0F82E22CF843209F4EA
:1055200040C0853271F1833229F7E6E6F2E0059159
:105530001491B6E4EB2EBDE0FB2E12CFF0E0EF5855
:10554000FD4FE4910E2F10E036E3E32E3DE0F32E05
:1055500007CFE695F0E0E259FD4FE4910E2F10E001
:1055600026E8E22E2DE0F22EFBCEE695F0E0E5599E
:10557000FD4FE4910E2F10E090EBE92E9DE0F92E07
:10558000EFCE8E2F63E00E94CC2FE92FF0E0ED5993
:10559000FD4FE4910E2F10E0A6E9EA2EA4E1FA2EC9
:1055A000DFCE04EF11E0E7E0EE2EEFE0FE2ED8CEE6
:1055B00000E210E09E012F5F3F4F79018091E800EB
:1055C00085FD0AC08091E8008B778093E8000E94F7
:1055D0005E0B882399F353CF8091F100D7018D930F
:1055E0007D010150110951F74ACFE43150F4EE2307
:1055F00059F0E150E33140F4F0E0E653FE4C0C94F6
:105600000030EE3F09F457CF8FEF898315C01A821F
:1056100089E08B8311C08A81823009F440C38330D2
:1056200009F468C0813081F70E942F0A0E94063079
:105630006B837C838D839E83CE0101960E94D80B61
:105640008091D901853001F580E893E00E94290618
:1056500010E102E18091D901853009F49BCD0E94CF
:105660003F160E9402081092CA018091C901882346
:1056700049F08091730281608093730260E08695A7
:105680000E941B140E9405140E945E0A81110E9450
:105690002F0AFFEC4F2EF1E05F2EA0E86A2EA2E069
:1056A0007A2E10E000E0BFE4CB2EB2E0DB2E87E4E0
:1056B000A82E82E0B82E09A7D3012D903D01F2015A
:1056C00031902F013210D3CD0F5F1F4F03301105E2
:1056D00091F78FEF89838A831B820E94D9088160AA
:1056E000782F9D838C8349815A816B81892F0E94F9
:1056F000AC251DCE8091790290917A02892B09F414
:105700009BCF809180028B83809181028C838091DA
:1057100082028D8391CF8A81823009F075CF2B81EF
:105720003C814D815E8129A73AA74BA75CA7CA019E
:10573000B9010E94063086E290E00E94C5307CCF1D
:105740004C816B818A810E940A10982789279827AB
:105750009E838D8371CF2D813E813227232732276F
:105760004C816B818A810E94461566CF0E94AC15E0
:1057700063CF8A818238D1F1F8F4803831F18138F1
:1057800009F05ACF60E08B810E941B149B818091AD
:105790007302911123C08E7F8093730210926C026A
:1057A0003FEF40E752E0315040405040E1F700C049
:1057B00000000E94BD0C40CF833809F03DCF20E0AF
:1057C000409176026C818B8106C020E04B81609114
:1057D0007502809174020E9414132ECF8160809311
:1057E000730260E086950E941B1426CF8B81809304
:1057F000770222CF8A818238D9F058F4803899F024
:10580000813809F019CF8091730280FF0FC086950F
:1058100000CF833809F010CF809174028B83809180
:1058200075028C8309CF80917602F3CE80E0F1CEB1
:1058300080917702EECE8091730290917402A091D4
:105840007502B091760289A79AA7ABA7BCA7BC0145
:10585000CD010E94AB12F0CE80E18A83EDCE83E0D1
:105860008A8381E8D6CE8C81E82EF12C8D3108F028
:10587000E3CE0A811B81102701271027E00EF11EBD
:105880006E0195E0C90ED11CC80181589F4F0E15BD
:105890001F0509F4D1CE0138A3E01A0740F40E9495
:1058A000B130F60181936F010F5F1F4FEDCF80E0A4
:1058B000F8CF8091790290917A02892B09F4BCCEBD
:1058C0008C81C82ED12C8D3108F0B6CE0A811B8177
:1058D0001027012710279E012F5F3F4F7901C20E2D
:1058E000D31EC80181589F4FCE14DF0409F4A4CE03
:1058F000013833E0130728F4D70114966C910E9405
:10590000C5300F5F1F4FBFEFEB1AFB0AEACF0E94B3
:10591000151692CE84E0A1CF8C81E82EF12C8D312A
:1059200008F08ACE0A811B81102701271027E00E7C
:10593000F11E6E01E5E0CE0ED11CC80187960E1552
:105940001F0509F479CE0834110540F40E94B130E6
:10595000D6018D936D010F5F1F4FEFCF80E0F8CF21
:105960008C81E82EF12C8D3108F066CE0A811B81E6
:105970001027012710270834110508F05DCE88E4B0
:1059800090E0801B910B8E159F0508F455CE4801C1
:10599000B7E28B0E911C8091790290917A02892B4B
:1059A000D1F56801E1E0CE22DD2400FF0DC0C80181
:1059B00086960E94B1309D81892798278927811575
:1059C0009C4511F48FEF8D83C8018E0D9F1D5701EB
:1059D00080FF17C021E0A21AB10875E0672E712C74
:1059E0006C0E7D1E6A0C7B1CC4018E0D9F1D0E94D7
:1059F000B130D3019C9181159C4519F48FEFF301CF
:105A00008083E1E0F0E0EC0FFD1FEC0DFD1D2FEFBA
:105A1000CA14DB0430F0FE0131966F01EE0EFF1E5A
:105A200019C09481858181159C4511F424832583B7
:105A300042E0C40ED11C3296EBCF0834110528F495
:105A4000D60114966C910E94C5300F5F1F4FBFEFB7
:105A5000CB1ADB0AC8018796CE14DF0471F7ECCDB0
:105A60008091790290917A02892B09F4E5CDCE01DB
:105A700001960E94D80BFFEF21EE34E0F150204058
:105A80003040E1F700C0000009CB88E0E1E2F1E03E
:105A9000DE01919601900D928A95E1F7FE01329612
:105AA0008FE1DF011D928A95E9F784E0898388E020
:105AB0007F96DE01159601900D928A95E1F7BCCD97
:105AC00088E08983B1E0BA831B821C82B5CD0C814A
:105AD00010E0102F00272B81020F111D012E000C4A
