:100000000C94AC060C94F3060C94F3060C94F306D3
:100010000C94F3060C94F3060C94F3060C94F3067C
:100020000C94F3060C94F3060C94322E0C94062FC9
:100030000C94DF250C94F3060C94F3060C94F30651
:100040000C94F3060C94F3060C94F3060C94F3064C
:100050000C94F3060C9436260C94F3060C94F306D9
:100060000C94F3060C94F3060C94F3060C94F3062C
:100070000C94F3060C94F3060C94F3060C94F3061C
:100080000C94F3060C94F3060C94F3060C94F3060C
:100090000C94F3060C94F3060C94F3060C94F306FC
:1000A0000C94F3060C94F3060C94F306C800BE00FF
:1000B000B4000000000500FFFFFF00000000000585
:1000C00055FFFFFF000000000005AAFFFFFF000032
:1000D0000000A800AE000251AC005200AB0050007E
:1000E00051004F00C25C010001000100C95C010029
:1000F000C45CCA5CC35C000000000100DE5C005C04
:10010000015C00000000000044454255473A20646D
:10011000697361626C65642E0A0044454255473A32
:1001200020656E61626C65642E0A000A0025303815
:1001300062003A200025303258000A722F632030C6
:10014000313233343536370A007267626C6967685A
:10015000742074696D65722064697361626C652EC8
:100160000A007267626C696768742074696D6572F1
:1001700020656E61626C65642E0A007267626C694C
:100180006768742073657420687376205B4E4F45F2
:100190004550524F4D5D3A2025752C25752C2575FF
:1001A0000A007267626C69676874207365742068FE
:1001B0007376205B454550524F4D5D3A2025752C96
:1001C00025752C25750A007267626C696768742052
:1001D0007261696E626F7720736574206873763A16
:1001E0002025642C25642C25642C25750A00726753
:1001F000626C696768742064697361626C65205B16
:100200004E4F454550524F4D5D3A207267626C69C2
:100210006768745F636F6E6669672E656E61626C96
:1002200065203D2025750A007267626C69676874F5
:100230002064697361626C65205B454550524F4D87
:100240005D3A207267626C696768745F636F6E669F
:1002500069672E656E61626C65203D2025750A0018
:100260007267626C6967687420656E61626C652094
:100270005B4E4F454550524F4D5D3A207267626C60
:10028000696768745F636F6E6669672E656E616229
:100290006C65203D2025750A007267626C6967688D
:1002A0007420656E61626C65205B454550524F4D10
:1002B0005D3A207267626C696768745F636F6E662F
:1002C00069672E656E61626C65203D2025750A00A8
:1002D0007267626C6967687420746F67676C652009
:1002E0005B454550524F4D5D3A207267626C6967BD
:1002F00068745F636F6E6669672E656E61626C65B8
:10030000203D2025750A007267626C696768742059
:100310006D6F6465205B4E4F454550524F4D5D3AC1
:100320002025750A007267626C69676874206D6FBA
:100330006465205B454550524F4D5D3A2025750A56
:10034000007267626C696768745F696E69742072B5
:1003500067626C696768745F636F6E6669672E6D4C
:100360006F6465203D20302E2057726974652064CB
:10037000656661756C742076616C75657320746F49
:1003800020454550524F4D2E0A007267626C6967D6
:1003900068745F696E6974206565636F6E6669670E
:1003A000206973206E6F7420656E61626C65642EC7
:1003B0000A007267626C696768745F696E697420AD
:1003C0007374617274210A007267626C6967687481
:1003D0005F696E69742063616C6C65642E0A0072DB
:1003E00067626C696768745F636F6E6669672E73B6
:1003F00070656564203D2025640A007267626C693F
:100400006768745F636F6E6669672E76616C203D06
:100410002025640A007267626C696768745F636FA5
:100420006E6669672E736174203D2025640A007230
:1004300067626C696768745F636F6E6669672E6870
:100440007565203D2025640A007267686C696768DD
:10045000745F636F6E6669672E6D6F6465203D2003
:1004600025640A007267626C696768745F636F6E07
:100470006669672E656E61626C65203D2025640AA1
:10048000007267626C696768745F636F6E66696744
:1004900020454550524F4D3A0A0032190A00047F58
:1004A0003F1F643214643214783C1E1E140A052265
:1004B00023252628292A2C2D2F3032333536383A59
:1004C0003B3D3E4042434547494A4C4E50515355AF
:1004D00057595A5C5E6062646668696B6D6F7173D0
:1004E0007577797B7D7F81838587898A8C8E9092D1
:1004F0009496989A9C9E9FA1A3A5A7A8AAACAEAFDC
:10050000B1B3B4B6B8B9BBBCBEBFC1C2C3C5C6C720
:10051000C9CACBCCCDCED0D1D2D2D3D4D5D6D7D7D1
:10052000D8D9D9DADADBDBDBDCDCDCDCDCDDDDDD19
:10053000DDDCDCDCDCDCDBDBDBDADAD9D9D8D7D715
:10054000D6D5D4D3D2D2D1D0CECDCCCBCAC9C7C6C2
:10055000C5C3C2C1BFBEBCBBB9B8B6B4B3B1AFAE00
:10056000ACAAA8A7A5A3A19F9E9C9A9896949290A6
:100570008E8C8A89878583817F7D7B79777573717E
:100580006F6D6B6968666462605E5C5A595755535B
:1005900051504E4C4A4947454342403E3D3B3A3814
:1005A00036353332302F2D2C2A292826252322FFB9
:1005B000AA7F554000010101010101010101020270
:1005C0000202020202020203030303030303030401
:1005D00004040404040405050505050606060606CC
:1005E000070707070708080808090909090A0A0A86
:1005F0000B0B0B0C0C0C0D0D0D0E0E0E0F0F0F1028
:1006000010111111121213131414151516161717B1
:10061000181819191A1A1B1B1C1D1D1E1E1F20201D
:10062000212222232424252626272829292A2B2C67
:100630002D2D2E2F30313232333435363738393A8A
:100640003B3C3D3E3F404142434445464748494A82
:100650004C4D4E4F50515354555658595A5B5D5E50
:100660005F616264656668696B6C6D6F70727375EB
:1006700077787A7B7D7E8082838587888A8C8E8F4F
:1006800091939596989A9C9EA0A2A3A5A7A9ABAD7D
:10069000AFB1B3B5B7BABCBEC0C2C4C6C9CBCDCF6B
:1006A000D1D4D6D8DBDDDFE2E4E7E9EBEEF0F3F519
:1006B000F8FAFDFF0A002530325820006B65796298
:1006C0006F6172645F7265706F72743A20000A0025
:1006D00025303258006B6579626F6172645F7365B3
:1006E000745F6C65643A20003F00433E20004C2557
:1006F000640A0074696D65725F72656164333228E3
:10070000293A202530346C580A006B6579626F6194
:1007100072645F69646C653A2025580A006B6579DC
:10072000626F6172645F70726F746F636F6C3A2096
:1007300025580A00686F73745F6B6579626F617228
:10074000645F6C65647328293A2025580A000A09F9
:100750002D20537461747573202D0A004743433A6A
:1007600020382E332E30204156522D4C4942433AE8
:1007700020322E302E30204156525F415243483AAB
:1007800020617672350A004F5054494F4E533A203B
:100790004C5546412045585452414B455920434FF2
:1007A0004E534F4C4520434F4D4D414E4420343025
:1007B00039360A004255494C443A2022302E392E0F
:1007C00034362D342D676466613330312220283170
:1007D000333A32353A3538204A756C203237203278
:1007E000303230290A005649443A203078343735BF
:1007F0003228677265676F72696F29205049443AE1
:1008000020307834443439284D6978692920564598
:10081000523A203078303030310A000A092D205603
:10082000657273696F6E202D0A000A092D20436FCF
:100830006E736F6C65202D0A4553432F713A097111
:100840007569740A000A092D204D61676963202DBE
:100850000A443A094465627567204D6573736167A0
:100860006520546F67676C650A583A094D61747268
:100870006978204465627567204D6F646520546F08
:1008800067676C65202D2053686F77206B657970E2
:1008900072657373657320696E206D617472697817
:1008A00020677269640A4B3A094B6579626F61721D
:1008B0006420446562756720546F67676C65202DFE
:1008C0002053686F77206B6579707265737320723F
:1008D00065706F72740A4D3A094465627567204D00
:1008E0006F75736520546F67676C650A563A0956D1
:1008F000657273696F6E0A533A0953746174757344
:100900000A433A09416374697661746520436F6EE6
:10091000736F6C65204D6F64650A46312D4631302A
:100920003A0953776974636820746F204C61796564
:100930007220302D392028463130203D204C30297E
:100940000A302D393A0953776974636820746F202F
:100950004C6179657220302D390A47524156453A2B
:100960000953776974636820746F204C61796572EC
:1009700020302028616C7465726E617465290A42AA
:100980003A094A756D7020746F20426F6F746C6FF6
:10099000616465720A4553433A094A756D70207463
:1009A0006F20426F6F746C6F616465722028616C98
:1009B0007465726E617465290A453A095072696EF0
:1009C0007420454550524F4D2053657474696E67CD
:1009D000730A4253504143453A09436C65617220A2
:1009E000454550524F4D0A000A002575002E6E6B8A
:1009F000726F3A20000A002575002E737761705FD0
:100A00006261636B736C6173685F6261636B737067
:100A10006163653A20000A002575002E73776170C6
:100A20005F67726176655F6573633A20000A00252F
:100A300075002E6E6F5F6775693A20000A00257594
:100A4000002E737761705F72616C745F7267756995
:100A50003A20000A002575002E737761705F6C6183
:100A60006C745F6C6775693A20000A002575002E6A
:100A7000737761705F7263746C5F726775693A2037
:100A8000000A002575002E737761705F6C63746CCB
:100A90005F6C6775693A20000A002575002E636156
:100AA00070736C6F636B5F746F5F636F6E74726F84
:100AB0006C3A20000A002575002E737761705F6321
:100AC0006F6E74726F6C5F636170736C6F636B3A9F
:100AD00020000A0025303258006B65796D61705F27
:100AE000636F6E6669672E7261773A20000A00258F
:100AF00075002E6D6F7573653A20000A002575002C
:100B00002E6B6579626F6172643A20000A00257568
:100B1000002E6D61747269783A20000A0025750014
:100B20002E656E61626C653A20000A0025303258ED
:100B30000064656275675F636F6E6669672E7261D8
:100B4000773A20000A0025750064656661756C744B
:100B50005F6C617965723A20003F000A6D6F7573B2
:100B6000653A206F66660A000A6D6F7573653A20F4
:100B70006F6E0A000A6B6579626F6172643A206F6A
:100B800066660A000A6B6579626F6172643A206F6B
:100B90006E0A000A6D61747269783A206F66660A9F
:100BA000000A6D61747269783A206F6E0A000A64F7
:100BB000656275673A206F66660A000A6465627549
:100BC000673A206F6E0A000A0A4A756D70696E678F
:100BD00020746F20626F6F746C6F616465722E2E6B
:100BE0002E2000433E2000436C656172696E6720D1
:100BF000454550524F4D0A006565636F6E666967E3
:100C00003A0A005B735D004B6579626F6172642024
:100C100073746172742E0A005B575D005B535D0054
:100C20005B525D005B445D005B435D00040330008C
:100C300000000A034D0069007800690000001203FB
:100C400067007200650067006F00720069006F0046
:100C500000000403090409025B00030100A0FA0973
:100C600004000001030101000921110100012240DB
:100C7000000705810308000A0904010001030000C0
:100C80000009211101000122320007058203200022
:100C90000A090402000203000000092111010001F9
:100CA000222200070583032000010705030320001B
:100CB0000112011001000000085247494D010001D6
:100CC0000203010631FF0974A1010975150026FF11
:100CD000009520750881020976150026FF009520F1
:100CE00075089102C005010980A101850319012A37
:100CF000B700150126B700950175108100C0050CDD
:100D00000901A101850419012AA002150126A002EA
:100D1000950175108100C005010906A1010507199B
:100D2000E029E715002501950875018102950175F7
:100D30000881010507190029FF150026FF00950607
:100D400075088100050819012905950575019102AD
:100D5000950175039101C00011241FBECFEFDAE0A9
:100D6000DEBFCDBF04B603FE27C08091BB029091C9
:100D7000BC02A091BD02B091BE028730904BA7404B
:100D8000B04BD1F41092BB021092BC021092BD0283
:100D90001092BE0214BE84B7877F84BF0FB6F8944A
:100DA000A895809160008861809360001092600037
:100DB0000FBEE0E0F8E3099511E0A0E0B1E0ECEE51
:100DC000F4E602C005900D92AC3DB107D9F722E0E0
:100DD000ACEDB1E001C01D92AB3BB207E1F70E9460
:100DE000582B0C9438320C940000FF93EF93E09151
:100DF000DC01F091DD01309709F00995EF91FF9149
:100E00000895FC018591803011F0EFDFFBCF08954C
:100E1000FF27E0E230E247FF0CC0419597FF09C091
:100E2000EDE26095709580959095611D711D811D15
:100E3000911D27FF02C0219530E350E2AA27660FDB
:100E4000771F881F991FAA1FA41710F0A41B639572
:100E50005A95A9F7AA3008F0A95FA05DAF93F39562
:100E6000611571058105910541F7ED3211F4EF939C
:100E7000F395F21718F43F93F395FBCF8F91B5DFFD
:100E8000FA95E1F70895E991F9918591803021F083
:100E9000853219F0AADFF9CF089520E0E894559142
:100EA0005532C1F3503311F4689455915A3348F4D4
:100EB000505390F3220F022E220F220F200D250FE8
:100EC000F4CF0EF4219589919991533619F3533744
:100ED00029F1533559F1BC0188279927E8945C36EC
:100EE00021F48991999168945591543639F446EFDB
:100EF0007EF077FF0DC08FEF9FEF0AC055374AE0B5
:100F000039F0583540E121F0523642E009F00895B9
:100F1000FF93EF937DDFEF91FF91B7CFFF93EF93B7
:100F2000FC0181918030B9F360DFFBCFFF93EF9339
:100F300068DFF1CFDF93CF93CDB7DEB72596A3DF80
:100F4000CF91DF9108950E9403134FEF6FEF80E080
:100F50000E94F60F8EE00E94001360E070E0CB016B
:100F60000E94AF240C94BB248CEA90E0909304027E
:100F7000809303020895CF92DF92EF92FF926B016C
:100F80007C010E941C24813089F0882349F0823042
:100F900089F0C701B601FF90EF90DF90CF900895E0
:100FA00064EF71E080E00E94BE13F3CF64EF71E064
:100FB00081E0F9CF64EF71E082E0F5CFCF93C62FE7
:100FC00081111CC082E00E94C221882339F089EA85
:100FD000C11101C08AEACF910C944A1B8091DE01B5
:100FE000CC2341F081110AC081E08093DE01CF91D2
:100FF0000C94CD21882311F08150F7CFCF91089523
:1010000081E0089581E008950C94020808950C94FD
:1010100006081F93CF93DF9300D000D00F92CDB777
:10102000DEB749835A836B833091230289819A8189
:1010300031111DC06623B9F02223A9F00E94D322EA
:10104000182F682F89819A810E947E2269817A8176
:10105000812F0F900F900F900F900F90DF91CF91F5
:101060001F910C94D5080E94AB22182FEFCF0E943D
:10107000D32269817A81EDCFFC01262F40815181F5
:101080006281738184810C940908CF93DF93EC0112
:1010900060E00E943C08BE01DF91CF910C940708EC
:1010A0000E948124811102C00E9417250C94D80A45
:1010B0000C94DB0A08950C945A0881E008950C946E
:1010C0005D08CF93C82F0E945B088C2FCF910C94A2
:1010D0005F0808950E94CA1D0E9469082FEF84E3EB
:1010E0009CE0215080409040E1F700C000000C944B
:1010F0005A260F931F93CF93DF93EC0161E00E9478
:101100003C088C01BE010E940408882341F1BE0105
:10111000C8010E943F17882311F1BE01C8010E9437
:1011200080178823E1F0BE01C8010E94A31888231C
:10113000B1F0BE01C8010E943915882381F08A816F
:10114000882341F101308CE5180779F00E3D8CE5DC
:101150001807E9F001151C45E9F40E946A0880E0CF
:10116000DF91CF911F910F91089590917B02892F6C
:101170008E7F90FF816080937B0280FF05C08AE1B3
:1011800091E00E940107EBCF88E091E0FACF0E9446
:101190001725E5CFCE01DF91CF911F910F910C94D0
:1011A000000890E080E008950895972F70E023E014
:1011B000929F600D711D1124FB0199E0899FE00D44
:1011C000F11D1124EE0FFF1FEE52FF4F85919491F8
:1011D0000895FC01EE0FFF1FE55DFE4F8591949190
:1011E0000895CF93DF930E94D5080E94FD09EC017A
:1011F000811520E5920708F041C0811530E493077E
:1012000008F0B4C0803E910518F5803C910508F0C7
:101210009DC0883A910570F4853A910508F08EC01A
:1012200081309105F9F00097E9F00497D8F4D0E007
:10123000C0E018C08F3B9105D0F7C85AD0E0CC0F62
:10124000DD1FCD5DDE4F0990D881C02DD4640AC06A
:101250008115904258F4C11581E0D80718F4C83EB2
:10126000D10528F7CE01DF91CF910895C11590E304
:10127000D90708F071C0CE019F706AC0811525E5BD
:10128000920758F5811534E5930708F09EC0811543
:1012900042E5940750F4C11581E5D80708F469C008
:1012A000DC2FCC27C16FD06ADDCF982F969596950D
:1012B0009E0123703327C115D34508F077C0C1E0E4
:1012C000D0E002C0CC0FDD1F2A95E2F720E2929F0A
:1012D000C0011124C82BD92B67C0C11589E5D807D7
:1012E000A8F4C11598E5D90708F074C0C11526E522
:1012F000D20708F09CCF8C2F0E94940AC82FD0E010
:10130000DC2FCC27CC27DF71D062ACCFC1153AE5FA
:10131000D30708F464C0CE0190568115904208F0BE
:1013200086CF8D2F8F710E94940A90E0982F882786
:1013300088279F719C012C2BE901E6CFC55AD0E08C
:10134000CF5ADE4FC881D0E0D0648CCF805C910949
:101350000E94E908EC0186CFCE019927D3FF03C094
:10136000EC01D86C7FCFEC01D06C7CCFDF70D06A01
:1013700079CFCE01E4E096958795EA95E1F7837001
:101380002C2F26952695237090E2299F90011124F9
:10139000382B8C2F8370C1E0D0E002C0CC0FDD1F52
:1013A0008A95E2F7C22BD32BDC685CCFC1E0D0E09A
:1013B00002C0CC0FDD1F2A95E2F730E2939FC001F7
:1013C0001124C82BD92BDA684DCFD82FCC27C46F66
:1013D000D06A48CFDC2FCC27C06FD06A43CF8C2F88
:1013E0008F700E94940A34E0D695C7953A95E1F73C
:1013F000CF709C2FEC01D06935CF82389105B1F1C7
:10140000B0F48133910509F475C048F4893291052F
:1014100009F469C08A32910509F473C008958533CF
:10142000910509F459C08933910501F10895833E6E
:101430009105A9F138F4803E9105F9F0823E9105BD
:1014400049F10895863E9105A9F1873E9105C9F1BC
:10145000843E910519F52091AD0221FF1FC08091B6
:10146000AC0284FD14C087EE90E008952091AC0298
:101470002370A1F080EE90E008952091AC0220FD51
:1014800047C03091AD0230FF09C024FF44C090E056
:1014900080E004C02091AC0222FDF7CF0895209196
:1014A000AC0222FD3BC03091AD0230FDE3CF24FF02
:1014B000F5CFEDCF2091AC0223FFF0CF24FDE7CF95
:1014C000D2CF2091AC0223FD2CC03091AD0231FF70
:1014D000EECF84EE90E008952091AC0225FFDECFA0
:1014E00089E290E008952091AC0225FFD7CF85E3F3
:1014F00090E008952091AC0226FFD0CF8AE290E0E0
:1015000008952091AC0226FFC9CF81E390E00895B1
:1015100089E390E0089583EE90E0089582EE90E0F4
:10152000089586EE90E008959091AC0292FF06C077
:10153000282F28712830F9F4877F846093FF06C034
:10154000282F28712831F1F4877E84612091AD0223
:1015500020FF06C0382F38713830D9F4877F81607A
:1015600021FF06C0282F28712831D1F4877E8161A0
:1015700094FD877E0895282F24712430F9F68B7FFF
:101580008860DCCF282F2471243101F78B7E88619D
:10159000DDCF382F3171313019F78E7F8860E0CF81
:1015A000282F2171213121F78E7E8861E1CF0895A6
:1015B0000C94D70A08950C94DA0AE82FF0E0EF565D
:1015C000FD4F80810895CF92DF92EF92FF920F93AB
:1015D0001F93CF93DF938AE391E00E94010781E993
:1015E000E82E82E0F82ED0E0C0E095E3C92E91E02D
:1015F000D92E0DE211E0DF93CF93DF92CF920E94BC
:101600009A0782E391E00E940107F70181917F012F
:101610000E9469241F928F931F930F930E949A0731
:101620008BE291E00E94010721968DB79EB7089644
:101630000FB6F8949EBF0FBE8DBFC330D105D9F64B
:10164000DF91CF911F910F91FF90EF90DF90CF909E
:101650000895FF920F931F93CF93DF9324E531E01A
:101660006DE571E0C1E0D0E0D90150E040E08D913E
:101670008F3F91F0E82FE295EF70F0E0F1A08F70CE
:101680008E0101C0000F8A95EAF7902F90959F2157
:1016900091A382A1802B82A34F5F5F4F43305105FE
:1016A00031F72D5F3F4F62177307F1F610928E02EC
:1016B0001092910210928F02109292021092900258
:1016C0001092930283E00E94C10BDF91CF911F9192
:1016D0000F91FF900C945008EF92FF920F931F937D
:1016E000CF93DF93EEE8F2E064E571E0C0E001E063
:1016F00010E07B0150E040E030E0D7012D917D010A
:101700002F3FB9F0822F82958F7090E0DC01909688
:101710008C9190E02F7002C0959587952A95E2F7FD
:1017200080FD2BC0C801042E01C0880F0A94EAF77F
:10173000382B4F5F5F4F43305105F9F68081831797
:10174000F1F0308381E0C82B31966D5F7F4FB1E0BF
:101750006D357B0771F62C2F43E061E972E08EE86E
:1017600092E00E94C20B0E9458088C2FDF91CF910B
:101770001F910F91FF90EF90089580E0D9CF80E006
:10178000E2CF0895FF920F931F93CF93DF93F82E2C
:10179000092F162FD72FC42F222349F081E08093E1
:1017A000E1010E940F269093E0018093DF01809178
:1017B000E1018823A1F08091DF019091E0010E9476
:1017C0002726069760F0EF2DF02FA12FBD2FCE0F0B
:1017D000DF2FD11DEC17FD0741F41092E101DF91DD
:1017E000CF911F910F91FF90089581918D93F2CF2A
:1017F000AF92BF92CF92DF92FF920F931F93CF933E
:10180000DF93362F472FE82FF0E0EC54FA4F711199
:101810000DC06491762F862FDF91CF911F910F918C
:10182000FF90DF90CF90BF90AF900895C72FD0E08A
:101830002491F22E022F10E056E0659FC001112482
:10184000EFEFF0E0BF010E94D130832F90E0880FCE
:10185000991F35E5369FD001379FB00D11248A1BA3
:101860009B0B982F990F980F6F01CC1ADD0AC09E21
:10187000D001C19EB00DD09EB00D11248B2F949F2E
:10188000A0011124452F55276F01C41AD50AC09E07
:10189000A001C19E500DD09E500D11245F01A91AC8
:1018A000B108AC9E6001AD9ED00CBC9ED00C112442
:1018B000CD2CDD24EC19FD09E09FE001E19FD00D66
:1018C000F09FD00D1124ED2F62307105A1F048F486
:1018D0006115710569F06130710589F0EB2F852F75
:1018E00007C06430710571F088F066307105B1F79A
:1018F0006E2F722F91CFE22F2B2F8D2FF9CFE22F4A
:10190000252FF6CFEB2F822F2D2FF2CF2B2F8F2DC0
:10191000E52FEECF0895CF93DF93762FE901682F5F
:10192000842F0E94F80B798368838A83DF91CF919B
:10193000089580919402982F9E7F29F4817082608F
:101940008093940208958635E8F381708465F8CF1A
:1019500088E090E00C949531CF92DF92EF92FF9265
:101960006B017C010E94990CB701A60188E090E010
:10197000FF90EF90DF90CF900C94B331E4E9F2E068
:1019800083E0808311828FEF82838383148260815E
:101990007181828193810C94AC0C80917B0280FFD9
:1019A00076C081E894E09F938F930E949A0780917C
:1019B0007B020F900F9080FF6AC08091940281702B
:1019C0001F928F9384E694E09F938F930E949A07CF
:1019D00080917B020F900F900F900F9080FF57C067
:1019E0008091940286951F928F9389E494E09F934F
:1019F0008F930E949A0780917B020F900F900F9017
:101A00000F9080FF44C0809195021F928F938FE2C8
:101A100094E09F938F930E949A0780917B020F908E
:101A20000F900F900F9080FF32C0809196021F920E
:101A30008F9385E194E09F938F930E949A07809102
:101A40007B020F900F900F900F9080FF20C080912D
:101A500097021F928F938BEF93E09F938F930E9437
:101A60009A0780917B020F900F900F900F9080FF4C
:101A70000EC0809198021F928F938FED93E09F93F9
:101A80008F930E949A070F900F900F900F900895D8
:101A90008091940280FF02C08695089580E00895A9
:101AA00080919802833018F48F5F80939802609140
:101AB00094027091950280919602909197020C94F5
:101AC000AC0C80919802882319F081508093980281
:101AD0006091940270919502809196029091970284
:101AE0000C94AC0C21E030E001C0220F8A95EAF79B
:101AF00090910E02922381E009F480E0089570E055
:101B00000C94A9156F927F928F929F92AF92BF9281
:101B1000CF92DF92EF92FF920F931F93CF93DF93B9
:101B200000D000D00F92CDB7DEB770900701909132
:101B3000940290FF26C0C0900302D0900402C1140A
:101B4000D10489F58091060133E0839FC0011124FF
:101B5000672D87569D4F0E947F0D0F900F900F901D
:101B60000F900F90DF91CF911F910F91FF90EF9009
:101B7000DF90CF90BF90AF909F908F907F906F90AD
:101B80000895809108012091090133E0839FF001BD
:101B90001124E756FD4F821770F6118210821282CF
:101BA0008F5F3396F8CF90FFCDCFF12CE12C43E03F
:101BB000642E8E2D0E94720D882309F43CC0F7011B
:101BC000EE0FFF1FEC0DFD1DA590B490A114B10404
:101BD00009F4B8CF45E050E0B501CE0101960E946E
:101BE000773109810F3F39F18A81800F9927991F39
:101BF0008630910514F085E090E04C01880C991C2A
:101C0000880D991D9C0127563D4F4901069D800175
:101C1000112407561D4F0815190520F035E0A30EB5
:101C2000B11CD8CF98014D816C818B810E948B0CA7
:101C30000D5F1F4FF0CF8FEFE81AF80A28E0E21689
:101C4000F10409F0B6CF7ECF9091940290FF14C0BA
:101C5000909108012091090133E0939FF001112434
:101C6000E756FD4F921710F00C94820D818360832C
:101C700042839F5F3396F6CF0895CF93DF9300D0D2
:101C80000F92CDB7DEB79091940290FF0AC09E01EB
:101C90002F5F3F4F0E948B0C4B8169818A810E948C
:101CA000240E0F900F900F90DF91CF910895CF9356
:101CB000DF93EC01EC81F0E0E155FB4F4491E4E966
:101CC000F2E0628181810E943D0E8C818F5F8C8366
:101CD000DF91CF910895CF93DF93EC01E4E9F2E037
:101CE000438162818C810E943D0E8C818F5F8C8349
:101CF000DF91CF9108950F931F93CF93DF9300D07F
:101D00000F92CDB7DEB78C018091E20181110AC03C
:101D10009E012F5F3F4F4FEF6FEF0E948B0C8A8128
:101D20008093E201F8016481613069F08091E20101
:101D300040E0662361F040E0623011F44091E2013E
:101D400080E060E004C06091E20140E080E00E9439
:101D5000240EF801848190E0019663E070E00E9417
:101D6000E53084830F900F900F90DF91CF911F91FA
:101D70000F9108954F925F926F927F928F929F92F0
:101D8000AF92BF92CF92DF92EF92FF920F931F9389
:101D9000CF93DF9300D00F92CDB7DEB7182FD62E9A
:101DA000042F722E9091940290FF46C0E92FE69581
:101DB000AE2FB0E0A35ABE4F8C9180930C029E7F51
:101DC000923009F04DC09E012F5F3F4F812F0E943E
:101DD0008B0C4B8169818A810E94240E109395029D
:101DE000D092960200939702772009F49CC06091EC
:101DF00094027091950280919602909197020E94B0
:101E0000AC0C80917B0280FF17C0809197021F92DB
:101E10008F93809196021F928F93809195021F92CB
:101E20008F9382EA91E09F938F930E949A070FB657
:101E3000F894DEBF0FBECDBF0F900F900F90DF91D3
:101E4000CF911F910F91FF90EF90DF90CF90BF90B7
:101E5000AF909F908F907F906F905F904F9008957C
:101E6000823019F400919702B9CF863019F410919D
:101E70009502B4CF8930D9F3893109F0AFCFE95158
:101E80008E2F8170682E8E2F80958170C82EE695DA
:101E9000F0E0E155FA4FE590F490412CFF2497ECE7
:101EA000A92E91E0B92E60910A01461618F00E9401
:101EB000820D94CF842C912C8E9CC0018F9C900D10
:101EC0009E9C900D112470E00E94D130512E611023
:101ED00028C0560E80917B0280FF11C0FF92EF92C6
:101EE0001F92CF921F925F921F924F92BF92AF921A
:101EF0000E949A070FB6F894DEBF0FBECDBF2091A7
:101F00000801820E911C9401220F331F280D391DE8
:101F100027563D4F402F6D2D852D0E948B0C4394ED
:101F2000C2CF561AD7CF80917B0280FF85CF1F92F8
:101F30000F931F92DF921F921F938BE791E073CF55
:101F4000E4E9F2E09181282F4381628188E0890FE2
:101F50000C94BA0E81E00C94A00FE4E9F2E09181B8
:101F6000282F4381628188EF890F0C94BA0E81E09B
:101F70000C94AD0FE4E9F2E0628128E0620F08F40E
:101F80006FEF282F438181810C94BA0E81E00C946D
:101F9000BA0FE4E9F2E0628128E0621B08F460E035
:101FA000282F438181810C94BA0E81E00C94C90FD3
:101FB000E4E9F2E0438128E0420F08F44FEF282FD4
:101FC000628181810C94BA0E81E00C94D80FE4E90F
:101FD000F2E0438128E0421B08F440E0282F6281B0
:101FE00081810C94BA0E81E00C94E70F21E00C94EF
:101FF000BA0E20E00C94BA0EEF92FF921F93CF938B
:10200000DF93EC0110E0EE24EA94F12C60910A01D8
:10201000161770F00E94820D9A818C8190FF27C064
:102020008F5F8C83DF91CF911F91FF90EF90089588
:1020300020910801422F410F5527551FCA019A01CF
:10204000220F331F280F391F27563D4F70E0C7015D
:102050000E94E530962F8C81409197026091960204
:10206000199F800D11240E948B0C1F5FCFCF8150D0
:10207000D8CFAF92BF92CF92DF92EF92FF920F93A1
:102080001F93CF93DF93FC0182810FEF80FF01E06C
:1020900010E045E0A42E80910A011817C8F00E94B4
:1020A000820D8091E401013009F055C0811102C018
:1020B00080910A0181508093E401DF91CF911F91BB
:1020C0000F91FF90EF90DF90CF90BF90AF90089569
:1020D000C0910801C12ED12CCC0DDD2DD11DCE011A
:1020E000880F991FC80FD91FC756DD4F1982188254
:1020F0001A8234E0E32EF12CB12C8091E4018B0D97
:1021000086301CF16A2D0E94C330892F082E000CE6
:10211000990BC816D90691F4809197028E9DA00163
:102120008F9D500D112455954795559547959E01C6
:1021300060919602809195020E948B0CB00EF1E0A6
:10214000EF1AF108D1F61F5FA6CF87FFDFCF90917E
:102150000A01890FDBCF90E0019660910A0170E0DF
:102160000E94E530A8CF0F931F93CF93DF93809108
:1021700008019091090123E0829FF0011124E756A4
:10218000FD4F891740F1C0E0D3E060910A01C61706
:1021900040F10E94820D209104018091E301820FA1
:1021A0008093E30190910501920F90930501191618
:1021B00054F4082E000C990B40910A014150550B24
:1021C000841795071CF0219520930401DF91CF918E
:1021D0001F910F9108951182108212828F5F3396A2
:1021E000D0CF0C2F10E070E0C8010E94E5302091A4
:1021F0000801820F482F50E02091E301022E000CCD
:10220000330B02171307BCF020910501022E000CBE
:10221000330B201731077CF08D9F90011124275636
:102220003D4F4091970260919602809195020E94E5
:102230008B0CCF5FAACFFA01EE0FFF1FE40FF51F43
:10224000E756FD4F118210821282F3CF0F931F9336
:10225000CF93DF938C01FC0184819581019681707D
:10226000992795838483C0E0D5E580910A01C8173A
:1022700030F0DF91CF911F910F910C94820D20913E
:102280000801422F4C0F5527551FCA019A01220FF2
:10229000331F280F391F27563D4F8C2F8695F80185
:1022A00044815581840F952F911D81704091970233
:1022B000609196028D9F802D11240E948B0CCF5F20
:1022C000D4CF0F931F93CF93DF93EC0110E000E086
:1022D00090910A019017110609F06CF40E94820D8A
:1022E0008C8190E00196817099278C83DF91CF914A
:1022F0001F910F91089520910801A801420F511DCF
:102300009A01220F331F240F351F27563D4F4C8152
:10231000609196028091950296959017110651F062
:102320004CF0442349F0409197020E948B0C0F5FC0
:102330001F4FCECF4423B9F340E0F7CF8F929F9247
:10234000AF92BF92CF92DF92EF92FF920F931F93C3
:10235000CF93DF93FC01B280948081E0848300E01E
:1023600015E05BE4A52E88248394EE24EA94F12CF6
:102370007BE4C72ED12C80910A01081770F0DF9101
:10238000CF911F910F91FF90EF90DF90CF90BF9072
:10239000AF909F908F900C94820DC02FD0E01C9F27
:1023A000F0011D9FF00D1124EB51FE4F91101CC048
:1023B0001382128220910801CE01820F911D9C018F
:1023C000220F331F280F391F27563D4F1C9FF00146
:1023D0001D9FF00D1124EB51FE4F428161818081E0
:1023E0000E948B0C0F5FC7CF2381222379F12150EC
:1023F000238334818A2D821B311101C0822F1C9FBF
:10240000F0011D9FF00D1124EB51FE4F90919702AA
:10241000899FC0011124B6010E94D130628321112D
:1024200004C0332311F01482A38222E02B1510F292
:102430001C9FF0011D9FF00D1124EB51FE4F809168
:1024400095028083809196028183B4CF0E94673188
:10245000823091400CF0AECF82E08B1530F50E94B7
:102460006731B7010E94E5301C9FF0011D9FF00D00
:102470001124EB51FE4F808322E02B15C8F40E94FB
:102480006731209196022695622F70E00E94E53018
:10249000280F1C9FF0011D9FF00D1124EB51FE4FE2
:1024A00021831282A382848285CF80919502DCCF22
:1024B00020919602EECF60919402669570E04BE019
:1024C00050E08BE091E00E948031892B19F481E08B
:1024D00080930D020E940F269093060280930502BE
:1024E00080917B0280FF08C082E691E09F938F93EA
:1024F0000E949A070F900F90089510920D028091FC
:102500007B0280FF08C089E491E09F938F930E9433
:102510009A070F900F9008959091940290FF54C0E5
:10252000917081113BC09260909394026623E9F10F
:102530006091940270919502809196029091970219
:102540000E94AC0C80917B0280FF0FC080919402AE
:1025500086951F928F9385E293E09F938F930E94BD
:102560009A070F900F900F900F90609194026695CC
:1025700070E04BE050E08BE091E00E948031892BCD
:1025800001F10E947D1281E0809308024091970240
:1025900060919602809195020C94F90F8B3210F0A5
:1025A0009465C2CF880F982BBFCF80917B0280FFAC
:1025B000DCCF8091940286951F928F9387E093E001
:1025C000CCCF0E945B12DFCF0895682F90919402C8
:1025D000969581E0890F8B3208F081E00C948C1283
:1025E00081E00C94E512682F9091940296958FEFFC
:1025F000890F09F48AE20C948C1281E00C94F31296
:1026000061E00C948C12809194028160809394021A
:1026100080917B0280FF0DC01F9281E08F9389E93A
:1026200092E09F938F930E949A070F900F900F90C4
:102630000F908091940286950C94001360E00C94A6
:102640008C1280910B02811160C080917B0280FF0F
:1026500014C088EC93E09F938F930E949A07809117
:102660007B020F900F9080FF08C082EB93E09F9356
:102670008F930E949A070F900F900E9481248111DE
:1026800010C080917B0280FF08C08AE893E09F938E
:102690008F930E949A070F900F900E9417250E9417
:1026A000BE0C0E94A80C60939402709395028093D4
:1026B0009602909397026E7FC1F480917B0280FF17
:1026C00008C081E493E09F938F930E949A070F9034
:1026D0000F900E94BE0C0E94A80C6093940270930D
:1026E000950280939602909397020E94990C0E9403
:1026F000CD0C10920D028091940280FF03C086954C
:102700000E941E1381E080930B0208958091940231
:1027100081608093940280917B0280FF0DC01F92A4
:1027200081E08F9380E692E09F938F930E949A07B7
:102730000F900F900F900F908091940286950C94BB
:102740001E1321E030E0A90102C0440F551F8A95F5
:10275000E2F7CA0120910E02662361F0822B80937A
:102760000E0280910D02811108C08091940286951D
:102770000C941E1380958223F2CF08950F931F931C
:10278000CF93C82F8B0161E00E94A11321E030E0BC
:1027900001C0220FCA95EAF780910202822B809332
:1027A00002020E940F269093FF018093FE01109376
:1027B000010200930002CF911F910F910895CF93D2
:1027C000DF9380910202882321F18091FE01909194
:1027D000FF010E9427262091000230910102281754
:1027E0003907B8F4D0E0C0E08091020290E00C2EEE
:1027F00002C0959587950A94E2F780FF04C060E0D7
:102800008C2F0E94A1132196C830D10569F7109230
:102810000202DF91CF910895809194028E7F809380
:102820009402609194027091950280919602909129
:1028300097020E94AC0C80917B0280FF0FC08091B8
:10284000940281701F928F9388E292E09F938F93FE
:102850000E949A070F900F900F900F900E947D1288
:102860002FEF80E792E0215080409040E1F700C0D8
:1028700000000C94820D80917B0280FF10C080913B
:102880009402809581701F928F9380ED92E09F93C8
:102890008F930E949A070F900F900F900F90809146
:1028A000940280FD0C940C140C94031380919402F8
:1028B0008E7F8093940280917B0280FF0CC01F92D8
:1028C0001F928EEE91E09F938F930E949A070F9034
:1028D0000F900F900F900E947D122FEF80E792E0F3
:1028E000215080409040E1F700C000000C94820D20
:1028F0000F931F93CF93DF9380910D02882309F4E8
:102900003EC080910C02E0919402E695E81BE093B2
:1029100007028230D1F5F0E0E555FB4FE491CE2F70
:10292000D0E007E51EE080910802882389F010922C
:1029300008020E940F269E0120953095820F931F5A
:10294000909306028093050210920A0210920902E7
:1029500080910502909106020E9427268C179D0700
:1029600070F0E0910502F0910602CE0FDF1FD093C8
:102970000602C093050285E092E0F8010995DF9117
:10298000CF911F910F910C94DF13863049F4F0E042
:10299000E855FB4FE491CE2FD0E00BE61EE0C3CF0D
:1029A000893051F4E695F0E0EB55FB4FE491CE2FE2
:1029B000D0E00CEF1FE0B7CF8F3051F4E695F0E098
:1029C000EE55FB4FE491CE2FD0E009E310E1ABCF01
:1029D000853149F4F0E0E156FB4FE491CE2FD0E091
:1029E00003EB10E1A0CFC8EED3E006E211E188319D
:1029F00009F499CF833239F4EDE9F4E0C591D4912B
:102A00000BE71EE090CFC4EFD1E001E611E1843284
:102A100009F489CFC0EDD7E00AE81CE0853209F05F
:102A200082CF8E2F63E00E94B730E92FF0E0E656A8
:102A3000FB4FE491CE2FD0E00EE911E174CFFA0103
:102A4000811101C0FB010994CF93DF93C82FD62FCA
:102A50000E94480D8C1740F00E94480D8D1720F4FD
:102A6000DF91CF910C94F0128C2FDF91CF910C94C9
:102A700000130F931F93CF938C01FB01C281CC23D2
:102A800009F465C00E9468238272F801E25CFC458B
:102A9000E431F10538F4E65CFD4C0C94F9300E9409
:102AA0003B14C0E08C2FCF911F910F9108954DEFF3
:102AB00052E160EF72E10E941F15F3CF40EF52E147
:102AC0006DEF72E1F8CF47EB5FE06AEA7FE0F3CFAA
:102AD0004AEA5FE067EB7FE0EECF45ED5FE066EC52
:102AE0007FE0E9CF46EC5FE065ED7FE0E4CF43EFC8
:102AF0005FE064EE7FE0DFCF44EE5FE063EF7FE016
:102B0000DACF41E65DE060E57DE0D5CF40E55DE010
:102B100061E67DE0D0CF81E00E940013C2CF65E086
:102B200082E00E942415BDCF68E086E0FACF6EE017
:102B300089E0F7CF64E18FE0F4CF67E185E1F1CF81
:102B400088E1EACF62E289E1ECCF83E2E5CFC1E040
:102B5000A9CF259A45B14F7D55B15062EFB7F89492
:102B60009B01220F331F260F371F280F391F2817ED
:102B7000390741F4EFBF8FE594E00197F1F700C00A
:102B800000000895DC016D91CD0178E055B9000099
:102B900000C067FF45B9660F000000C000C000C05C
:102BA00045B900C07A9591F7E2CF0C94DE07AF9259
:102BB000BF92CF92DF92EF92FF920F931F93CF932A
:102BC000DF93AAE9B1E028E931E083E1A82E82E0B1
:102BD000B82E6CE971E041E050E00D91802F8295B4
:102BE0008F7090E0FC01C1A10F707A01002E01C02E
:102BF000EE0C0A94EAF7FE2DF095CF23FC01C1A359
:102C0000C2A1CE29C2A3E90119919E01E12FE2954B
:102C1000EF70F0E0F1A01F706A01012E01C0CC0C32
:102C20000A94EAF7EC2CE094EF20E1A2F2A0FC2851
:102C3000F2A2EC0188A190E002C0959587950A95D3
:102C4000E2F78170E0A1F0E002C0F595E7951A95F2
:102C5000E2F790E0E0FD92E0892BF50181935F01BE
:102C60006A177B0709F0B9CFDF91CF911F910F91C0
:102C7000FF90EF90DF90CF90BF90AF9008957F923C
:102C80008F929F92AF92BF92CF92DF92EF92FF927C
:102C90000F931F93CF93DF9303E112E08AE9C82ECD
:102CA00081E0D82E98E9E92E91E0F92EC1E1D2E039
:102CB0002FE0822E22E0922E712CD801ED918D0111
:102CC0006E2F660F660F6E93F60121916F01822FB2
:102CD00082958F7090E0FC0180A190E02F7002C07F
:102CE000959587952A95E2F781709927F7012191AB
:102CF0007F01422F42954F7050E0FA0140A150E011
:102D00002F7002C0559547952A95E2F79A012170D8
:102D1000332740FF02C022E030E0822BE62FE82B71
:102D2000EC935E01EF70F0E0E857FE4F80819881F0
:102D3000890F8883843044F0D4018C918F5F8C9309
:102D400060E0872D0E94D51588818D3F44F4F40101
:102D500080818150808361E0872D0E94D515219666
:102D6000FE013197D5018C91837887FF03C0815094
:102D70008C6F8F5F8083BFEF8B1A9B0AE1E07E121E
:102D80000EC0DF91CF911F910F91FF90EF90DF90D8
:102D9000CF90BF90AF909F908F907F9008957724B1
:102DA00073948BCF0F931F93CF93DF93C62FD42FA2
:102DB000022FFC0182818823C9F0609317020E94D0
:102DC0000F26909316028093150280E28C0F8830B4
:102DD00008F050C0C77081E001C0880FCA95EAF7BB
:102DE000DF91CF911F910F910C945D1B10911702F1
:102DF000161335C080911502909116020E94272665
:102E0000883C910560F5C0E2CD0F1D17B9F080E256
:102E1000810F883040F4177081E001C0880F1A9547
:102E2000EAF70E94641BC83048F481E09D2F977038
:102E300001C0880F9A95EAF70E945D1B802F0E94BF
:102E40004A1BC830B8F4D77081E001C0880FDA950A
:102E5000EAF7DF91CF911F910F910C94641B80E2F0
:102E60008C0F883038F4C77081E001C0880FCA9594
:102E7000EAF7EFCFDF91CF911F910F9108959C0159
:102E8000CB01233F4CE5340731F190F4283DFCE5BC
:102E90003F07E9F0293D4CE5340769F1273D3C4502
:102EA00079F426E241EE61EE0E94D21680E00895A8
:102EB000253FFCE53F07B9F090F0263F3C45B9F0CF
:102EC000FC0182818823D1F010921702089527E235
:102ED00045EE65EEE9CF26E241EE60EEE5CF27E272
:102EE00045EE64EEE1CF26E241EE62EEDDCF27E271
:102EF00045EE66EED9CF28E241E0EBCF81E00895C0
:102F0000CF93DF93EC01FB018281882309F419C17F
:102F1000C230FCE5DF07C0F1C6319CE5D90730F0CF
:102F20009E012A5F3C452930310570F50E949424AA
:102F30009093AD028093AC02C031ECE5DE0709F45A
:102F4000CFC008F05BC0C8308CE5D80709F4B6C024
:102F500088F5C430ECE5DE0709F4A8C0C0F4C2303F
:102F60008CE5D80709F49CC08091AC028260C33024
:102F7000DC4509F498C08091AC029091AD020E94AA
:102F8000A2240E94CA1D80E0DF91CF910895809114
:102F9000AC028061C630ECE5DE0709F484C08091A4
:102FA000AC028860C730DC4508F47DC08091AC027B
:102FB000806279C0CC308CE5D80709F489C070F400
:102FC0008091AC028C60CA30ECE5DE0709F46BC07E
:102FD00008F478C08091AC028E7F65C0CE308CE55D
:102FE000D80709F479C08091AC028B7FCF30DC45E3
:102FF00008F459C08091AC028F7E55C0CB3FECE500
:10300000DE0709F457C030F5C3318CE5D80709F461
:103010006FC078F4C131ECE5DE0709F465C0C23158
:10302000DC4509F0A8CF0E94CA1D8091AC028F77C1
:103030003AC0C5318CE5D80709F462C008F476C0FF
:103040008091AD028160CA3FDC4509F094CF809346
:10305000AD0291CFCF3FFCE5DF0709F44DC088F406
:103060008091AD028D7FCD3F9CE5D90781F38091A2
:10307000AD028E7FCE3FDC4550F38091AD02836080
:10308000E6CFC130FDE5DF0709F459C008F444C0BC
:1030900080E0C230DD4509F06ECF0E9419256BCF6C
:1030A0008091AC0281608093AC0265CF8091AC02CC
:1030B0008460F9CF8091AD028260C9CF8091AC026B
:1030C0008064F1CF0E94CA1D8091AC028068EBCF72
:1030D0008091AC028D7FE7CF8091AC02877FE3CFF8
:1030E0008091AC028F7DDFCF8091AC028F7BDBCFF4
:1030F0008091AC02837FD7CF8091AD028C7FA7CF28
:103100008091AC0282FB992790F921E0922790FBF5
:1031100082F990FB83F9C7CF8091AD02982F9095EB
:1031200091708E7F892B90FB81F991CF0E94CA1DEF
:103130009091AC02892F97FB87F98058B4CF81E03A
:10314000ACCF81E021CFCF93DF93EB0186319C455B
:1031500011F50E9468239A81992399F08A7A91E067
:1031600009F490E090931802811109C089E20E944D
:1031700043230E94B42380E0DF91CF91089585E33B
:10318000F6CF80911802811104C089E20E944A237F
:10319000F0CF85E3FBCF81E0EFCF90931E028093C9
:1031A0001D020895E0911D02F0911E02309721F05A
:1031B0000190F081E02D099480E00895EF92FF9254
:1031C0000F931F93CF93DF938C01E0911D02F09139
:1031D0001E023097C1F10280F381E02D09958091A4
:1031E0007B0282FF30C080FF04C08CEB96E00E941F
:1031F0000107D0E0C0E086EBE82E86E0F82E809153
:103200007B0280FF0EC0F801EC0FFD1F80811F9232
:103210008F93FF92EF920E949A070F900F900F905A
:103220000F902196C830D10551F780917B0280FF25
:103230000AC084EB96E0DF91CF911F910F91FF9030
:10324000EF900C940107DF91CF911F910F91FF90A8
:10325000EF90089520911B0230911C022817390726
:1032600071F090931C0280931B02E0911D02F0917B
:103270001E02309721F00680F781E02D0994089511
:103280002091190230911A022817390771F0909392
:103290001A0280931902E0911D02F0911E023097EC
:1032A00021F00084F185E02D0994089585B78068A8
:1032B00085BF85B7806885BF0895089508950C94EB
:1032C0005D190C94B4070E9456190E945E190C9463
:1032D0005F1981E008950C9469190E9406260E94E6
:1032E000290B0E946B260E9421130E94D7150C9473
:1032F0006119CF93C82F80917B0282FF1EC080FF8F
:103300001CC085ED96E00E94010780917B0280FF42
:1033100014C01F92CF9380ED96E09F938F930E94ED
:103320009A0780917B020F900F900F900F9080FF73
:1033300004C08EEC96E00E9401078C2FCF910C9474
:103340006108AF92BF92CF92DF92EF92FF920F93FC
:103350001F93CF93DF93CDB7DEB72A970FB6F894BC
:10336000DEBF0FBECDBF0E946C0B0E946B1988237D
:1033700009F461C080E2A82E82E0B82E10E000E0DF
:10338000C02E802F0E94DD0AE82EF501D1905F014A
:10339000D81609F44AC080917B0281FD0E94E30A9D
:1033A00080E0FF24F394DE249D2D9F21C9F18E83BC
:1033B000CF82EF2081E009F480E088870E940F2609
:1033C0008160782F9A8789874E815F8168858A8599
:1033D0000E943D1AF801E05EFD4F8081F826F082E0
:1033E0000E9478140E943F160E94D21890911F02EA
:1033F000891791F10E94D21880931F022A960FB666
:10340000F894DEBF0FBECDBFDF91CF911F910F911A
:10341000FF90EF90DF90CF90BF90AF900C94791910
:103420008F5FFF0C833009F0BFCF0F5F1F4F03305A
:10343000110509F0A5CF8FEF89838A831B820E9433
:103440000F268160782F9D838C8349815A816B81FF
:103450008D810E943D1AC4CF2A960FB6F894DEBF24
:103460000FBECDBFDF91CF911F910F91FF90EF90D5
:10347000DF90CF90BF90AF900895CF93DF93CDB7FB
:10348000DEB72B970FB6F894DEBF0FBECDBF4F83CC
:10349000588769877A878B871E821D8285E0FE01A7
:1034A0003796DE01119601900D928A95E1F74981D8
:1034B0005A816B817C818D819E812B960FB6F89409
:1034C000DEBF0FBECDBFDF91CF910C944020FC0139
:1034D000808191810C941523CF93C82F882309F400
:1034E00088C08238C1F40E94D21881FD82C089E36D
:1034F0000E9443230E94B4232FEF81EE94E02150D9
:1035000080409040E1F700C0000089E30E944A2318
:10351000CF910C94B4238338A1F40E94D21880FD7B
:1035200068C083E50E9443230E94B4232FEF81EEFD
:1035300094E0215080409040E1F700C0000083E516
:10354000E5CF8438A1F40E94D21882FD52C087E4EE
:103550000E9443230E94B4232FEF81EE94E0215078
:1035600080409040E1F700C0000087E4CFCF8CEFAF
:103570008C0F813AB8F48C2F0E940529811139C033
:103580006C2F80911601909117010E94302588239D
:1035900029F08C2F0E944A230E94B4238C2F0E9472
:1035A0004323B6CF80E28C0F883048F4C77081E0A7
:1035B00001C0880FCA95EAF70E946B23A9CFEBE5FB
:1035C000EC0FE33040F4F0E0E653FE4F808190E0F2
:1035D000CF910C942A19C85AC73158F4EC2FF0E057
:1035E000EE0FFF1FE456FE4F80819181CF910C9426
:1035F0004019CF910895882309F44BC0823871F4A3
:103600000E94D21881FF45C089E30E9443230E9493
:10361000B42389E30E944A230C94B423833859F4D9
:103620000E94D21880FF35C083E50E9443230E9488
:10363000B42383E5EFCF843859F40E94D21882FF77
:1036400028C087E40E9443230E94B42387E4E2CF8A
:103650009CEF980F913AF0F290E2980F983050F466
:10366000877091E001C0990F8A95EAF7892F0E942F
:103670007123D2CF9BE5980F933020F490E080E047
:103680000C942A19885A873120F490E080E00C9439
:1036900040190895CF93C82F0E946C1AC93349F47A
:1036A0002FEF87EE93E0215080409040E1F700C07B
:1036B00000008C2FCF910C94FB1A882321F00E94DC
:1036C0006B230C94B4230895882321F00E94712366
:1036D0000C94B4230895BF92CF92DF92EF92FF92A1
:1036E0000F931F93CF93DF936C01D62FC72FFC014D
:1036F000058102950F70128111110E9488230E948A
:103700006123E82E882391F01123D1F08C2F807F44
:10371000803421F080E28D0F883090F082E00E94AA
:10372000FF230E94612391E0E82EE926BC2EB2948B
:103730009FE0B922EB2DF0E0E25BFD4C0C94F930F8
:10374000E12CF4CF0C2F0F70C07F11F00295007F99
:103750001123A9F0002359F080E28D0F883010F07A
:10376000D11109C0802F0E946B230E94B4238D2F9A
:103770000E946C1A14C0802F0E947B23F6CF8D2FDD
:103780000E94FB1A002359F080E28D0F883010F060
:10379000D1112CC0802F0E9471230E94B4232B2DA5
:1037A0002850330B2430310520F40E94D2180E9497
:1037B0006108EE2009F493C10E945D2380FD8FC152
:1037C000F60112820E9457230E94E221C6010E9444
:1037D000901D0E945723DF91CF911F910F91FF9071
:1037E000EF90DF90CF90BF900C940322802F0E9427
:1037F0008123D3CFFC2FFF70FF2EC07FC03219F082
:10380000F29480EFF822DD2369F0D13049F11123E1
:1038100091F1002351F1F601858180FFA8CF8F70CF
:10382000858323C0112381F0011106C00E949B23D0
:103830008F290E945D1BB3CF0130C1F70E949B23EB
:103840008F290E94A123ABCF011106C00E94AA2399
:103850008F2D0E94641BA3CF013009F4A0CFF6CFB7
:10386000112329F0063008F09ACF8F2DE2CF0530D2
:1038700008F095CFEDCF002359F3D93349F4FFEF8A
:1038800027EE33E0F15020403040E1F700C0000067
:103890008D2F0E94FB1A83CF8C2F8695869583707F
:1038A00069F0813009F07BCF8D2F9C2F937011111F
:1038B00002C090E080E00E94401971CF8D2F9C2FB4
:1038C0009370111102C090E080E00E942A1967CF26
:1038D0008C2F837009F041C0111161CF4D2F42959B
:1038E00046954770440F440F0D2F0F7010E030E0E5
:1038F00020E0042E04C0000F111F221F331F0A9462
:10390000D2F760E070E0CB01D4FF0FC06FE070E051
:1039100080E090E004C0660F771F881F991F4A95CA
:10392000D2F76095709580959095C695C695C370B1
:10393000602B712B822B932BC23049F058F4C1308D
:1039400019F00E9476212BCF0E94642128CF0E947B
:10395000882125CF0E94622122CF8695112311F064
:103960008C2F8170882309F41ACF4D2F42954695EC
:103970004770440F440F0D2F0F7010E030E020E02F
:10398000042E04C0000F111F221F331F0A94D2F708
:1039900060E070E0CB01D4FF0FC06FE070E080E02A
:1039A00090E004C0660F771F881F991F4A95D2F7D1
:1039B0006095709580959095C695C695C370602B5F
:1039C000712B822B932BC23049F058F4C13019F07F
:1039D0000E945922E4CE0E944722E1CE0E946B222F
:1039E000DECE0E949C21DBCECF70112329F08C2FDC
:1039F0000E94E2218D2F1DCF8D2F0E94641B8C2FE2
:103A00000E940322CCCED23F89F160F4D03FC9F0AE
:103A1000D13F29F1112309F442C00111A8CE8C2F06
:103A20008F7121C0D33F39F1D43FA1F7112369F140
:103A3000CF718C2F0E94E22163E08C2F0E94EA2339
:103A4000AECE112341F0053008F0A9CE8C2F8F7136
:103A50000E942622A4CE063008F0A1CEF7CF8C2FEC
:103A60008F71112369F20E94E22199CE8C2F8F7100
:103A70001123C9F3C5CF112329F08C2F8F710E9418
:103A8000CD218DCE0E94A8218ACE81E00E94FF2305
:103A9000023008F484CE82E00E94FF2380CE00230F
:103AA00059F0D93309F0F4CE8FEF97EEE3E081506F
:103AB0009040E040E1F7EACE8C2F8F71A1CF4C2FE0
:103AC0004F706D2FC6010E94D1080E94DA2067CE88
:103AD0004C2F4F706D2FC6010E94D40860CEDF912D
:103AE000CF911F910F91FF90EF90DF90CF90BF90FB
:103AF00008950F931F93CF93DF93EC016881798131
:103B00008A810E941F238C010E947D220E946121D4
:103B1000B801CE01DF91CF911F910F910C946B1BD7
:103B2000CF93DF93EC018B819C81892B29F08881D5
:103B3000998189238F3F59F4DF91CF910895CE0168
:103B40000E94791DCE01DF91CF910C944508CE01E2
:103B50000E9479088111F3CF0E946123882361F3C9
:103B60008A81882349F382E0DF91CF910C94FF236F
:103B70000E9488230E9498230E94B42390E080E052
:103B80000E942A1990E080E00C9440190E94512371
:103B90000C94B81D0E9478230C94C61DE92FE29561
:103BA000EF70E250EE3070F4F0E0E25AFD4C0C940D
:103BB000F930803F19F020F4883E20F481E0089528
:103BC000843FE1F380E00895883EC0F3813FD1F760
:103BD000F5CF93FB882780F908950E9415230C9454
:103BE000CE1DCF93DF9300D000D00F92CDB7DEB7BC
:103BF0000F900F900F900F900F90DF91CF9108953D
:103C0000CF93DF9300D000D000D0CDB7DEB726969B
:103C10000FB6F894DEBF0FBECDBFDF91CF910895F0
:103C20001F93CF93DF93C091240216E08091250269
:103C30008C1304C0DF91CF911F910895D0E01C9F99
:103C4000F0011D9FF00D1124EA5DFD4F408151816F
:103C500062817381848195810E94001E2196C770C4
:103C6000E5CF4091560250915702609158027091F1
:103C7000590280915A0290915B020C94001E1F938E
:103C8000CF93DF9380915B02807FA9F480915802EB
:103C9000882389F080912402C09125026091560208
:103CA00070915702A0915902B0915A02D62FD72392
:103CB00016E0C81304C0DF91CF911F91089590E0E2
:103CC000109711F0DF3F19F401968770F2CF189F1B
:103CD0009001199F300D1124F901EA5DFD4F4181DA
:103CE0004713F2CF40814613EFCF42814111ECCF11
:103CF000438154814A1B5B0B483C510528F7809156
:103D00005B028F70806180935B02F901E55DFD4F7E
:103D100080818F708061808386E592E00E94901D93
:103D2000DF91CF911F910C94101EAF92BF92CF9252
:103D3000DF92EF92FF920F931F93CF93DF93CDB754
:103D4000DEB761970FB6F894DEBF0FBECDBF8C0112
:103D500085E0F801DE011D9601900D928A95E1F74C
:103D6000F80140815181E28086E5C82E82E0D82E9C
:103D70006091590270915A026115710509F461C18F
:103D80009091560220915702892F82238F3F09F488
:103D900058C1A380B480F0905802F501E61BF70BE0
:103DA000FF2009F4FCC080915B02382F307FE83C93
:103DB000F10508F0B2C0311179C0FE2C251323C0E3
:103DC000941321C0E1101FC08F70806180935B024B
:103DD0000E94311EC6010E94901D80915B02F80175
:103DE00085838F2D61960FB6F894DEBF0FBECDBFD1
:103DF000DF91CF911F910F91FF90EF90DF90CF90C7
:103E0000BF90AF900895AB2829F0842F85238F3F72
:103E100009F033C180E0F82FF170DF2E80FF3CC045
:103E2000809124022091250236E0821315C04D872F
:103E30005E878D859E850E941523292F22952F70E0
:103E40002230F0F0243018F59F70F1F0F8019581E0
:103E5000907FD1F4D12C1EC090E0389FF001399FA3
:103E6000F00D1124EA5DFD4F6181651306C060818C
:103E7000641303C062816E110FC001968770D5CFA5
:103E80009F7011F0882331F3805E883018F3C801E9
:103E90000E94901DFD2CA5CFEE2009F4A2CF8091A9
:103EA0005B02816080935B02F12C9BCF251306C0DF
:103EB000941304C0F801EE2009F48DC04D875E878D
:103EC0008D859E850E94ED1D882319F1EE2009F154
:103ED00080915B02803270F020915602309157023F
:103EE00038872F831986BB86AA868C87CE010796D2
:103EF0000E94901D86E0F801A6E5B2E001900D92C7
:103F00008A95E1F70E943F1E0E94311EFF24F39420
:103F100068CFC8010E94901DF9CF311113C07A2DCE
:103F2000B98AA88A6E2D89890E94F11D86E592E0E2
:103F30000E94901D86E0F60111928A95E9F70E9491
:103F4000311EB2CF25130FC094130DC0E1100BC06A
:103F5000F8018583C8010E94901D86E0F601119248
:103F60008A95E9F73ECF4D875E878D859E850E94B5
:103F7000ED1D882371F2EE2061F280915B028032A8
:103F800008F4B8CF20915602309157023A83298322
:103F90001B82BD82AC828E83CE010196A9CFE83C04
:103FA000F10508F041C0FE2CEE2009F4B2CF251334
:103FB0002AC0941328C080915B0280FD1BC0982FFB
:103FC000907FC1F0F8018583903F31F0982F907F6A
:103FD000905F8F70892B8583C8010E94901D86E0B9
:103FE000F801A6E5B2E001900D928A95E1F70E94F2
:103FF000311EF7CE86E0F801A6E5B2E001900D9201
:104000008A95E1F7EECE4D875E878D859E850E946D
:10401000ED1D81116FCF80915B02816080935B0207
:10402000C8010E94901DDDCE7A2DB98AA88A6E2D16
:1040300089890E94F11D86E0F60111928A95E9F7BF
:10404000D6CFEE2009F465CF4D875E878D859E859E
:104050000E94ED1DF82E882309F45BCF86E0F8015D
:10406000A6E5B2E001900D928A95E1F786E592E02F
:104070000E94671A0E943F1EBACF81E08E25CBCEE8
:104080001F93CF93DF93CDB7DEB72C970FB6F8947D
:10409000DEBF0FBECDBF4F83588769877A878B8776
:1040A0009C87CE0107960E94951E882369F08A8519
:1040B0009B85892B39F04F815885842F85238F3F2D
:1040C00009F071C016E05FC086E0FE013796DE01A0
:1040D000119601900D928A95E1F78A859B85892B2F
:1040E00089F388859F8189238F3F61F32091250281
:1040F00030E0C90101968770992740912402481742
:10410000190671F40E94CA1D109225021092240211
:1041100086E0E6E5F2E0DF011D928A95E9F7D2CF6D
:1041200096E0929FD001939FB00D1124AA5DBD4FE0
:10413000FE01319601900D929A95E1F78093250248
:104140000E94101EBFCF819FC00111248A5D9D4F28
:104150000E94951E8823E9F0E09124021E9FF00141
:104160001124EA5DFD4F4081518162817381848118
:1041700095810E94001E8091240290E00196877034
:10418000992780932402809124029091250289131B
:10419000DACF2C960FB6F894DEBF0FBECDBFDF91FD
:1041A000CF911F91089569857A858B859C850E94A2
:1041B000001E88CFEF92FF920F931F93CF93DF9350
:1041C0008C01892B81F0F12CEE24E394E8012196F7
:1041D000F8018491843770F4843008F05FC0813036
:1041E000B1F08230A1F1DF91CF911F910F91FF903B
:1041F000EF900895853709F44CC008F43DC09CE762
:10420000980F903780F78F770E94FB1A49C00E5F96
:104210001F4FFE01849190E2980F983060F48770F0
:10422000FE2D01C0FF0F8A95EAF78F2F0E948B2386
:104230000E94B42302C00E946C1A8F2D815030F26C
:10424000EFE9FFE03197F1F700C00000F7CF0E5F14
:104250001F4FFE01849190E2980F983050F48770C0
:10426000FE2D01C0FF0F8A95EAF78F2F0E94912340
:10427000DFCF0E94FB1AE1CF0E5F1F4FFE01C491FA
:10428000C150D8F28FE99FE00197F1F700C000001C
:10429000F7CF0E5F1F4FFE01F490CFCF0E946C1A34
:1042A0008E01CBCF08950C9452210E94532160932C
:1042B0006A0270936B0280936C0290936D020C946F
:1042C000B81D08950C9455210F931F9300916A0215
:1042D00010916B0220916C0230916D02602B712B5A
:1042E000822B932B1F910F910C9455210F931F93A9
:1042F00000916A0210916B0220916C0230916D0264
:1043000060237123822393231F910F910C945521D5
:104310000F931F9300916A0210916B0220916C021F
:1043200030916D0260277127822793271F910F918B
:104330000C9455210C94BB070E949A21609366024D
:104340007093670280936802909369020C94B81D81
:1043500060E070E0CB010C949C2161157105810532
:10436000910529F481E0442361F080E00895DC01A7
:10437000CB0104C0B695A795979587954A95D2F736
:1043800081700895482F6091660270916702809154
:104390006802909169020C94AD210F931F9341E044
:1043A00050E060E070E08A019B0104C0000F111F23
:1043B000221F331F8A95D2F7C901B8011F910F91AF
:1043C0000C949C210F931F9341E050E060E070E05B
:1043D00004C0440F551F661F771F8A95D2F780913E
:1043E000660290916702A0916802B09169028A0109
:1043F0009B01082B192B2A2B3B2BC901B8011F91BC
:104400000F910C949C210F931F9341E050E060E0CA
:1044100070E004C0440F551F661F771F8A95D2F7BE
:10442000CB01BA01609570958095909500916602D8
:104430001091670220916802309169026023712314
:10444000822393231F910F910C949C210F931F9310
:1044500041E050E060E070E004C0440F551F661F6B
:10446000771F8A95D2F78091660290916702A0919A
:104470006802B09169028A019B01082719272A273F
:104480003B27C901B8011F910F910C949C210F93F8
:104490001F9300916602109167022091680230918B
:1044A0006902602B712B822B932B1F910F910C941F
:1044B0009C210F931F930091660210916702209137
:1044C00068023091690260237123822393231F9134
:1044D0000F910C949C210F931F93009166021091F1
:1044E0006702209168023091690260277127822754
:1044F00093271F910F910C949C210895E92FEE0FA3
:104500009E0F890F982F977041E001C0440F9A9534
:10451000EAF786958695869595E0899FF0011124A6
:10452000E45AFD4F30E020E070E05191DF01119737
:10453000CB01022E02C0969587950A94E2F781700E
:1045400081958527842385278C932F5F3F4F2530C6
:10455000310559F70895E92FEE0F9E0F890F982F17
:10456000977086958695869525E0829FF0011124A7
:10457000E45AFD4F50E040E080E0219130E0092E08
:1045800002C0369527950A94E2F721703327042E4E
:1045900001C0220F0A94EAF7822B4F5F5F4F45302C
:1045A000510559F70895BF92CF92DF92EF92FF9293
:1045B0000F931F93CF93DF938C01C0906602D0902E
:1045C0006702E0906802F090690280916A0290911F
:1045D0006B02A0916C02B0916D02C82AD92AEA2A16
:1045E000FB2ACFE1D0E0BC2ED701C6010C2E04C0BF
:1045F000B695A795979587950A94D2F780FD0EC03A
:10460000219788F7B12C8B2DDF91CF911F910F91BE
:10461000FF90EF90DF90CF90BF900895B8018C2F5E
:104620000E94F108019761F3EECFCF93DF93EC0185
:104630000E94D322BE01DF91CF910C94F1081F9309
:10464000CF93DF93EB0190912302992331F0CB01BB
:10465000DF91CF911F910C941523882379F0CB0122
:104660000E94D322182F682FCE010E947E22BE0105
:10467000812FDF91CF911F910C94F108CB010E9403
:10468000AB22182FF4CF682F80911601909117015B
:104690000C946625682F80911601909117010C9457
:1046A000682580911601909117010C946A258091DC
:1046B0006E02859585958595089580916E02877027
:1046C000089590916E02977081E009F480E008955A
:1046D00080917A02089590917A02892B80937A02D0
:1046E0000895809590917A02982390937A02089584
:1046F00010927A02089590917902892B8093790221
:104700000895809590917902982390937902089565
:1047100010927902089590917802892B8093780203
:104720000895809590917802982390937802089547
:1047300010927802089580916F02089508950C9464
:104740009E2390916F02981721F080936F020C9432
:104750009F23089580916F02882329F010926F02A1
:1047600080E00C949F230895E0911601F0911701C9
:1047700080917A028083E0911601F0911701808187
:1047800090917902892B8083E0911601F0911701B5
:10479000808190917802892B808390916F02992378
:1047A00081F0E0911601F09117018081892B8083BF
:1047B00080911601909117010E941E2581110E947F
:1047C000AA2380911601909117010C94DE18089588
:1047D0000C94E72398E0899F90011124622B609349
:1047E0006E020E94E22180916E02859585958595E5
:1047F0000C94E82310926E0280E00C94E8239091D0
:104800006E028095892380936E02282F277071F4A1
:10481000282F082E000C330B9217130639F08595BC
:10482000859585950E9403220C94FA230895909310
:10483000DD018093DC010895CF92DF92EF92FF9229
:104840006C01EE24FF2420E0C114D104E104F10442
:1048500019F0C701B60120E1C72ED82EE92EFF249A
:10486000C114D104E104F10419F0285FC701B601B5
:104870006B017C0154E0F694E794D794C7945A9561
:10488000D1F7C114D104E104F10419F02C5FC70180
:10489000B6016B017C0142E0F694E794D794C7948B
:1048A0004A95D1F7C114D104E104F10419F02E5F47
:1048B000C701B6019695879577956795672B682B05
:1048C000692B09F02F5F822FFF90EF90DF90CF9040
:1048D0000895829590E09C01220F331F220F331F11
:1048E0002C7C95958795959587958373282B30E03B
:1048F000C901880F991F8A7A359527952575822BCE
:10490000089590E080E00E949B3121E08C3E9E4F14
:1049100009F020E0822F089582E090E00C948D3120
:1049200083E090E00C948D31CF9384E090E00E947E
:104930008D31C82F81E290E00E948D31982F8C2F0D
:10494000CF910895CF93C92F682F84E090E00E9403
:10495000A1316C2F81E290E0CF910C94A131AB0199
:10496000BC018FE090E00C94B331AB01BC0183E15A
:1049700090E00C94B33160E070E0CB010C94B5246E
:104980006CEE7EEF90E080E00E94BF3160E082E05C
:1049900090E00E94A13160E083E090E00E94A131AC
:1049A00010926A0210926B0210926C0210926D02C9
:1049B00060E084E090E00E94A13160E081E290E05C
:1049C0000E94A13160E085E090E00E94A13160E0AA
:1049D00086E090E00E94A1316FEF87E090E00E94B6
:1049E000A13140E050E0BA0188E090E00E94B3318C
:1049F00060E08DE090E00E94A13140E050E0BA011B
:104A000088E190E00E94B33160E087E190E00E948D
:104A1000A13140E050E0BA018CE190E00E94B33156
:104A200060E080E290E00E94A1310C94A3070C9416
:104A3000C024682F8EE090E00C94A1319C012E5F81
:104A40003F4FAC01485F5F4F80E02417350709F402
:104A50000895F90191919F019923B9F38F5FF5CFE3
:104A6000662349F0FC01329608962191261729F019
:104A7000E817F907D1F780E0089581E008959C01D7
:104A8000FC0132969FEF80E04191461751F09F3F25
:104A900019F4411101C0982F8F5F8630A9F79F3F0D
:104AA00009F40895290F311D97FD3A95F9016283A4
:104AB0000895FC01329608962191261303C0DF0168
:104AC00011971C92E817F907B9F708950C943F2540
:104AD0000C945925029626E0FC0111922A95E9F7DB
:104AE0000895089508950C9472250E94732580916D
:104AF000B202843009F439C010927C0288E190E05F
:104B000020E40FB6F894A895809360000FBE209320
:104B1000600080E00E9461080E947D1280917D0209
:104B200081110AC081E080937D028091940281709E
:104B300080937E020E9456140E94732583B7817F62
:104B4000846083BF83B7816083BF7894889583B77F
:104B50008E7F83BF0FB6F894A8958091600088611E
:104B600080936000109260000FBE08950895CF9367
:104B70000E9471250E946C0B0E94B625C0E08C2F0C
:104B80000E94DD0A811105C0CF5FC330C1F7CF910C
:104B9000089581E0FCCF08950C94CB250E94CA1D96
:104BA0000E94D2180E94610810927D0280917E02BC
:104BB00081110E9486130E945B120C94CC251F92D7
:104BC0001FB61F9211248F939F93AF93BF93809131
:104BD0007C02811113C08091A8029091A902A0913A
:104BE000AA02B091AB024196A11DB11D8093A8020B
:104BF0009093A902A093AA02B093AB02BF91AF9188
:104C00009F918F911F901FBE1F90189582E084BDC9
:104C100093E095BD9AEF97BD80936E0008952FB7EE
:104C2000F8948091A8029091A902A091AA02B09153
:104C3000AB022FBF08952FB7F8946091A80270912E
:104C4000A9028091AA029091AB022FBF08959C0106
:104C50004FB7F8948091A8029091A902A091AA025E
:104C6000B091AB024FBF821B930B089578941F92B3
:104C70001FB61F9211248F939F93AF93BF93809180
:104C8000A8029091A902A091AA02B091AB0201964C
:104C9000A11DB11D8093A8029093A902A093AA021E
:104CA000B093AB02BF91AF919F918F911F901FBEA8
:104CB0001F90189587E797E7909301088093000865
:104CC00088E19AE00FB6F894A895809360000FBE33
:104CD00090936000FFCF0E948124811102C00E9446
:104CE00017250E948C2480937B020E949424909329
:104CF000AD028093AC020E949024682F70E090E097
:104D000080E00C946221CF93C82F1F928F938EEE78
:104D100096E09F938F930E949A0761E070E080E095
:104D200090E004C0660F771F881F991FCA95D2F7BD
:104D30000E9462210F900F900F900F90CF910C94D2
:104D4000CA1DCF93DF938B3109F4FAC108F09CC1DF
:104D50008B3009F4B8C108F06AC1863009F4C6C1C5
:104D600048F4853009F49EC189E59BE00E94010763
:104D700080E0CCC1873009F4CCC18830A9F788EF36
:104D80009BE00E94010789E49BE00E9401070E94CA
:104D900090241F928F9386E49BE09F938F930E94B1
:104DA0009A0784E49BE00E9401070E948C24C82F8C
:104DB00081E39BE00E9401071F92CF938CE29BE06E
:104DC0009F938F930E949A078AE29BE00E940107BB
:104DD00080E29BE00E9401078C2F81701F928F93CD
:104DE0008DE19BE09F938F930E949A078BE19BE05C
:104DF0000E94010781E19BE00E940107C1FB882717
:104E000080F91F928F938EE09BE09F938F930E9477
:104E10009A078CE09BE00E94010780E09BE00E94E3
:104E20000107C2FB882780F91F928F938DEF9AE0CC
:104E30009F938F930E949A078BEF9AE00E9401073D
:104E400082EF9AE00E940107C3FBCC27C0F91F92B2
:104E5000CF938FEE9AE09F938F930E949A078DEEE7
:104E60009AE00E9401070E949424EC0189ED9AE0E7
:104E70000E940107DF93CF9384ED9AE09F938F9375
:104E80000E949A0782ED9AE00E94010789EB9AE05E
:104E90000E9401078C2F81701F928F9386EB9AE0FE
:104EA0009F938F930E949A078DB79EB780960FB6F7
:104EB000F8949EBF0FBE8DBF84EB9AE00E9401075D
:104EC0008DE99AE00E940107C1FB882780F91F92B3
:104ED0008F938AE99AE09F938F930E949A0788E9BB
:104EE0009AE00E94010786E89AE00E9401078D2F50
:104EF00081701F928F9383E89AE09F938F930E9413
:104F00009A0781E89AE00E9401078FE69AE00E94E2
:104F10000107D695D1701F92DF938CE69AE09F939C
:104F20008F930E949A078AE69AE00E94010788E51B
:104F30009AE00E940107C2FB882780F91F928F9395
:104F400085E59AE09F938F930E949A0783E59AE004
:104F50000E94010781E49AE00E940107C3FB8827B1
:104F600080F91F928F938EE39AE09F938F930E9414
:104F70009A078CE39AE00E94010782E39AE00E947C
:104F80000107C4FB882780F91F928F938FE29AE074
:104F90009F938F930E949A078DE29AE00E940107E7
:104FA0008BE19AE00E940107C5FB882780F91F92D8
:104FB0008F9388E19AE09F938F930E949A0786E1EE
:104FC0009AE00E9401078AEF99E00E940107C6FB60
:104FD000882780F91F928F9387EF99E09F938F9393
:104FE0000E949A078DB79EB780960FB6F8949EBF21
:104FF0000FBE8DBF85EF99E00E9401078DEE99E00D
:105000000E940107C7FBCC27C0F91F92CF938AEEFD
:1050100099E09F938F930E949A0788EE99E00E94EF
:1050200001070F900F900F900F9081E06FC08031BB
:1050300009F49EC080F48E3009F096CE90917B02E8
:10504000892F8B7F92FF846080937B0282FF8DC0CB
:1050500084E89BE081C0863109F49AC0893109F067
:1050600083CE8BE198E00E94010786EE97E00E94D4
:10507000010784EB97E00E94010787E897E00E9410
:1050800001078CE597E021C08A3249F190F487321C
:1050900011F128F48E3108F467CE8D511DC089328C
:1050A00009F062CE87EC9BE00E9401070E946A082B
:1050B000BCCF833468F48A3308F0A1C0853359F03B
:1050C000883309F051CE85E498E00E940107ADCF06
:1050D000833409F049CE80E00E948326A6CF87EE74
:1050E0009BE00E9401070E9417259FCF80917B02C1
:1050F000807F80937B028AE298E00E94010783EE22
:105100009BE00E94010781E080937F02DF91CF91B5
:10511000089590917B02892F8E7F90FF816080930C
:105120007B0280FF03C08BEB9BE0CFCF8EEA9BE03E
:105130000E94010780917B02817F80937B0275CF63
:1051400090917B02892F8D7F91FF826080937B02FB
:1051500081FF08C081EA9BE00E94010780917B02E9
:105160008160EBCF83E99BE0B0CF84E79BE0ADCFDC
:1051700090917B02892F877F93FF886080937B02C9
:1051800083FF03C088E69BE0E7CF8BE59BE09DCFE4
:105190008EE497E00E9401070E94D2181F928F931D
:1051A00084E397E09F938F930E949A078091220156
:1051B0001F928F938DE197E09F938F930E949A07A0
:1051C00080918C021F928F938AE097E09F938F9338
:1051D0000E949A070E941B269F938F937F936F9341
:1051E00083EF96E09F938F930E949A078DB79EB7A7
:1051F00042960FB6F8949EBF0FBE8DBF16CF89534F
:105200006BCF80E008950C940129CF93C82F809133
:105210007F02882331F0813099F010927F0280E084
:105220000DC00E9468238232D1F78C2F0E94012981
:10523000811119C08C2F0E94A1268170CF910895F1
:105240000E946823823289F38C2F0E9403298111E6
:1052500019C0C431C9F050F4CB3061F088EE96E04B
:105260000E94010713C081E090E0E7CFC93261F0EE
:10527000C833A1F78AE298E00E9401078AEE96E01F
:105280000E94010781E0D9CF10927F0280E0D5CF44
:1052900080918B02089508959FB7F894109282022E
:1052A0009FBF9091B202943009F048C02091E9006C
:1052B0002F703091EC00932F917030FD90E8922B7D
:1052C00023E02093E9002091EB0020FF34C02091DF
:1052D000EE0027FF30C020918002222321F0209190
:1052E000E80025FF28C01092800226E03091E800F7
:1052F00035FF14C08093F1008091E80085FD27C040
:105300008091E80080FFFCCF8091E8008E77809349
:10531000E8009F709093E90080E008953091B20218
:10532000343049F43091EB0035FD05C0215041F493
:1053300081E0809380029F709093E9008FEF089541
:10534000EFE9FFE03197F1F700C00000CFCF8FB752
:10535000F89421E0209382028FBFDBCFCF93DF93BD
:1053600000D00F92CDB7DEB79091B202943019F50C
:1053700089837B836A8382E08093E9008FEF909139
:10538000E800815095FD06C095ED9A95F1F7000073
:105390008111F5CF8091E80085FF0DC050E040E01D
:1053A00063E070E0CE0101960E94272C8091E80016
:1053B0008E778093E8000F900F900F90DF91CF9140
:1053C0000895CF93DF93EC010E940A2C823011F0F4
:1053D000843031F4BE0184E0DF91CF910C94AE298A
:1053E000DF91CF910895BC0183E00C94AE29CF9357
:1053F000DF93EC010E940A2C823011F0843039F5E1
:1054000081E08093E9008FEF9091E800815095FD55
:1054100006C095ED9A95F1F700008111F5CF8091C6
:10542000E80085FF14C050E040E068E070E0CE0185
:105430000E94272C8091E8008E778093E80088E016
:10544000FE01A3E8B2E001900D928A95E1F7DF91A9
:10545000CF91089588E29CE00E9401078091B102FB
:10546000811109C00E94B72D0E94142E8091E20084
:1054700084608093E200089584E29CE00E9401072A
:105480001092B102089580E29CE00C9401078CE137
:105490009CE00C94010788E19CE00E9401070C94B9
:1054A000CE25209181022F5F822F62E30E94B730C8
:1054B000992319F02093810208951092810280911E
:1054C00082028823F1F08091B2028430C1F490917D
:1054D000E9009F702091EC00822F817020FD80E810
:1054E000892B93E09093E9009091EB0090FF04C02A
:1054F0009091EE0097FD08C08F708093E9001092A4
:10550000820208951092F1009091E80095FDFACF83
:105510009091E80090FFF0CF9091E8009E779093F3
:10552000E800EACF42E061EC81E00E94332D42E2E4
:1055300061EC82E00E94332D42E261EC83E00C9446
:10554000332D8091B402833009F45FC030F4813090
:10555000C1F1823009F49BC008958A3009F487C0F4
:105560008B3009F46DC0893009F04EC08091B302D0
:10557000813209F049C08091B7029091B802029738
:1055800008F042C08091E800877F8093E800809116
:10559000E80082FF35C09091F3008091F2000297FD
:1055A00029F48091F1008B7F813021F48091F1000A
:1055B00080938B028091E8008B778093E8000C94B5
:1055C000672D8091B302813AF9F48091E800877FDA
:1055D0008093E8008091B7029091B802892B61F422
:1055E00068E083E892E070E00E94762C8091E80009
:1055F0008B778093E800089560E090E080E0F3CF3F
:105600008091B2028111C3CF08958091B302813A93
:10561000D9F78091B7029091B802892BA9F78091B0
:10562000E800877F8093E8008091E80080FFFCCF4E
:10563000809122018093F1008091E8008E77BDCFA8
:105640008091B302813201F78091B7029091B80244
:10565000892BD1F68091E800877F8093E8000E9433
:10566000672D8091B502809322010C94CA1D809110
:10567000B302813249F68091E800877F8093E80089
:105680000E94672D8091B60280938C0208958091CC
:10569000B302813A09F0B8CF8091E800877F809308
:1056A000E8008091E80080FFFCCF80918C02C2CF9F
:1056B00084B7877F84BF0FB6F894A8958091600067
:1056C000886180936000109260000FBE80E890E0D7
:1056D0000FB6F89480936100909361000FBE0E9412
:1056E00063190E94B72D0E94142E8091E2008460FD
:1056F0008093E2008CE499E20E94172478940E943F
:105700009C300E946D1988E191E00E94CD1887E0DD
:105710009CE00E9401078091B202853019F00E943E
:10572000A119F9CF83E09CE00E9401070E94752532
:105730008091B002882379F30E94B725882359F31A
:105740000E94112CE8CF0C94A52B292F332723304E
:10575000310521F168F42130310509F449C02230C6
:10576000310509F44AC090E080E030E020E029C033
:105770002132310581F122323105A9F763307105FB
:1057800090F7FB01EE0FFF1FE053FE4F20813181A8
:1057900063537E4FFB01808190E013C099278130D5
:1057A000910599F0009741F08230910589F00397B7
:1057B000D1F6ECE2FCE002C0E2E5FCE0849190E08E
:1057C0009F01FA01318320830895EEE3FCE0F6CFD8
:1057D000E2E3FCE0F3CF6330710528F6660F771F34
:1057E000FB01EA52FE4F2081318189E090E0E9CF50
:1057F00082E190E021EB3CE0E4CF8BE590E026E510
:105800003CE0DFCF8091B202843011F482E0089551
:1058100081E0089580918D02811102C00C94022CC8
:10582000089580E189BD82E189BD09B400FEFDCF04
:105830008091D8008F7D8093D8008091E0008260B5
:105840008093E0008091E00081FDFCCF0895AF924D
:10585000BF92CF92DF92FF920F931F93CF93DF936C
:105860006C01EB018A010E94862DF82E811123C064
:105870000115110539F0F80180819181C81BD90B00
:10588000C80ED91EB12CA12C2097A9F08091E80058
:1058900085FD22C08091E8008E778093E800011595
:1058A0001105A1F0F80180819181A80EB91EB18285
:1058B000A08285E0F82E8F2DDF91CF911F910F915F
:1058C000FF90DF90CF90BF90AF9008950E94862DFB
:1058D0008823D1F2F82EEFCFF60181916F018093EA
:1058E000F1002197FFEFAF1ABF0ACECFFC018091E4
:1058F000B9029091BA0286179707A0F06115710559
:1059000029F49091E8009E779093E80090E061156B
:10591000710551F4911108C08091E80082FF34C0F4
:1059200080E00895BC01F2CF8091B2028823C1F1DA
:105930008530C1F18091E80083FD30C08091E8009E
:1059400082FDEACF8091E80080FFE1CF8091F300F3
:105950002091F200382F6115710519F028303105BA
:1059600058F091E02830310509F090E02091E800EE
:105970002E772093E800CBCF81918093F100615086
:1059800071092F5F3F4FE7CF8091B202882341F02A
:10599000853041F08091E80083FFBECF81E008951B
:1059A00082E0089583E00895FC018091B90290910E
:1059B000BA0286179707A0F06115710529F4809146
:1059C000E8008E778093E80090E06115710551F44E
:1059D000911108C08091E80082FF35C080E00895F1
:1059E000BC01F2CF8091B2028823C9F18530C9F1A0
:1059F0008091E80083FD31C08091E80082FDEACF0C
:105A00008091E80080FFE1CF8091F3002091F200C7
:105A1000382F6115710519F02830310558F091E0E3
:105A20002830310509F090E08091E8008E7780936E
:105A3000E800CBCF84918093F100319661507109D9
:105A40002F5F3F4FE6CF8091B202882341F085302F
:105A500041F08091E80083FFBDCF81E0089582E0AE
:105A6000089583E00895982F973028F08F708093E1
:105A7000E90081E008959093E900242F762F50E00B
:105A8000981731F07091EC002091ED005091F000EA
:105A900021FD02C09F5FE8CF3091EB003E7F309345
:105AA000EB003091ED003D7F3093ED003091EB0045
:105AB00031603093EB007093EC002093ED00509335
:105AC000F0002091EE0027FDE5CF80E00895809161
:105AD000B30287FF13C08091E80082FF06C0809167
